:020000040000FA
:030000000200CD2E
:03001300023EA00A
:03003300026F9EBB
:03003B00023FF78A
:03004B00023C0074
:03006B00027053CD
:10007B00023B3900000080FBE479127807B80002DC
:10008B008004F709D8FCE490F1FF788079098002AD
:10009B00F0A3D8FCD9FA7A7E7BFA9000DC7846790B
:1000AB00018015E493A3AD82AE838A828B83F0A388
:1000BB00AA82AB838D828E83D8E9D9E71240BF1217
:1000CB00007E75D0007581BF7510FF7511F10200B0
:1000DB008315313223342526161A192A0B2C0D0EB3
:1000EB001C802101B001B001B001B001B8010000CA
:1000FB0080431E00000000002043240B183A9C5341
:10010B00C9350000804717B7D13601000000205DCC
:10011B000000410100001201000202000020510406
:10012B00A616090001020301090243000201008027
:10013B00190904000001020201000524001001044A
:10014B002402020524060001052401000107058293
:10015B000340004009040100020A00000007058467
:10016B0002400001070504024000010403090416C4
:10017B00034E006900670068007400730063006F32
:10018B00007500740018034D004D0043006F006DA7
:10019B00006D0061006E00640065007200080330A2
:1001AB0000300031003C0100005F010000C3E0960D
:1001BB0008A3E09608A3E09608A3E09622C008C324
:1001CB00E096F50808A3E096420808A3E0964208DB
:1001DB0008A3E09645087001D3D00822E96C70069D
:1001EB00EA6D7002EB6E22BB0102E722C082C08374
:1001FB0089828A83BB0003E08002E493D083D082A0
:10020B0022BB000EC082C0838A838982F0D083D048
:10021B008222BB0101F722080808E630E711120918
:10022B008012023A080808C64480C618181822180B
:10023B001818E9799EC608CAC608CBC608CCC6C32F
:10024B0070207996CACBCC7019798ECBCC70137980
:10025B0086CC700EF9802ACA33CACB33CBCC33CCC5
:10026B00331930E7F2CCCBCA3350147004EA30E0C8
:10027B000DE4CA3ACACB3BCBCC3CCC500209C3E908
:10028B0013C6CC182313C6CB18C6CA18C6F922122C
:10029B0002E530F03912032A80341202E520F01403
:1002AB0030E72B74FFFCFBFA747F8022E4FCFBFA33
:1002BB007480801AB48008BC00F2BB00EF800F5032
:1002CB00EBF9E4C39AFAE49BFBE49CFCE499C6CCFF
:1002DB0018C6CB18C6CA18C6F922E4C9C608CAC6BE
:1002EB0008CBC6D3330308CCC63392F0C3947F40FC
:1002FB002E94184019C9B90704CACBCC225025C378
:10030B0009CA33CACB33CBCC33CC33D9F422F46008
:10031B000DC9CCC313CB13CBCA13CAD9F6CC22E469
:10032B00FCFBFA2214FCFBFA22E6261846184618A8
:10033B004622E72719471947194722181818E608C4
:10034B0046087009E626087005E633F422082219E0
:10035B001919E70947097009E727097005E733F40D
:10036B00220922E6084608C3134608336002E63327
:10037B00F422E7094709C3134709336002E733F453
:10038B002212036E601C12037D6017120334700778
:10039B0012033D7001D322C0D012033D7006D0D0A2
:1003AB00B322C32233D0D0501430E0F6C3E7960803
:1003BB0009E7960809E7960809E796B32220E0D5E6
:1003CB00E6970809E6970809E6970809E697B32226
:1003DB000012036E604F12037D6012E7548066F6C5
:1003EB00120346701112033D703B090909F4F6180C
:1003FB00F618F618F62212035A7015120334080871
:10040B000860EAE6447FF618768018E4F618F622C0
:10041B00120334601612033D7012E4F608F608F668
:10042B0008E65480F609090918181822EAC0E0EB0F
:10043B00C0E0ECC0E0EDC0E0E687F0A4FBACF00858
:10044B00E687F0A42CFCE435F0FA1809E687F0A453
:10045B002C4B60027401CA35F0FCE433FB09E687D0
:10046B00F0D2F7A42CCB35F0FC1908E687F0A42BBF
:10047B00CC35F0FBE433FD0819E687F0D2E7A42C6A
:10048B004ACB35F0CD3400FC09E687F0D2E7A42D3A
:10049B00CC35F0FDE433FA0918E687F0D2F7A42C3B
:1004AB00CD35F0CA3400FC08E687F0D2E7D2F7A4CA
:1004BB002ACC35F07A7E20E70B0ACB33CBCD33CD6C
:1004CB00CC33CC33CB3350147004ED30E00ED2F17F
:1004DB00E4CD3DCDCC3CCC3B5005DA05C2F1EB5421
:1004EB007FC63308E63392F0FBE73309E733C39A51
:1004FB00502D2B70190C0D4C4D70151806E608C3BA
:10050B0033700D20F10AA2F013F6E418800B40248F
:10051B00E4F630F002768018F618F618F68024D33D
:10052B003B14501074FFA2F013F6187680E418F603
:10053B0018F6800FA2F013F618E63303F618ECF654
:10054B0018EDF6D0E0FDD0E0FCD0E0FBD0E0FA22D5
:10055B0012037D604612036E603DE9687008F61861
:10056B00F618F618F622748067F712058F09090939
:10057B00748067F72212036E601D12037D700519DC
:10058B001919801A120346701F12035AC37003E61F
:10059B00673319191940071818182208080874FF2F
:1005AB00F618F618F618F62212035A601712033DC6
:1005BB00702192F01203347019501720F0140808B0
:1005CB0008090909E7F61819E7F61819E7F61819D3
:1005DB00E7F62212033460E6E869701F0808E62488
:1005EB0080F608E436F618547FB47F0CE65480602E
:1005FB0007F6E418F618F622181822E9C6CC08C636
:10060B00CD08C6CE08C6CFC0E0E8C0E0EAC0E0EB3C
:10061B00C0E009E9F809E7FA09E7FBE6F918E6F89B
:10062B00C3EC98ED99EE9AEBC2E7F5F0EFC2E795C4
:10063B00F0500E600CEBCFFBEACEFAE9CDF9E8CC2B
:10064B00F8EAA2E7D2E7FAEB33FB13F5F0EEA2E7F9
:10065B00D2E7FEEF33FFC5F013A2E730E601B31389
:10066B00C5F0C3C0E0C0F07F00C39BFB605E941875
:10067B00600F401D14601AD0E023F9D0E0F8020798
:10068B00618AF0E9486003D2F0E4AFF0FAF9F88040
:10069B003BEB30E40D89F0EA6003D2F0E4AFF0F904
:1006AB00CAF8EB30E30D88F0EF6002D2F0AFF0E464
:1006BB00CAC9F8EB54076014FBC3EA13FAE913F940
:1006CB00E813F8EF135002D2E0FFDBEDD0E0C0E00F
:1006DB0030E739C3E49FFFF5F0EC98FC42F0ED995D
:1006EB00FD42F0EE9AFE42F0D0E0F9D0E0F8E5F0F2
:1006FB00607AE923F9EE20E742D8028067C3EF3333
:10070B00FFEC33FCED33FDEE33FE80EAEC28FCED21
:10071B0039FDEE3AFED0E023F9D0E0F84002801B21
:10072B00C3EE13FEED13FDEC13FCEF135002D2E0FE
:10073B00FF08B800067F7F74FF802EEF3350178CB5
:10074B00F020F00260100CBC000C0DBD00080EBEBA
:10075B00000408E860DFE933E813FFEE2313FE4FD4
:10076B004D4C8008E95480FFE4FEFDFCEE33EF3383
:10077B00F47004FCFD7E80D0E0FBD0E0FAD0E0F812
:10078B00D0E0CFC618CEC618CDC618CCC6F92212EB
:10079B00036E70041818182212037D700D74FFF687
:1007AB001819F61819F61819F622E7548066F6127E
:1007BB000334700F12033D70F014F608F608F608B8
:1007CB00F680D112033D700CF608F608768008E629
:1007DB00447F80EC12035D700C12034960BFE6543A
:1007EB0080F6E480BB120349700519191980A5E83E
:1007FB0069700C763F18768018F618F6E8F922E641
:10080B00CDC0E018ECC0E0E633CD33CDD313F6E723
:10081B0019FCE7191933CC33C3947F400ECD9D508F
:10082B002408E65480F6E418F6800FF4043D1450C7
:10083B001408E6447FF6187680E418F618F6D0E034
:10084B00FCD0E0FD22CCD313CCFD18E4C6CBC0E02A
:10085B0018E4C6CAC0E00808ED08C633E613F6185C
:10086B00E433C675F003C3CA97CA09CB97CB199C5F
:10087B0040047D08802EBD000302094316B6FF0518
:10088B000606081618C3CA33CACB33CB33CA27CADA
:10089B0009CB37CB193CC37D08803E187D0820E778
:1008AB005CC633C6CA33CACB33CB33DDF1D5F0EBE1
:1008BB0030E77BCA97CA09CB974ACB199C406F4B41
:1008CB007025E620E0218066187D08C3CA97CA0907
:1008DB00CB97CB199CD3C633C6CA33CACB33CB33D6
:1008EB0050C9DDE7D5F0E1D3E4C636C608C636C637
:1008FB0008C636C608C636C61818188031C3CA973C
:10090B00CA09CB97CB199CB34097C633C6CA33CA17
:10091B00CB33CB33DD34D5F02EC6A2E0C640C8CAEC
:10092B0027CA09CB37194A70BECB3CB480B908082B
:10093B00E63308E633601F181818D0E0FAD0E0FB56
:10094B00D0E0FCD0E0FD22187D08CA27CA09CB37BE
:10095B00CB193CD3808013F618E4B67F11F618B68A
:10096B00FF0EF618C60470D20808768080CAF618F7
:10097B00F618F680C5181818E4C396F608E496F630
:10098B0008E496F608E496F622E627F60809E63719
:10099B00F60809E637F60809E637F622E026F008EE
:1009AB00A3E036F008A3E036F008A3E036F022C34C
:1009BB00E0C696F608A3E0C696F608A3E0C696F640
:1009CB0008A3E0C696F622E0F608A3E0F608A3E03B
:1009DB00F608A3E0F622E6F008A3E6F008A3E6F09B
:1009EB0008A3E6F022E0FAA3E0FBA3E0FCA3E0FD02
:1009FB0022E8F0A3E9F0A3EAF0A3EBF022CAC0E0EF
:100A0B00E6F0A308DAFAD0E0FA22CAC0E0E0A3C508
:100A1B0082CCC582C583CDC583F0A3C582CCC582EC
:100A2B00C583CDC583DAE6D0E0CA22C3E498F8E4E7
:100A3B0099F9120A778026C3E49AFAE49BFBE92022
:100A4B00E7E9120A77E498F8E499F922C3E498F8F5
:100A5B00E499F9120A77E498F8E499F9C3E49AFA5D
:100A6B00E49BFB22EB20E7CFE920E7E0B90010BBCA
:100A7B000008E88AF084F8AAF022E4FBC8FA22EB1B
:100A8B0070227B10C833C8C933C9335007C39AC30C
:100A9B00DBF280069A50012ADBEAC833F4C8C9336B
:100AAB00F4C9FA2275F008E4C833C8C933C933C98D
:100ABB009AC99B5004C92AC93BD5F0ECFBC833F447
:100ACB00C8E4C9FA22600D08C6A2E713C618C613FC
:100ADB00C6D5E0F322600C08C6C313C618C613C6EE
:100AEB00D5E0F422700422600D18C6C333C608C6C5
:100AFB0033C6D5E0F41822251010AF08F510400CC2
:100B0B0015118008F51040021511D2AF2200C0D08C
:100B1B00251010AF08F510500C05118008F510507A
:100B2B00020511D2AFD0D0222510F58210AF08F5F7
:100B3B0010400C15118008F51040021511D2AF852D
:100B4B00118322C5822510C582C583351110AF07CD
:100B5B00F5118582108007F511858210D2AFC58300
:100B6B00222510F582E43511F583222510FAE435A0
:100B7B0011FB222510FCE43511FD22E4732510C571
:100B8B0082C0E0E51134FFC583C0E0E510C3958258
:100B9B0024F910AF08858311858210800885831195
:100BAB00858210D2AFCEF0A3E520F0A37808E6083B
:100BBB00F0A3DEFAEFF0A3E58124FBF8E608F0A33F
:100BCB00E608F0A30808E608F0A3E608F0A31581F1
:100BDB001581D0E0FED0E0F815811581E8C0E0EE7C
:100BEB00C0E022851183851082E0A3FEE0A3F520EF
:100BFB007808E0A3F608DFFAE0A3FFE0A3C0E0E08B
:100C0B00A3C0E0E0A3C0E0E0A3C0E010AF08858282
:100C1B00108583118008858210858311D2AFD08314
:100C2B00D08222C0D02510C582C0E0E51134FFC5AB
:100C3B0083C0E0E510C3958224F310AF08858311C0
:100C4B008582108008858311858210D2AFC8F0A3EE
:100C5B00E9F0A3EAF0A3EBF0A37908E709F0A3D836
:100C6B00FAECF0A3EDF0A3EEF0A3EFF0A3D0E0F0DD
:100C7B00A3D0E0F0A3D0E0F0A3E520F0A3E5F0F0E3
:100C8B00A322851183851082E0C0E0A3E0F9A3E0E5
:100C9B00FAA3E0FBA37808E0F608A3DFFAE0FCA3D5
:100CAB00E0FDA3E0FEA3E0FFA3E0C0E0A3E0C0E013
:100CBB00A3E0F5D0A3E0F520A3E0A3F5F010AF0877
:100CCB008583118582108008858311858210D2AFB0
:100CDB00D082D083D0E0F8D0E03274038004740269
:100CEB008000C0E0F404120B33D0E0120A08227427
:100CFB0003800474028000CCC0E0EDC0E0E510C3BB
:100D0B009CCCAD1150011D10AF068C108D118006BF
:100D1B008C108D11D2AF120A15D0E0FDD0E0FC2261
:100D2B00D083D082CCC0E0E493A36006120D55149F
:100D3B0070FAE493A36006120D741470FAD0E0FC01
:100D4B00E493A3C0E0E493C0E022C0E0E493A3D318
:100D5B009C5010E493A3C39C400AD0E0D0E0D0E0B9
:100D6B00020D48A3A3A3D0E022C0E0E493A36C70D0
:100D7B0009D0E0D0E0D0E0020D48A3A3D0E022746C
:100D8B00F7120B887E007F0074912EF58274F63F6C
:100D9B00F5837441F00EEE70010F74912EF5827491
:100DAB00F63FF5837454F00EEE70010F74912EF52F
:100DBB008274F63FF583742BF00EEE70010F749175
:100DCB002EF58274F63FF583744EF00EEE70010F24
:100DDB0074912EF58274F63FF5837441F00EEE702C
:100DEB00010F74912EF58274F63FF583744DF00E5E
:100DFB00EE70010F74912EF58274F63FF5837445F6
:100E0B00F00EEE70010F74912EF58274F63FF583A0
:100E1B00746DF00EEE70010F74912EF58274F63F27
:100E2B00F5837444F00EEE70010F74912EF58274FD
:100E3B00F63FF5837472F00EEE70010F74912EF580
:100E4B008274F63FF5837469F00EEE70010F7491A6
:100E5B002EF58274F63FF5837470F00EEE70010F71
:100E6B0090F7157400F0A37400F075080375090072
:100E7B00800CE50824FFF508E50934FFF50990F728
:100E8B0015E0F8A3E0F9E849703BE5084509603542
:100E9B0090F7117402F0A37400F01240837800797C
:100EAB000080130AEA70010BC3EA9437EB947F407E
:100EBB00F208E8700109C3E89405E9940050B37A8D
:100ECB00007B0080E3E50845097004790080799088
:100EDB00F7157400F0A37400F07508037509008012
:100EEB000CE50824FFF508E50934FFF50990F71523
:100EFB00E0F8A3E0F9E8497039E50845096033905B
:100F0B00F711EEF0A3EFF012408378007900801315
:100F1B000AEA70010BC3EA9437EB947F40F208E8BE
:100F2B00700109C3E89405E9940050B57A007B0081
:100F3B0080E3E508450970047900800C90F715747F
:100F4B0000F0A37400F079017F02020BEE74F11232
:100F5B000B888A088B0990F717E07003021EE28555
:100F6B000882850983E0120D2B031012D110181A79
:100F7B003C1D2022641208009C0F13481314971574
:100F8B0015D91916FA1A171B1C24E6172BB01EE2DB
:100F9B001E7E008E0A750B007491250AF58274F67D
:100FAB00350BF5837400F00E850882850983E0C04C
:100FBB00E08E0875090074912508F58274F63509E1
:100FCB00F583D0E0F00E8E0875090074912508F5B5
:100FDB008274F63509F583746DF00E8E0875090071
:100FEB0074912508F58274F63509F5837444F00E77
:100FFB008E0875090074912508F58274F63509F58C
:10100B00837472F00E8E0875090074912508F582B1
:10101B0074F63509F5837469F00E8E087509007442
:10102B00912508F58274F63509F5837470F00E8EF0
:10103B000875090074912508F58274F63509F58356
:10104B007420F00E8E0875090074912508F58274D2
:10105B00F63509F5837476F00E8E087509007491D8
:10106B002508F58274F63509F5837431F00E8E0878
:10107B0075090074912508F58274F63509F58374AA
:10108B002EF00E8E0875090074912508F58274F602
:10109B003509F5837430F00E8E08750900749125AF
:1010AB0008F58274F63509F5837431F00E74FF2E52
:1010BB0090F691F0EEF8790090F711E8F0A3E9F0D3
:1010CB00124083021EE27E008E0A750B007491257E
:1010DB000AF58274F6350BF5837400F00E850882E1
:1010EB00850983E0C0E08E0A750B007491250AF523
:1010FB008274F6350BF583D0E0F00E7900021241C5
:10110B00E8FC7D00EC75F002A4CCAAF075F000A40D
:10111B002AFA75F002EDA42AFDE9F50A750B00E534
:10112B000A75F004A4C50AAAF075F000A42AFA7592
:10113B00F004E50BA42AF50B850882850983E0FAF8
:10114B007B00EA5403FAEB5400FBEA75F020A4CAC7
:10115B00AFF075F000A42FFF75F020EBA42FFB74FC
:10116B00662AFA74F73BFBEA250AFAEB350BFBEA26
:10117B002CF582EB3DF583E0FAA3E0FBE4CBFAEA36
:10118B00C0E08E0A750B007491250AF58274F63552
:10119B000BF583D0E0F00EE8FC7D00EC75F002A4BB
:1011AB00CCAAF075F000A42AFA75F002EDA42AFD82
:1011BB00E9F50A750B00E50A75F004A4C50AAAF057
:1011CB0075F000A42AFA75F004E50BA42AF50B853B
:1011DB000882850983E0FA7B00EA5403FAEB54009A
:1011EB00FBEA75F020A4CAAFF075F000A42FFF75D1
:1011FB00F020EBA42FFB74662AFA74F73BFBEA256D
:10120B000AFAEB350BFBEA2CF582EB3DF583E0FAA2
:10121B00A3E0FBEAC0E08E0A750B007491250AF57A
:10122B008274F6350BF583D0E0F00E08E8C3940218
:10123B00500302110B09E9C394085004780080ECA9
:10124B0074FF2E90F691F0EEF8790090F711E8F01C
:10125B00A3E9F0124083021EE274216C7003740048
:10126B006D6003021EE27E01790002133B8E0A754C
:10127B000B00E508250AF582E509350BF583E0FA45
:10128B007B00E4CAFB8E0A750B00E508250AF58284
:10129B00E509350BF583A3E0FC7D00EA4CF50CEB7F
:1012AB004DF50DE8FC7D00EC75F002A4CCAAF075B1
:1012BB00F000A42AFA75F002EDA42AFDE9F50A75EF
:1012CB000B00E50A75F004A4C50AAAF075F000A49A
:1012DB002AFA75F004E50BA42AF50B85088285091B
:1012EB0083E0FA7B00EA5403FAEB5400FBEA75F057
:1012FB0020A4CAAFF075F000A42FFF75F020EBA46B
:10130B002FFB74662AFA74F73BFBEA250AFAEB35D6
:10131B000BFBEA2CF582EB3DF583E50CF0A3E50D19
:10132B00F074022EFE08E8C39402500302127809EF
:10133B00E9C394085004780080EC021EE27E008E14
:10134B000A750B007491250AF58274F6350BF5833B
:10135B007400F00E850882850983E0C0E08E087565
:10136B00090074912508F58274F63509F583D0E0F0
:10137B00F00E90F71E78081209D2E4C509F508E5BE
:10138B0008C0E08E0875090074912508F58274F683
:10139B003509F583D0E0F00E90F71E78081209D2CC
:1013AB00E508C0E08E0875090074912508F5827474
:1013BB00F63509F583D0E0F00E90F7267808120980
:1013CB00D2E4C509F508E508C0E08E08750900747C
:1013DB00912508F58274F63509F583D0E0F00E906F
:1013EB00F72678081209D2E508C0E08E08750900C7
:1013FB0074912508F58274F63509F583D0E0F00E6B
:10140B0090F811E0F8A3E0F9E4C9F8E8C0E08E0821
:10141B0075090074912508F58274F63509F583D0AA
:10142B00E0F00E90F811E0F8A3E0F9E8C0E08E08C8
:10143B0075090074912508F58274F63509F583D08A
:10144B00E0F00E90F817E0F8A3E0F9E4C9F8E8C073
:10145B00E08E0875090074912508F58274F635093C
:10146B00F583D0E0F00E90F817E0F8A3E0F9E8C0B0
:10147B00E08E0875090074912508F58274F635091C
:10148B00F583D0E0F00E90F819E0F8A3E0F9E4C989
:10149B00F8E8C0E08E0875090074912508F5827490
:1014AB00F63509F583D0E0F00E90F819E0F8A3E0DB
:1014BB00F9E8C0E08E0875090074912508F582746F
:1014CB00F63509F583D0E0F00E90F75A780C120937
:1014DB00D290FA9B78081209D2780C79081203DBA8
:1014EB00780C1202A5AA0CAB0DEAF8EBF9E4C9F8DB
:1014FB00E8C0E08E0875090074912508F58274F632
:10150B003509F583D0E0F00EEAC0E08E08750900CE
:10151B0074912508F58274F63509F583D0E0F00E49
:10152B0090FA8EE0C0E08E0875090074912508F5DD
:10153B008274F63509F583D0E0F00E90F765E0FA8A
:10154B0090F764E0C333F990F763E0333354FCF85E
:10155B0090F762E033333354F848494AC0E08E08C1
:10156B0075090074912508F58274F63509F583D059
:10157B00E0F00E74FF2E90F691F0EEF8790090F7F4
:10158B0011E8F0A3E9F0124083021EE27E008E0AFE
:10159B00750B007491250AF58274F6350BF583747F
:1015AB0000F00E850882850983E0C0E08E0875097E
:1015BB000074912508F58274F63509F583D0E0F0B7
:1015CB000E90F71DE0C0E08E087509007491250898
:1015DB00F58274F63509F583D0E0F00E90F8B1E0A2
:1015EB00C0E08E0875090074912508F58274F635F4
:1015FB0009F583D0E0F00E90F8B2E0C0E08E0875EC
:10160B00090074912508F58274F63509F583D0E04D
:10161B00F00E90F8B3E0C0E08E08750900749125C8
:10162B0008F58274F63509F583D0E0F00E90F8B426
:10163B00E0C0E08E0875090074912508F58274F6F8
:10164B003509F583D0E0F00E90F8B5E0C0E08E08D8
:10165B0075090074912508F58274F63509F583D068
:10166B00E0F00E90F8B6E0C0E08E087509007491BA
:10167B002508F58274F63509F583D0E0F00E90F865
:10168B00B7E0C0E08E0875090074912508F58274E7
:10169B00F63509F583D0E0F00E90F8B8E0C0E08E97
:1016AB000875090074912508F58274F63509F583E0
:1016BB00D0E0F00E90F8B9E0C0E08E087509007428
:1016CB00912508F58274F63509F583D0E0F00E907C
:1016DB00F8BAE0C0E08E0875090074912508F58210
:1016EB0074F63509F583D0E0F00E90F8BBE0C0E05E
:1016FB008E0875090074912508F58274F63509F585
:10170B0083D0E0F00E90F8BCE0C0E08E08750900C5
:10171B0074912508F58274F63509F583D0E0F00E47
:10172B0090F8BDE0C0E08E0875090074912508F5AE
:10173B008274F63509F583D0E0F00E90F8BEE0C068
:10174B00E08E0875090074912508F58274F6350949
:10175B00F583D0E0F00E90F8BFE0C0E08E0875097D
:10176B000074912508F58274F63509F583D0E0F005
:10177B000E90F8C0E0C0E08E087509007491250842
:10178B00F58274F63509F583D0E0F00E90F8C1E0E0
:10179B00C0E08E0875090074912508F58274F63542
:1017AB0009F583D0E0F00E90F8C2E0C0E08E08752A
:1017BB00090074912508F58274F63509F583D0E09C
:1017CB00F00E74FF2E90F691F0EEF8790090F71171
:1017DB00E8F0A3E9F0124083021EE274146C70036C
:1017EB0074006D6003021EE27E0185088285098309
:1017FB00A3E0F890F71DE068601C8E0A750B00E5FE
:10180B0008250AF582E509350BF583E090F71DF005
:10181B000E12383580178E0A750B00E508250AF570
:10182B0082E509350BF583E090F71DF00E8E0A75F6
:10183B000B00E508250AF582E509350BF583E090E9
:10184B00F8B1F00E8E0A750B00E508250AF582E556
:10185B0009350BF583E090F8B2F00E8E0A750B008C
:10186B00E508250AF582E509350BF583E090F8B319
:10187B00F00E8E0A750B00E508250AF582E5093591
:10188B000BF583E090F8B4F00E8E0A750B00E508AB
:10189B00250AF582E509350BF583E090F8B5F00ED6
:1018AB008E0A750B00E508250AF582E509350BF55F
:1018BB0083E090F8B6F00E8E0A750B00E508250A4A
:1018CB00F582E509350BF583E090F8B7F00E8E0A3B
:1018DB00750B00E508250AF582E509350BF583E064
:1018EB0090F8B8F00E8E0A750B00E508250AF58204
:1018FB00E509350BF583E090F8B9F00E8E0A750B00
:10190B0000E508250AF582E509350BF583E090F82B
:10191B00BAF00E8E0A750B00E508250AF582E5096B
:10192B00350BF583E090F8BBF00E8E0A750B00E5D6
:10193B0008250AF582E509350BF583E090F8BCF034
:10194B000E8E0A750B00E508250AF582E509350BA5
:10195B00F583E090F8BDF00E8E0A750B00E50825B7
:10196B000AF582E509350BF583E090F8BEF00E8E93
:10197B000A750B00E508250AF582E509350BF58399
:10198B00E090F8BFF00E8E0A750B00E508250AF5FE
:10199B0082E509350BF583E090F8C0F00E8E0A75E1
:1019AB000B00E508250AF582E509350BF583E09078
:1019BB00F8C1F00E8E0A750B00E508250AF582E5D5
:1019CB0009350BF583E090F8C2F00E021EE27E00A3
:1019DB008E0A750B007491250AF58274F6350BF59A
:1019EB00837400F00E850882850983E0C0E08E08C1
:1019FB0075090074912508F58274F63509F583D0C5
:101A0B00E0F00E90FA8EE0C0E08E0875090074913C
:101A1B002508F58274F63509F583D0E0F00E7900D0
:101A2B00021AD8890875090074812508F58274F8A3
:101A3B003509F583E0A2E0E433F508750900740776
:101A4B007808120AEFE9FA7B00EA75F002A4CAA83B
:101A5B00F075F000A428F875F002EBA428FB7421B4
:101A6B002AF58274F83BF583E0FAA3E0FBE4CBFAAA
:101A7B00EA54014508C0E08E0875090074912508E9
:101A8B00F58274F63509F583D0E0F00EE9FA7B00A8
:101A9B00EA75F002A4CAA8F075F000A428F875F056
:101AAB0002EBA428FB74212AF58274F83BF583E042
:101ABB00FAA3E0FBEAC0E08E0875090074912508D3
:101ACB00F58274F63509F583D0E0F00E09E9C3947D
:101ADB00105003021A2E74FF2E90F691F0EEF87947
:101AEB000090F711E8F0A3E9F0124083021EE27EAA
:101AFB00008E0A750B007491250AF58274F6350B6E
:101B0B00F5837400F00E850882850983E0C0E08EB2
:101B1B000875090074912508F58274F63509F5836B
:101B2B00D0E0F00E90FA8EE0C0E08E0875090074DC
:101B3B00912508F58274F63509F583D0E0F00E791E
:101B4B0000021BF9890875090074912508F5827448
:101B5B00F83509F583E0A2E0E433F5087509007464
:101B6B00077808120AEFE9FA7B00EA75F002A4CABB
:101B7B00A8F075F000A428F875F002EBA428FB740C
:101B8B00412AF58274F83BF583E0FAA3E0FBE4CB42
:101B9B00FAEA54014508C0E08E08750900749125D6
:101BAB0008F58274F63509F583D0E0F00EE9FA7B7F
:101BBB0000EA75F002A4CAA8F075F000A428F87525
:101BCB00F002EBA428FB74412AF58274F83BF583F1
:101BDB00E0FAA3E0FBEAC0E08E08750900749125DA
:101BEB0008F58274F63509F583D0E0F00E09E9C3E8
:101BFB0094105003021B4F74FF2E90F691F0EEF8E9
:101C0B00790090F711E8F0A3E9F0124083021EE28D
:101C1B007E008E0A750B007491250AF58274F635D9
:101C2B000BF5837400F00E850882850983E0C0E014
:101C3B008E0875090074912508F58274F63509F53F
:101C4B0083D0E0F00E90FA8EE0C0E08E08750900AC
:101C5B0074912508F58274F63509F583D0E0F00E02
:101C6B007900021D1A890875090074A12508F582EF
:101C7B0074F83509F583E0A2E0E433F50875090043
:101C8B0074077808120AEFE9FA7B00EA75F002A4F0
:101C9B00CAA8F075F000A428F875F002EBA428FB95
:101CAB0074612AF58274F83BF583E0FAA3E0FBE458
:101CBB00CBFAEA547F4508C0E08E08750900749191
:101CCB002508F58274F63509F583D0E0F00EE9FAB4
:101CDB007B00EA75F002A4CAA8F075F000A428F8FE
:101CEB0075F002EBA428FB74612AF58274F83BF5BE
:101CFB0083E0FAA3E0FBEAC0E08E0875090074915B
:101D0B002508F58274F63509F583D0E0F00E09E964
:101D1B00C394105003021C7074FF2E90F691F0EEDA
:101D2B00F8790090F711E8F0A3E9F0124083021E56
:101D3B00E27E008E0A750B007491250AF58274F60B
:101D4B00350BF5837400F00E850882850983E0C09E
:101D5B00E08E0A750B007491250AF58274F6350B2B
:101D6B00F583D0E0F00E850882850983E0F87900D1
:101D7B00E8540FF8E95400F9740628F58274F83921
:101D8B00F583E0C0E08E0A750B007491250AF5828D
:101D9B0074F6350BF583D0E0F00E7900021E8F85BB
:101DAB000882850983E0FA7B00EA540FFAEB5400B2
:101DBB00FBEA75F010A4CAA8F075F000A428F8751A
:101DCB00F010EBA428FBE9FC7D00EC75F002A4CC31
:101DDB00A8F075F000A428F875F002EDA428FD74A6
:101DEB005E2CFC74F73DFDEC2AF582ED3BF583E0B0
:101DFB00F50AA3E0F50B7408780A120AD0E50AC0BD
:101E0B00E08E0A750B007491250AF58274F6350B7A
:101E1B00F583D0E0F00E850882850983E0FA7B001C
:101E2B00EA540FFAEB5400FBEA75F010A4CAA8F0C1
:101E3B0075F000A428F875F010EBA428FBE9FC7DE5
:101E4B0000EC75F002A4CCA8F075F000A428F8758E
:101E5B00F002EDA428FD745E2CFC74F73DFDEC2A1A
:101E6B00F582ED3BF583E0FAA3E0FBEAC0E08E0AD6
:101E7B00750B007491250AF58274F6350BF583D03A
:101E8B00E0F00E09E9C394085003021DAA74FF2E5B
:101E9B0090F691F0EEF8790090F711E8F0A3E9F0E5
:101EAB00124083803274026C700374006D7028854D
:101EBB000882850983A3E0F87900E875F00AA4C8C5
:101ECB00AAF075F000A42AFA75F00AE9A42AF99091
:101EDB00F817E8F0A3E9F07F08020BEE74F5120B8C
:101EEB00887A007B0090F718E0F890F8B1E0687002
:101EFB001D90F719E0F890F8B2E068701190F71A9E
:101F0B00E0F890F8B3E0687005750900805590F71C
:101F1B0018E0F890F8B4E068701D90F719E0F890AD
:101F2B00F8B5E068701190F71AE0F890F8B6E06831
:101F3B007005750901802C90F718E0F890F8B7E060
:101F4B0068701D90F719E0F890F8B8E06870119080
:101F5B00F71AE0F890F8B9E068700575090280038C
:101F6B0075090378007900E509C394034003022047
:101F7B003490FA8EE0C4540FFE7F00EE75F002A48D
:101F8B00CEACF075F000A42CFC75F002EFA42CFF86
:101F9B00E509FC7D00EC75F010A4CC85F00875F01C
:101FAB0000A42508F50875F010EDA42508FD74DED6
:101FBB002CFC74F73DFDEC2EF582ED3FF583C3E071
:101FCB009401A3E09400A2D265D033405C90F81149
:101FDB00E0F8A3E0F990FA8EE0C4540FFE7F00EE18
:101FEB0075F002A4CEACF075F000A42CFC75F002D9
:101FFB00EFA42CFFE509FC7D00EC75F010A4CC855B
:10200B00F00875F000A42508F50875F010EDA4256F
:10201B0008FD74DE2CFC74F73DFDEC2EF582ED3FD4
:10202B00F583E028F8A3E039F990F762E0640160EA
:10203B000B90F763E06401600302222874912AF588
:10204B008274F63BF5837400F00AEA70010B74910D
:10205B002AF58274F63BF5837401F00AEA70010BE2
:10206B0090F763E0FC75F00290F762E0A42CC0E0FF
:10207B0074912AF58274F63BF583D0E0F00AEA708E
:10208B00010BE8FCE9FDE4CDFCECC0E074912AF512
:10209B008274F63BF583D0E0F00AEA70010BE8C0DE
:1020AB00E074912AF58274F63BF583D0E0F00AEAEE
:1020BB0070010B90F762E06401704390F71E780893
:1020CB001209D2E4C509F508E508C0E074912AF5B8
:1020DB008274F63BF583D0E0F00AEA70010B90F7BF
:1020EB001E78081209D2E508C0E074912AF58274B3
:1020FB00F63BF583D0E0F00AEA70270B802474914D
:10210B002AF58274F63BF5837400F00AEA70010B32
:10211B0074912AF58274F63BF5837400F00AEA7029
:10212B00010B90F763E0640160030221BC90F74E52
:10213B0078081209D2E4C509F508E508C0E07491E6
:10214B002AF58274F63BF583D0E0F00AEA70010BB6
:10215B0090F74E78081209D2E508C0E074912AF581
:10216B008274F63BF583D0E0F00AEA70010B90F72E
:10217B002678081209D2E4C509F508E508C0E07411
:10218B00912AF58274F63BF583D0E0F00AEA7001F0
:10219B000B90F72678081209D2E508C0E074912A53
:1021AB00F58274F63BF583D0E0F00AEA704B0B80B6
:1021BB004874912AF58274F63BF5837400F00AEAB1
:1021CB0070010B74912AF58274F63BF5837400F061
:1021DB000AEA70010B74912AF58274F63BF583744D
:1021EB0000F00AEA70010B74912AF58274F63BF544
:1021FB00837400F00AEA70010B74912AF58274F66D
:10220B003BF58374FFF00AEA70010BEA24FF90F6AA
:10221B0091F090F711EAF0A3EBF01240837F0402E8
:10222B000BEEC082C08378007900749128F582741C
:10223B00F639F5837400F008E8700109749128F5FC
:10224B008274F639F5837402F008E870010990F78F
:10225B0052E0FAA3E0FBE4CBFAEAC0E0749128F574
:10226B008274F639F583D0E0F008E870010990F735
:10227B0052E0FAA3E0FBEAC0E0749128F58274F611
:10228B0039F583D0E0F008E8700109E824FF90F6F7
:10229B0091F090F711E8F0A3E9F0124083D083D0CE
:1022AB00822274F8120B8879007E007F0080050E65
:1022BB00EE70010FC3EE9CEF9D5025EA2EF582EBDD
:1022CB003FF583E0C969C978088005E9C333F9187C
:1022DB00E860DCE9A2E750F3E9C333649BF980EFD4
:1022EB007F01020BEE74F7120B887C007D00802DB2
:1022FB00ECFAEDFBEA75F002A4CAAEF075F000A49F
:10230B002EFE75F002EBA42EFB74FF2AF58274F1FE
:10231B003BF583E8F0A3E9F00CEC70010DC3EC94F2
:10232B0000ED9401505578007900ECFAEDFBE4CA0E
:10233B00FB7E007F008011E828F8E933F9EA2AFADE
:10234B00EB33FB0EEE70010FC3EE9408EF940050CD
:10235B009FE86AF508E96BF509E5085400F508E50F
:10236B00095480F509E508450960CCE828F8E933FC
:10237B00F9E86421F8E96410F980C27F02020BEEE0
:10238B0074F5120B88EAFEEBFF7AFF7BFF750800F2
:10239B007509008054EE2508F582EF3509F583E0C9
:1023AB00F50A750B00EAF8EBF9E4C9F8E8650AF8E9
:1023BB00E9650BF9E4CAFBE875F002A4C885F00ADD
:1023CB0075F000A4250AF50A75F002E9A4250AF9AF
:1023DB0074FF28F58274F139F583E06AFAA3E06B98
:1023EB00FB0508E50870020509C3E5089CE5099D96
:1023FB0040A37F04020BEEE9FB7900EB6AFC78004B
:10240B00800BECA2E0500109ECC313FC08E8C39469
:10241B000640EF2274F4120B8874F0120B02890839
:10242B0090FA7EAC10AD117410120A157E077F0066
:10243B00750900750C008033850C0A750B0085102F
:10244B0082851183E582250AF582E583350BF583B9
:10245B00E0FAA908122402E9F87900C3EE98EF9983
:10246B005007850C09E8FEE9FF050CE50CC3941039
:10247B0040C6A9097410120B187F05020BEEE9F880
:10248B00E8602F14602F14602F14602F14602F142A
:10249B00602F14602F14602F14602F14602F1460A2
:1024AB002F14602F14602F14602F14602F14602FC3
:1024BB0080307915227931227932227923227934AD
:1024CB0022792522792622791622791A2279192244
:1024DB00792A22790B22792C22790D22790E2279F5
:1024EB001C2279002274F8120B88E9FE8A828B83F6
:1024FB00EE24F5700302259224FE70030225A0142E
:10250B0070030225A724F9603114605F24FD606914
:10251B0014605F24FE70030225AE24F9603124FEA3
:10252B00603B14603F24FC605724FE606124FB6019
:10253B001014601424FE601E80707400F07900800B
:10254B00767401F07900806F7402F0790080687402
:10255B0003F0790080617404F07900805A7405F0FF
:10256B00790080537406F07900804C7407F0790081
:10257B0080457408F07900803E7409F0790080374B
:10258B00740AF079008030740BF079008029740C98
:10259B00F079008022740DF07900801B740EF079B5
:1025AB00008014740FF07900800DEEF912241FE9EE
:1025BB00C0E0D0E0F079017F01020BEE74F1120B59
:1025CB008874FC120B02851082851183EAF0A3EB51
:1025DB00F07402120B6CECF0A3EDF07415120B6C93
:1025EB00E0F50EA3E0F50F850E82850F837400F0E6
:1025FB00A37400F07E007F00750800750900750A52
:10260B0000750B000226D5851082851183E028FA10
:10261B00A3E0398A82F583E0540FF9122489E9F992
:10262B0085080C85090D7406780C120AEF850C08C9
:10263B00850D09890C750D00E50C4508F508E50DB0
:10264B004509F509EE2406FEEF3400FFC3EE9408AE
:10265B00EF9400A2D265D033406885080C85090D34
:10266B00EE24F8780C120AD0E50CF9E9C0E0850EDF
:10267B0082850F83E0F8A3E0F97413120B6CE0284A
:10268B00FAA3E0398A82F583D0E0F0850E82850FBC
:10269B0083E02401F0A3E03400F0EE24F8FEEF34E5
:1026AB00FFFF750C01750D00EE780C120AEFE50CAF
:1026BB0024FFF8E50D34FFF9E85508F508E955094D
:1026CB00F509050AE50A7002050B7402120B6CE0A2
:1026DB00F8A3E0F9E875F002A4C8AAF075F000A41D
:1026EB002AFA75F002E9A42AF9C3E50A98E50B99D1
:1026FB005049A80AA90BE9C313F9E813F8E8FAE95A
:10270B00FBEA75F002A4CAACF075F000A42CFC75C2
:10271B00F002EBA42CFBE50A6A7003E50B6B60037C
:10272B00022612851082851183E028FAA3E0398AEC
:10273B0082F583E0C4540FF9022626EE4F606775CD
:10274B000A01750B00EE780A120AEFE50A24FFF86E
:10275B00E50B34FFF9E85508F508E95509F5098546
:10276B00080A85090B7408C39E780A120AEF850ABA
:10277B0008850B09E508F9E9C0E0850E82850F8312
:10278B00E0F8A3E0F97413120B6CE028FAA3E0391C
:10279B008A82F583D0E0F0850E82850F83E02401D9
:1027AB00F0A3E03400F07404120B187F08020BEE58
:1027BB0074F2120B8874F9120B027405120B6CEA8B
:1027CB00F0A3EBF07403120B6CECF0A3EDF07508B7
:1027DB0000750900750E00750B007401120B6C74FB
:1027EB0000F0A37400F002288C8E0C8F0DE50824EA
:1027FB00FA780C120AD0E50CC0E0851082851183A3
:10280B00D0E0F0851082851183E0543FF0AA10AB25
:10281B0011851082851183E0F91224F0E9E50AC4D1
:10282B0054F0F50A530AF0851082851183E0420AB1
:10283B00630E01E50E701DE50AC0E0E50BF87900AB
:10284B007415120B6CE028FAA3E0398A82F583D059
:10285B00E0F0050BE50824FAF508E50934FFF50966
:10286B00C3E5089406E5099400A2D265D033400372
:10287B000227F47401120B6CE02401F0A3E0340086
:10288B00F07401120B6CC082C0837403120B6CE0EA
:10289B00F8A3E0F9D083D082C3E098A3E099503439
:1028AB00E4CEFF7401120B6CE0F8A3E0F97405128F
:1028BB000B6CE028FAA3E0398A82F583E0F8790003
:1028CB00E84EFEE94FFFE5082408F508E50934005A
:1028DB00F509808CE50BF879007417120B6CE0FA94
:1028EB00A3E0F5838A82E8F0A3E9F07407120B18D2
:1028FB007F07020BEE74F1120B8874FD120B02743E
:10290B0001120B6CECF0A3EDF0E9C0E085108285B1
:10291B001183D0E0F0EAFEEBFF851082851183E096
:10292B006003022F058E828F83E064AA600C8E8277
:10293B008F83E064AB6003022CD67401120B6CE046
:10294B0064227004A3E064006003022CD68E828F95
:10295B0083A3A3E0F890F8B1E06870218E828F8397
:10296B00A3A3A3E0F890F8B2E06870118E828F8376
:10297B00A3A3A3A3E0F890F8B3E06860698E828FFD
:10298B0083A3A3E0F890F8B4E06870218E828F8364
:10299B00A3A3A3E0F890F8B5E06870118E828F8343
:1029AB00A3A3A3A3E0F890F8B6E06860398E828FFA
:1029BB0083A3A3E0F890F8B7E0686003022E198EAA
:1029CB00828F83A3A3A3E0F890F8B8E068600302BA
:1029DB002E198E828F83A3A3A3A3E0F890F8B9E0FE
:1029EB00686003022E1990F71BE0FCA3E0FD90FA40
:1029FB008EE0FA8E828F83A3A3A3A3A3A3A3A3E04A
:102A0B00F91257D490FA8EE054F0F88E828F83A38C
:102A1B00A3A3A3A3A3A3A3E054F0687003022CC247
:102A2B008E828F83A3A3A3A3A3A3A3A3E090FA8E69
:102A3B00F08E828F83A3A3E090F718F08E828F83A2
:102A4B00A3A3A3E090F719F08E828F83A3A3A3A374
:102A5B00E090F71AF08E828F83E064AA7004740101
:102A6B008002740090F755F08E828F83A3A3A3A3EB
:102A7B00A3A3A3E090F754F08E828F83A3A3A3A309
:102A8B00A3A3A3A3A3E0F87900E875F000A4C8AA58
:102A9B00F075F001A42AFA75F000E9A42AF98E82E8
:102AAB008F83A3A3A3A3A3A3A3A3A3A3E0FA7B0056
:102ABB00E82AFAE93BFBEB3395E0FCFD90F726EABD
:102ACB00F0A3EBF0A3ECF0A3EDF0EE240BF582E416
:102ADB003FF583E0F87900E875F000A4C8AAF0751B
:102AEB00F001A42AFA75F000E9A42AF9EE240CF5FA
:102AFB0082E43FF583E0FA7B00E82AFAE93BFBEB43
:102B0B003395E0FCFD90F72AEAF0A3EBF0A3ECF091
:102B1B00A3EDF07900022BD3E9FA7B00EA75F00202
:102B2B00A4CAA8F075F000A428F875F002EBA4284D
:102B3B00FBEE2AFAEF3BFBEA2411F582E43BF5832B
:102B4B00E0FA7B00EA75F000A4CAA8F075F001A4C6
:102B5B0028F875F000EBA428FBE9FC7D00EC75F080
:102B6B0002A4CCA8F075F000A428F875F002EDA42F
:102B7B0028FDEE2CFCEF3DFDEC2412F582E43DF537
:102B8B0083E0FC7D00EA2CFAEB3DFBEB3395E0FC9C
:102B9B00FDE9F508750900E50875F004A4C508A85A
:102BAB00F075F000A428F875F004E509A428F509E0
:102BBB00742E2508F58274F73509F583EAF0A3EB3B
:102BCB00F0A3ECF0A3EDF009E9C394075003022B3B
:102BDB002390F754E0F990F7261209F012302AEA05
:102BEB00F8EBF9ECFAEDFB90F7561209FC90F76352
:102BFB007401F08E828F83A3A3A3A3A3A3A3A3E04B
:102C0B00A2E0505990F71BE0F8A3E0F990F811C33C
:102C1B00E098F0A3E099F08E828F83A3A3A3A3A3E4
:102C2B00A3A3A3E0F91256CF8A088B09A808A90918
:102C3B0090F811E028F0A3E039F090F811C3E0947C
:102C4B001EA3E09400500A90F8117432F0A37400A4
:102C5B00F090F817741EF0A37400F0805090F71BDF
:102C6B00E0F8A3E0F990F811C3E098F0A3E099F035
:102C7B008E828F83A3A3A3A3A3A3A3A3E04401F9F1
:102C8B001256CF90F817EAF0A3EBF090F817E0F894
:102C9B00A3E0F9E849700A90F81774C8F0A3740020
:102CAB00F090F817E0241EF0A3E03400F090F81534
:102CBB007400F0A37400F08E828F83A3A3A3A3A34D
:102CCB00A3A3A3E090FA8EF0022E198E828F83E0DD
:102CDB0064A26003022E198E828F83A3E0F890F812
:102CEB00BAE0686003022E198E828F83A3A3E0F8EB
:102CFB0090F8BBE0686003022E198E828F83A3A32A
:102D0B00A3E0F890F8BCE0686003022E198E828F66
:102D1B0083A3A3A3A3E064046003022E198E828F06
:102D2B0083A3A3A3A3A3E0F890F3FFE068700302CF
:102D3B002E1990F762E06003022E198E828F83A307
:102D4B00A3A3A3A3E090F3FFF0EE240EF582E43FE0
:102D5B00F583E0F508750900E5082508F508E50990
:102D6B0033F509E5093395E0F50AF50BEE241DF56E
:102D7B0082E43FF583E0A2E0E433F50C750D00E54A
:102D8B000D3395E0F50EF50F7808790C120994EEDA
:102D9B002419F582E43FF583E090F760F0EE241AF6
:102DAB00F582E43FF583E090F761F090FA9F7808A5
:102DBB001201C8505990F71E78081209E1EE240F42
:102DCB00F582E43FF583E0FA7B00EA2AFAEB33FB6A
:102DDB00EB3395E0FCFD90F722EAF0A3EBF0A3ECCC
:102DEB00F0A3EDF0EE241DF582E43FF583E0A2E1C4
:102DFB00E433F508750900E5093395E0F50AF50BA1
:102E0B0090F72278081209A790F7627401F08E826E
:102E1B008F83E064A56003022EEB7401120B6CE050
:102E2B0064077004A3E064006003022EEB8E828FB4
:102E3B0083A3E0F890F8BDE068701F8E828F83A3A8
:102E4B00A3E0F890F8BEE06870108E828F83A3A386
:102E5B00A3E0F890F8BFE068602D8E828F83A3E02B
:102E6B00F890F8C0E06870788E828F83A3A3E0F8A7
:102E7B0090F8C1E06870698E828F83A3A3A3E0F8FA
:102E8B0090F8C2E068705990F81BE0F8A3E0F9E8FD
:102E9B0049704D90F81B74C8F0A37400F08E828FAC
:102EAB0083A3A3A3A3E0A2E0E433F87900E875F0D1
:102EBB0000A4C8AAF075F001A42AFA75F000E9A4E1
:102ECB002AF98E828F83A3A3A3A3A3E0FA7B00E846
:102EDB002AF8E93BF990F752E8F0A3E9F012222D1A
:102EEB0090F763E06401701290F762E06401700A7E
:102EFB0090F8177400F0A37400F07403120B187F92
:102F0B0008020BEE74F1120B8890F755E064017018
:102F1B00167C007D007E007F0090F75AECF0A3ED4D
:102F2B00F0A3EEF0A3EFF090F763E064016003020F
:102F3B00302590F755E0600302302590F762E0648E
:102F4B0001600302302590FA9F78081209D290F79E
:102F5B001E78081201B8500302302590F71E78082E
:102F6B001209D2780812023D90F756780C1209D24A
:102F7B007808790C12079A90F760E0F890F75EE00A
:102F8B0068700C90F761E0F890F75FE06860209054
:102F9B00F760E090F75EF090F761E090F75FF090EC
:102FAB00F4007403F0A37400F090F4027400F0903A
:102FBB00F400E0F8A3E0F9E849600E90F400E02497
:102FCB00FFF0A3E034FFF0803F90F71E780C12095E
:102FDB00D290F403E0F8A3E0F9E50CC398FAE50D01
:102FEB0099FB90F402E0702090F75A78081209E1EF
:102FFB00EAC394F7F8EB94FFF9C3E89413E9940050
:10300B00500690F4027401F090F71E78081209D262
:10301B0090F403E508F0A3E509F07F08020BEE74CA
:10302B00F1120B8874F8120B027404120B6CEAF099
:10303B00A3EBF0A3ECF0A3EDF0E9FE7404120B6C20
:10304B0078081209D2780812022290FAA3780C128F
:10305B0009D27808790C12079AC008C009C00AC0B7
:10306B000B7404120B6C780C1209D2780C1202221E
:10307B0090FAA778081209D2780C79081203DBD0E2
:10308B000BD00AD009D0087808790C12055B851093
:10309B008285118378081209E18E08E4F509F50A97
:1030AB00F50B780812023D7404120B6C780C1209A4
:1030BB00D2780C1202227808790C1203DBC008C0FC
:1030CB0009C00AC00B7404120B6C78081209D27871
:1030DB000812022290FAAB780C1209D27808790CFC
:1030EB001203DB90FAAF780C1209D27808790C1224
:1030FB00079A90FAB3780C1209D27808790C12055A
:10310B0080D00FD00ED00DD00C780C79081203DBC9
:10311B0085108285118378081209D2780C790812F0
:10312B000580851082851183780C1209E185108248
:10313B008511831209F07408120B187F08020BEE2D
:10314B00C082C083122F0F123169121EE790F762F3
:10315B007400F090F7637400F0D083D0822274F186
:10316B00120B887E0F0232DCEEF87900E875F00264
:10317B00A4C8AAF075F000A42AFA75F002E9A42AF3
:10318B00F9741F28F58274F839F583E0FAA3E0FB94
:10319B00EEF87900E875F002A4C8ACF075F000A465
:1031AB002CFC75F002E9A42CF9742128F58274F833
:1031BB0039F583EAF0A3EBF08E08750900748025CE
:1031CB0008F58274F83509F583E0C0E08E087509BF
:1031DB000074812508F58274F83509F583D0E0F089
:1031EB00EEF87900E875F002A4C8AAF075F000A417
:1031FB002AFA75F002E9A42AF9743F28F58274F8CB
:10320B0039F583E0FAA3E0FBEEF87900E875F002FC
:10321B00A4C8ACF075F000A42CFC75F002E9A42C4A
:10322B00F9744128F58274F839F583EAF0A3EBF0D1
:10323B008E0875090074902508F58274F83509F528
:10324B0083E0C0E08E0875090074912508F582743F
:10325B00F83509F583D0E0F0EEF87900E875F00267
:10326B00A4C8AAF075F000A42AFA75F002E9A42A02
:10327B00F9745F28F58274F839F583E0FAA3E0FB63
:10328B00EEF87900E875F002A4C8ACF075F000A474
:10329B002CFC75F002E9A42CF9746128F58274F802
:1032AB0039F583EAF0A3EBF08E0875090074A025BD
:1032BB0008F58274F83509F583E0C0E08E087509CE
:1032CB000074A12508F58274F83509F583D0E0F078
:1032DB001EEE600302317390F762E064017032906E
:1032EB00F71E78081209D290F821E508F0A3E5093A
:1032FB00F090F8817401F090F72278081209D290BF
:10330B00F823E508F0A3E509F090F8827401F0804A
:10331B001090F8217400F0A37400F090F881740001
:10332B00F090F763E06401600302352390F7567861
:10333B00081209D290F75A780C1209D27808790C36
:10334B001203DB780812029A90F74E78081209E103
:10335B0090F75678081209D290F75A780C1209D2C6
:10336B007808790C1203DB780812029A90F841E581
:10337B0008F0A3E509F090F75A78081209D290FAF1
:10338B00B7780C1209D27808790C12038C500F9075
:10339B00F755E07004740180027400FF80027F0017
:1033AB00EF90F891F090F72678081209D290F86117
:1033BB00E508F0A3E509F090F755E070047401807F
:1033CB0002740090F8A1F07E00802D7C007D00EE51
:1033DB00F87900E875F002A4C8AAF075F000A42AE9
:1033EB00FA75F002E9A42AF9746328F58274F839A6
:1033FB00F583ECF0A3EDF00EEEC394084003023519
:10340B004390F754E0F9EEFA7B00EA75F004A4CA96
:10341B00A8F075F000A428F875F004EBA428FB7451
:10342B002A2AF58274F73BF5831209F012302A8AA7
:10343B000C8B0D8C0E8D0F90F75A78081209D278E1
:10344B000C79081203DB780C12029AEEF87900E87B
:10345B0075F002A4C8AAF075F000A42AFA75F00260
:10346B00E9A42AF9744328F58274F839F583E50C3D
:10347B00F0A3E50DF090F75A780C1209D290FAB739
:10348B0078081209D2780C790812038C500F90F738
:10349B0055E07004740180027400FA80027A00EA2D
:1034AB00C0E08E0875090074922508F58274F83512
:1034BB0009F583D0E0F0EEF87900E875F004A4C8C4
:1034CB00ABF075F000A42BFB75F004E9A42BF97499
:1034DB002A28F58274F739F58378081209D2EEF8A9
:1034EB007900E875F002A4C8ABF075F000A42BFBD3
:1034FB0075F002E9A42BF9746328F58274F839F599
:10350B0083E508F0A3E509F090F755E0600302337B
:10351B00D67C017D000233DA90F8417400F0A3747D
:10352B0000F090F8617400F0A37400F090F89174BF
:10353B0000F090F8A17400F07F08020BEE74F71204
:10354B000B88E9FEEE60030236A88A828B83E06467
:10355B00A260030236A88A828B83A3E0F890F8BAA4
:10356B00E06860030236A88A828B83A3A3E0F890FD
:10357B00F8BBE06860030236A88A828B83A3A3A3FF
:10358B00E0F890F8BCE06860030236A88A828B836F
:10359B00A3A3A3A3E024FC601024FC600C1460091B
:1035AB001460061460030236A890F58B74A2F08A9F
:1035BB00828B83A3E090F58CF08A828B83A3A3E0AC
:1035CB0090F58DF08A828B83A3A3A3E090F58EF008
:1035DB0090F58F7406F08A828B83A3A3A3A3A3E039
:1035EB00547F90F590F08A828B83A3E090F591F055
:1035FB008A828B83A3A3E090F592F08A828B83A3BC
:10360B00A3A3E090F593F090F5947400F08A828B6D
:10361B0083A3A3A3A3E090F595F08A828B83A3A346
:10362B00A3A3E024F8601B14600814600D14601A47
:10363B00802090F596740AF0801E90F5967408F031
:10364B00801690F596740BF0800E90F5967404F03E
:10365B00800690F5967400F090F5977400F090F555
:10366B00987400F07C0E7D007A8B7BF51222ADE90D
:10367B0090F599F090F60B740FF0A37400F07508A9
:10368B00017509007808120CE990F60BE0FCA3E039
:10369B00FD7A8B7BF51244697402120B187F0202C0
:1036AB000BEED2AF22C2AF22A2AFE433FA7B00C241
:1036BB00AF22EAF8EAA2E092AF22EBC313FBEA13C4
:1036CB00FAC3EA9402EB94004014000000000000DF
:1036DB0000000000EA24FFFAEB34FFFB80E32274C6
:1036EB00F8120B88EAFEEBFFEEF8EFF9E824FFFE89
:1036FB00E934FFFFE84960097AE87B031236C5809D
:10370B00E77F01020BEE74F5120B88E9FE7A057B5D
:10371B00F4127D847A887BF4127D84EE24FC6005A0
:10372B00146010801C750800750996750A00750BDE
:10373B0000801A7508007509E1750A00750B008089
:10374B000C7508007509C2750A01750B00AA08AB48
:10375B0009AC0AAD0B127B8D7F04020BEE74F512D4
:10376B000B888A828B838C088D097E007F00800BEF
:10377B00750B00EE250AFEEF350BFFC3EE9508EF38
:10378B0095095043EEF8E508C398F9E5822EFCE560
:10379B00833FFD7A887BF4127DC4E9F50AE50A7054
:1037AB00CF7A057B001236EAEEF8E508C398F9E507
:1037BB00822EFCE5833FFD7A887BF4127DC4E925DC
:1037CB000AF50AE50A70A9EEFAEFFB7F04020BEE8D
:1037DB00023768C008ECF9EAFCEBFD7A057BF412C2
:1037EB007E858908AA087B00D00822C0087A057B51
:1037FB00F4127F2A8908AA087B00D00822E5F4A2DC
:10380B00E0E433F5F453F402C290C29143FE01435A
:10381B00FE022253BEFBE5BEA2E650FA0053C6C021
:10382B0053C68043C61843BE0422C082C08375E1D1
:10383B000490DF0074FFF090DF017400F090DF0262
:10384B0074FFF090DF037400F090DF047400F090CD
:10385B00DF057400F090DF067400F090DF0774064C
:10386B00F090DF087400F090F71DE0701490DF0902
:10387B007424F090DF0A742EF090DF0B7438F08014
:10388B001290DF097426F090DF0A7430F090DF0B92
:10389B007400F090DF0C7459F090DF0D7466F090AB
:1038AB00DF0E7433F090DF0F7462F090DF10741A38
:1038BB00F090DF117413F090DF127407F090DF13A8
:1038CB007430F090DF147418F090DF157417F090CB
:1038DB00DF16746CF090DF177403F090DF187440F0
:1038EB00F090DF197491F090DF1A7456F090DF1B93
:1038FB007412F090DF1C74E9F090DF1D742AF090C5
:10390B00DF1E7400F090DF1F741FF090DF237488AC
:10391B00F090DF247431F090DF257409F090DF27ED
:10392B007400F090DF287400F090DF297400F090A1
:10393B00DF2A7400F090DF2B7400F090DF2C7452B0
:10394B00F090DF2D7400F090DF2E7400F0C2A89081
:10395B00F81FE06401700575E102800375E104D086
:10396B0083D08222E5F154FE4402F5F143F33C751A
:10397B00C2A3E5C554E04408F5C543868053C4FE95
:10398B0043C40253C4FB53C4F753C4EF53C4DF53B4
:10399B00C4BF53C5DF22C082C08378007900780092
:1039AB0079008039740B28F58274F539F58374002E
:1039BB00F0748B28F58274F539F5837400F074116B
:1039CB0028F58274F639F5837400F0749128F5822A
:1039DB0074F639F5837400F008E8700109C3E894B4
:1039EB0080E99400A2D265D03340B990F60B7400F5
:1039FB00F0A37400F090F60D7400F0A37400F09037
:103A0B00F60F7400F0A37400F090F7117400F0A39C
:103A1B007400F090F7137400F0A37400F090F71596
:103A2B007400F0A37400F090F81174E0F0A3742EFE
:103A3B00F090F8137400F0A37400F090F815740074
:103A4B00F0A37400F090F81D7400F0A37400F090D4
:103A5B00F7627400F090F71D7400F090F81F74007B
:103A6B00F090F8207400F078007900023B23E8FA1C
:103A7B00E9FBEA75F002A4CAACF075F000A42CFCCB
:103A8B0075F002EBA42CFB74212AF58274F83BF53C
:103A9B00837400F0A37400F0E8FAE9FBEA75F00216
:103AAB00A4CAACF075F000A42CFC75F002EBA42CAE
:103ABB00FB74412AF58274F83BF5837400F0A37410
:103ACB0000F0E8FAE9FBEA75F002A4CAACF075F075
:103ADB0000A42CFC75F002EBA42CFB74612AF5827C
:103AEB0074F83BF5837400F0A37400F0748128F52F
:103AFB008274F839F5837400F0749128F58274F8A8
:103B0B0039F5837400F074A128F58274F839F583C4
:103B1B007400F008E8700109C3E89410E99400A25E
:103B2B00D265D0335003023A79D083D08222C0E0E1
:103B3B0074F2120C2E74FE120B02758A00C2EB7C0F
:103B4B00017D00780079008021000AEA70010B7476
:103B5B00FF6A700374FF6B70F0A29250087C007DBB
:103B6B00007820790008E8700109C3E89420E994F3
:103B7B0000A2D265D03350067A007B0080D174014D
:103B8B006C700374006D703D90F9F9E06401701373
:103B9B0090F9F97400F0D29185108285118374131A
:103BAB00F0801190F9F97401F0C2918510828511A2
:103BBB00837403F090F717E0700B7C017D00AA1063
:103BCB00AB111237DB758A00C2EA7402120B187F35
:103BDB0001020C8DC082C083C29090F9F97401F080
:103BEB00758A00C2EB438C02758D04D2AF439A10D9
:103BFB00D083D08222C0E074F1120C2E758A00C2E1
:103C0B00C190F717E064016003023E0890F811C3FE
:103C1B00E094E0A3E0942E500C90F811E02401F016
:103C2B00A3E03400F090F817E0F8A3E0F9E849605E
:103C3B000C90F817E024FFF0A3E034FFF090F81B92
:103C4B00E0F8A3E0F9E849600C90F81BE024FFF0E2
:103C5B00A3E034FFF090F811C082C08390F815E018
:103C6B00F8A3E0F9D083D082C3E098A3E099400396
:103C7B0012671790F81DC3E0941FA3E09400500C3B
:103C8B0090F81DE02401F0A3E03400F07A007B00F3
:103C9B0078007900801974BD28F58274F839F583A2
:103CAB00E0FC7D00EA2CFAEB3DFB08E8700109C350
:103CBB00E89403E9940040DE78007900801974C021
:103CCB0028F58274F839F583E0FC7D00EA2CFAEBD9
:103CDB003DFB08E8700109C3E89403E9940040DE5A
:103CEB00EA4B602190F811E0F8A3E0F97A0A7B0027
:103CFB00120A778A088B09E508450970047A018056
:103D0B00067A0080027A0090F81FE090F820F0907D
:103D1B00F817E0F8A3E0F9E849600B90F81F74017D
:103D2B00F0D291023DCC74016A700990F81F7401B6
:103D3B00F0023DCC90F811C3E094E0A3E0942E4048
:103D4B000A90F81F7401F0D291807690F811C0821E
:103D5B00C08390F813E0F8A3E0F9D083D082C3E0DE
:103D6B0098A3E099405390F815C082C08390F81146
:103D7B00E0F8A3E0F9D083D082C3E098A3E09940A8
:103D8B003890F763E06401702690F762E06401708D
:103D9B001E90FA8EE04401F91256CF8A088B09E582
:103DAB00084509600A90F81F7400F0C291801290C8
:103DBB00F81F7401F0D291800890F81F7400F0C2C4
:103DCB009190F81FE06401700B90F820E07005757E
:103DDB00E102805290F81FE0704C90F820E06401F3
:103DEB00704475E10490F763E06401600890F7623A
:103DFB00E06401703190F7657401F0802990F8113F
:103E0B00E02401F0A3E03400F090F811C3E094003B
:103E1B00A3E0945D401075E10475E10290F8117414
:103E2B0000F0A37400F07F02020C8D53E4FC75E2EA
:103E3B0000C2B922C082C08390F8117400F0A37441
:103E4B0000F075E200D083D08222C082C08390F74D
:103E5B0017E0702475E40C75DBFF75DAFF75E20073
:103E6B0090F8117400F0A37400F075E544C2C1D250
:103E7B00AFD2B975E40A801875E40875DB2475DADE
:103E8B009E75E20075E544C2C1D2AFD2B975E40AA2
:103E9B00D083D08222C0E074F1120C2EC28B90F82A
:103EAB001DC3E0941EA3E094004012E5C190F611EF
:103EBB00F090F7157401F0A37400F08035E5C1C0E4
:103ECB00E090F715E02411F8A3E034F6F988828925
:103EDB0083D0E0F090F715C3E0947FA3E09400A2A9
:103EEB00D265D033500C90F715E02401F0A3E034E9
:103EFB0000F090F81D7400F0A37400F07E01023FF7
:103F0B009B90F611E0F879008A08750900E82508FE
:103F1B00F8E93509F9741228F58274F639F583E05E
:103F2B00C0E08A0875090074112508F58274F6350E
:103F3B0009F583D0E0F00AEAC39B40C590F715C0A2
:103F4B0082C08390F611E0F87900D083D082E0C371
:103F5B0098F8A3E099F9E8C39401F8E99400F99073
:103F6B00F715E8F0A3E9F090F715E0F8A3E0F9E80E
:103F7B0049601B90F611E0FA7B0090F715E0F8A36F
:103F8B00E0F9C3EA98EB99A2D265D03340027E00E8
:103F9B00EE605490F715C3E09401A3E09400A2D215
:103FAB0065D03340C290F611E0FA7B0090F715E034
:103FBB00F8A3E0F9C3EA98EB99A2D265D03350A7E6
:103FCB0090F611E0FC7D007A127BF6120F5890F6FA
:103FDB0011E0FA90F715E0F8A3E0F9E8C39AC3945F
:103FEB0001FB7A00023F427F02020C8DC0E0C0D081
:103FFB00E8C0E0E9C0E0C082C083C2E990F713C01B
:10400B0082C08390F711E0F8A3E0F9D083D082C38C
:10401B00E098A3E099A2D265D033400F90F71374C8
:10402B0000F0A37400F0539AFB801F90F713E02469
:10403B0091F8A3E034F6F988828983E0F5C190F713
:10404B0013E02401F0A3E03400F0D083D082D0E061
:10405B00F9D0E0F8D0D0D0E032C082C08390F71511
:10406B007400F0A37400F0C28B5386FB438640D2DE
:10407B00AFD2AAD083D08222C082C08390F71374B0
:10408B0000F0A37400F0C2E95386FD90F713E0240F
:10409B0091F8A3E034F6F988828983E0F5C190F7B3
:1040AB0013E02401F0A3E03400F0D2AF439A04D024
:1040BB0083D082227582FA7583FE120B4E1239A1C0
:1040CB0012380812381E1222F0123835123BDF90CC
:1040DB00F7177400F012396F1240647A007B00807E
:1040EB001308E8700109C3E89437E9947F40F20A9A
:1040FB00EA70010BC3EA940FEB9400500678007939
:10410B000080E3120D8AE990F717F07A007B0080AC
:10411B001308E8700109C3E89437E9947F40F20A69
:10412B00EA70010BC3EA9405EB9400500678007912
:10413B000080E3D2917A007B00801308E8700109BC
:10414B00C3E89437E9947F40F20AEA70010BC3EAA3
:10415B009405EB940050067800790080E3C2917AC5
:10416B00007B00801308E8700109C3E89437E994D9
:10417B007F40F20AEA70010BC3EA9405EB940050FE
:10418B00067800790080E3D2917A007B00801308D7
:10419B00E8700109C3E89437E9947F40F20AEA70AA
:1041AB00010BC3EA9405EB9400500678007900806C
:1041BB00E3C29190F717E070547A007B00801308EC
:1041CB00E8700109C3E89437E9947F40F20AEA707A
:1041DB00010BC3EA9405EB9400500678007900803C
:1041EB00E3D2917A007B00801308E8700109C3E8E1
:1041FB009437E9947F40F20AEA70010BC3EA940505
:10420B00EB940050067800790080E3C29190F71789
:10421B00E070097A007905123711803C1250431275
:10422B003E558034851082851183E0F97401120BA1
:10423B006CE0FCA3E0FD7406120B7612354885107A
:10424B0082851183E0F97401120B6CE0FCA3E0FD95
:10425B007406120B761229007401120B7E7406126F
:10426B000B76124527E9C0E0851082851183D0E0DB
:10427B00F0A810A911880889097808120CE97403B1
:10428B00120B7E7408120B76124B437402120B182E
:10429B007401120B6CE0F8A3E0F9E84960BA7A00FC
:1042AB00851082851183E0F890F58BE0A2E7E4336B
:1042BB006870707401120B6CC082C08390F60BE0B7
:1042CB0024FEF8A3E034FFF9D083D082E0687003BA
:1042DB00A3E069704E7A017E0080010E8E0875098D
:1042EB00007401120B6CE0F8A3E0F9C3E50898E544
:1042FB000999502F8E087509007406120B6CE58214
:10430B002508F582E5833509F583E0F88E087509F4
:10431B0000748D2508F58274F53509F583E0686026
:10432B00BA7A0090F717E06401700302422F740110
:10433B006A701D7403120B6C7404F07C017D0074A5
:10434B0003120B761237DB127BDE1247B702426386
:10435B00851082851183E0700890F58B7402F080D4
:10436B000690F58B7482F07401120B6CE0F8A3E0ED
:10437B00F9E890F58CF07E00802E8E08750900749C
:10438B0006120B6CE5822508F582E5833509F5836A
:10439B00E0C0E08E08750900748D2508F58274F570
:1043AB003509F583D0E0F00E8E0875090074011203
:1043BB000B6CE0F8A3E0F9C3E50898E5099940BA5E
:1043CB007401120B6CE02402F8A3E03400F990F6B0
:1043DB000BE8F0A3E9F07E00802890F60B8E0875B1
:1043EB000900E0C39508FCA3E09509FD8E0875094B
:1043FB0000748B2508FA74F53509FB1237DB743022
:10440B002EFE8E0875090090F60BE0F8A3E0F9C3B9
:10441B00E50898E50999A2D265D0334003024263BF
:10442B0090F60B8E08750900E0C39508F8A3E0958C
:10443B0009F9C3E89431E99400A2D265D033409ACC
:10444B007C307D008E08750900748B2508FA74F595
:10445B003509FB1237DB127BDE1247B780A074F7EE
:10446B00120B887508437509F97808120CE9750861
:10447B00C37509F87808120CE91225C77404120BDE
:10448B001890F943E0F8A3E0F9E890DF02F090F719
:10449B0017E07003123E3675E1047C007D00740951
:1044AB00120B6CE0FEA3E0FF801600EA24FFF8EB92
:1044BB0034FFF9E8FAE9FBE84970EF0CEC70010DF9
:1044CB00C3EC9EED9FA2D265D033503675E1037AD3
:1044DB00007B008018A28950FCC28974C32AF58224
:1044EB0074F83BF583E0F5D90AEA70010B90F943B8
:1044FB00E0F8A3E0F9C3EA98EB9940D97A007B1076
:10450B0080A990DF0274FFF075E10475E10290F76A
:10451B0017E07003123E557F02020BEE74F1120B83
:10452B00888A0C8B0D8C0A8D0B75E10475E102905A
:10453B00DF0274FFF090F94C74FFF090F717E07006
:10454B0003123E557E007F00805090F717E07003FA
:10455B00123E36E5D9C0E074C32EF58274F83FF5F0
:10456B0083D0E0F074C32EF58274F83FF583E090AE
:10457B00F94CF0EE4F701C90F811E0F8A3E0F990B5
:10458B00F71BE8F0A3E9F090F817E0240AF0A3E09A
:10459B003400F0C2890EEE70010FC3EE9480EF94DD
:1045AB0000500990F94CE06003024659EE24FFF8E5
:1045BB00EF34FFF990F943E8F0A3E9F075E10478E3
:1045CB000A120CE9780C120CE990F943E0FCA3E019
:1045DB00FD7AC37BF81227BB7404120B18850A8271
:1045EB00850B83E024FFFCA3E034FFFDAA0CAB0D8D
:1045FB001222ADE9FA850A82850B83E0F8A3E0F974
:10460B00E50C28F8E50D39F9E824FFF582E934FFCC
:10461B00F583E06A704D79000247B290F765E0646C
:10462B0001700912314B90F7657400F0E5E9A2E6D1
:10463B00501C53E9BF90F94C74FFF07E007F00755E
:10464B00E10475E10290F717E07003123E3FA28977
:10465B00500302455590F717E070C0127BDE1247EE
:10466B00B780C9850A82850B83E024FEFCA3E03466
:10467B00FFFDAA0CAB0D12238B8A088B0985080E44
:10468B0085090FA80E850A82850B83E0FAA3E0FB50
:10469B00E50C2AFAE50D3BFBEA24FFF582EB34FF30
:1046AB00F583E068702E7408780E120AD0850A82A2
:1046BB00850B83E0F8A3E0F9E50C28F8E50D39F953
:1046CB00E824FEF582E934FFF583E0650E70057989
:1046DB00000247B2850A82850B83E024FEFCA3E02F
:1046EB0034FFFDAA0CAB0D1222ADE9FA850A8285C7
:1046FB000B83E0F8A3E0F9E50C28F8E50D39F9E8B0
:10470B0024FEF582E934FFF583E06A7014850A8292
:10471B00850B83E024FFF0A3E034FFF07900024720
:10472B00B2850A82850B83E024FDFCA3E034FFFDF8
:10473B00AA0CAB0D12238B8A088B0985080E8509F1
:10474B000F850E08850A82850B83E0F8A3E0F9E557
:10475B000C28F8E50D39F9E824FEF582E934FFF56C
:10476B0083E06508703C7408780E120AD0850A82C3
:10477B00850B83E0F8A3E0F9E50C28F8E50D39F992
:10478B00E824FDF582E934FFF583E0650E701385AF
:10479B000A82850B83E024FFF0A3E034FFF079005D
:1047AB0080051222F079017F08020BEE74F3120BD5
:1047BB00887480120B021237F68A088B0985080A57
:1047CB0085090B750800750900802DE50AC395084E
:1047DB00FCE50B9509FD851082851183E582250883
:1047EB00FAE5833509FB1237DE127BDEE508243050
:1047FB00F508E5093400F509C3E508950AE50995BF
:10480B000B501AE50AC39508F8E50B9509F9C3E8AF
:10481B009431E9940040B47C307D0080B975080078
:10482B00750900801490F60FE02401F0A3E034002A
:10483B00F00508E50870020509C3E508950AE509C6
:10484B00950B4003024B39851082851183E5822538
:10485B0008F582E5833509F583E0C0E090F60FE0BB
:10486B00240BF8A3E034F5F988828983D0E0F0902B
:10487B00F60FE0F8A3E0F9E849600302495B90F515
:10488B000BE06401702590F60FE02401F0A3E034F7
:10489B0000F090F9457400F0A37400F090F94774A0
:1048AB0000F0A37400F0123E55808690F50BE06487
:1048BB0081702690F60FE02401F0A3E03400F09015
:1048CB00F9457401F0A37400F090F9477400F0A35C
:1048DB007400F0123E5502483C90F50BE064C17039
:1048EB002690F60FE02401F0A3E03400F090F94598
:1048FB007400F0A37400F090F9477401F0A37400F6
:10490B00F0123E5502483C90F50BE06403600890B2
:10491B00F50BE06413701C90F9F97401F0C29190DF
:10492B00F50B7403F07C017D007A0B7BF51237DB02
:10493B0002483C90F50BE0600302483C90F50B7489
:10494B005AF07C017D007A0B7BF51237DB02483C79
:10495B0090F60FE064017004A3E06400702390F5FF
:10496B000CE090F949F090F60FE02401F0A3E0344D
:10497B0000F090F717E0600302483C123E3F0248FC
:10498B003C90F60FE064027004A3E06400702A9080
:10499B00F50DE0F8790090F94AE8F0A3E9F090F60C
:1049AB000FE02401F0A3E03400F090F717E0600370
:1049BB0002483C123E3F02483C90F60FC3E0940382
:1049CB00A3E09400A2D265D033500302483C90F789
:1049DB0017E07003123E3F90F60FC082C08390F930
:1049EB0049E0F87900E82402F8500109D083D0821D
:1049FB00E0687003A3E0696003024830123E369012
:104A0B00F945E064017004A3E06400703990F60F7F
:104A1B00E02401FEA3E03400FF90F60FEEF0A3EFCD
:104A2B00F090F949E0FC7D007A0E7BF51222ADE99E
:104A3B00C0E0740B2EF58274F53FF583D0E0F09057
:104A4B00F949E02401F090F947E064017004A3E018
:104A5B006400707190F949E0FC7D007A0E7BF512D1
:104A6B00238B8A0C8B0DAA0CAB0D90F60FE0240157
:104A7B00FCA3E03400FD90F60FECF0A3EDF08A0CF4
:104A8B008B0D7408780C120AD0E50CC0E0740B2C5B
:104A9B00F58274F53DF583D0E0F090F60FE024013C
:104AAB00F8A3E03400F990F60FE8F0A3E9F0EAC0C0
:104ABB00E0740B28F58274F539F583D0E0F090F9AA
:104ACB0049E02402F090F949E0FC7D007A0E7BF579
:104ADB00126861E9703490F94A120CFE90F949E0C2
:104AEB00FC7D007A0E7BF51244697402120B1812CE
:104AFB0022F07C037D007A0B7BF51237DB90F60FEF
:104B0B007400F0A37400F002483C90F50C7400F0B4
:104B1B0090F50D7400F07C037D007A0B7BF512375A
:104B2B00DB90F60F7400F0A37400F002483C748025
:104B3B00120B187F06020BEE74F3120B88EAFEEBD6
:104B4B00FF8C0A8D0B740D120B6CE0F508A3E0F5CE
:104B5B0009850882850983E07003024F4378007949
:104B6B0000801DEE28F582EF39F583E0C0E074CDAF
:104B7B0028F58274F939F583D0E0F008E870010963
:104B8B00850A82850B83E0FAA3E0FBC3E89AE99BD5
:104B9B0040D1850A82850B83E0F8A3E0F990F9F701
:104BAB00E8F0A3E9F090F9CDE0540F44A090F9CDD3
:104BBB00F090F9F7E0C39407F8A3E09400F9C3E889
:104BCB00941BE99400504290F9F77407F0A374001A
:104BDB00F090F9F7E024FFFCA3E034FFFD7ACD7BE6
:104BEB00F91222ADE9FA90F9F7E024CCF8A3E034FE
:104BFB00F9F988828983E06A6003024EF3850882A3
:104C0B008509837400F0024EF390F9F7E0C3942208
:104C1B00F8A3E09400F9C3E89407E9940040030279
:104C2B004E5690F9F77422F0A37400F090F9F7E068
:104C3B0024FEFCA3E034FFFD7ACD7BF912238B8A93
:104C4B000C8B0DA80CA90DE8FA90F9F7E024CCFC1D
:104C5B00A3E034F9FD8C828D83E06A702C880C897B
:104C6B000D7408780C120AD090F9F7E024CBF8A356
:104C7B00E034F9F988828983E0650C700C85088231
:104C8B008509837400F0024EF31222F090F9F5E0DF
:104C9B00F8A3E0F9E8497003024EF378007900803D
:104CAB001F744D28F58274F939F583E0C0E074CD9B
:104CBB0028F58274F939F583D0E0F008E870010922
:104CCB00C3E89408E9940040D890F955E0241054B7
:104CDB007090F9D5F078007900801F745628F58212
:104CEB0074F939F583E0C0E074D828F58274F9398A
:104CFB00F583D0E0F008E8700109C3E89402E99469
:104D0B000040D890F9DA7400F090F95BE090F9DC90
:104D1B00F090F95DE090F9DDF078007900801F7478
:104D2B005828F58274F939F583E0C0E074DE28F574
:104D3B008274F939F583D0E0F008E8700109C3E813
:104D4B009402E9940040D878007900801F745E28A3
:104D5B00F58274F939F583E0C0E074E028F58274CC
:104D6B00F939F583D0E0F008E8700109C3E8940C39
:104D7B00E9940040D890F9EC7400F090F9F7E02436
:104D8B00FEFCA3E034FFFD7ACD7BF912238B8A0C5A
:104D9B008B0DA80CA90DE8FA90F9F7E024CCFCA335
:104DAB00E034F9FD8C828D83E06A7029880C890DC3
:104DBB007408780C120AD090F9F7E024CBF8A3E032
:104DCB0034F9F988828983E0650C7009850882853E
:104DDB0009837400F0850882850983E07003024E15
:104DEB00F390F9D5E0D2E0F090F9F7E024FEFCA3C4
:104DFB00E034FFFD7ACD7BF912238B8A0C8B0DA847
:104E0B000CA90DE8FA90F9F7E024CCFCA3E034F9F7
:104E1B00FD8C828D83E06A6003024EF3880C890D52
:104E2B007408780C120AD090F9F7E024CBF8A3E0C1
:104E3B0034F9F988828983E0650C6003024EF385AF
:104E4B0008828509837400F0024EF390F9F7E0C3F2
:104E5B00942AF8A3E09400F9C3E8941DE994005058
:104E6B003E90F9F7742AF0A37400F090F9F7E02460
:104E7B00FFFCA3E034FFFD7ACD7BF91222ADE9FAFA
:104E8B0090F9F7E024CCF8A3E034F9F98882898310
:104E9B00E06A70548508828509837400F08049901C
:104EAB00F9F7C3E09447A3E09400403C90F9F77402
:104EBB0047F0A37400F090F9F7E024FFFCA3E03473
:104ECB00FFFD7ACD7BF91222ADE9FA90F9F7E024D8
:104EDB00CCF8A3E034F9F988828983E06A700985FC
:104EEB0008828509837400F0850882850983E06454
:104EFB0001604578007900801D74CD28F58274F926
:104F0B0039F583E0C0E0EE28F582EF39F583D0E088
:104F1B00F008E870010990F9F7E0FAA3E0FBC3E8A9
:104F2B009AE99B40D490F9F7E0F8A3E0F9850A825F
:104F3B00850B83E8F0A3E9F0850882850983E0649B
:104F4B0001700302503E8E828F83E064AA600C8E48
:104F5B00828F83E064AB600302503E8E828F83A30B
:104F6B00A3E0F890F8B1E06870218E828F83A3A341
:104F7B00A3E0F890F8B2E06870118E828F83A3A340
:104F8B00A3A3E0F890F8B3E06860608E828F83A3F0
:104F9B00A3E0F890F8B4E06870218E828F83A3A30E
:104FAB00A3E0F890F8B5E06870118E828F83A3A30D
:104FBB00A3A3E0F890F8B6E06860308E828F83A3ED
:104FCB00A3E0F890F8B7E06870698E828F83A3A393
:104FDB00A3E0F890F8B8E06870598E828F83A3A392
:104FEB00A3A3E0F890F8B9E0687048850A82850BB6
:104FFB0083E0F8A3E0F990F9F5E8F0A3E9F0780085
:10500B007900801DEE28F582EF39F583E0C0E0745E
:10501B004D28F58274F939F583D0E0F008E870017A
:10502B0009850A82850B83E0FAA3E0FBC3E89AE9C2
:10503B009B40D17F06020BEE74F5120B887E00802D
:10504B00010EEEC394034003025161750800025137
:10505B001FEFF87900E875F002A4C8AAF075F0000C
:10506B00A42AFA75F002E9A42AF9E508FC7D00EC04
:10507B0075F004A4CCAAF075F000A42AFA75F0041C
:10508B00EDA42AFDEEFA7B00EA75F020A4CA85F0A8
:10509B000975F000A42509F50975F020EBA4250985
:1050AB00FB74662AFA74F73BFBEA2CFAEB3DFBEA3E
:1050BB0028F582EB39F5837400F0A37400F0E50852
:1050CB00FA7B00EA75F002A4CAA8F075F000A428D8
:1050DB00F875F002EBA428FBEEF87900E875F010F8
:1050EB00A4C8ACF075F000A42CFC75F010E9A42C4E
:1050FB00F974DE28F874F739F9E82AF582E93BF5FB
:10510B00837400F0A37400F00FEFC39402500302FA
:10511B00505C0508E508C39408400302504C850811
:10512B000A750B00EEF87900E875F008A4C8AAF030
:10513B0075F000A42AFA75F008E9A42AF974C628B8
:10514B00F874F739F9E8250AF582E9350BF583741C
:10515B0000F07F0080B37F04020BEE74F7120B8814
:10516B007E000252B7EFFA7B00EA75F004A4CAA8DE
:10517B00F075F000A428F875F004EBA428FBEEF80A
:10518B007900E875F020A4C8ACF075F000A42CFCF5
:10519B0075F020E9A42CF9746628F874F739F9E84E
:1051AB002AF582E93BF583E0C394B0F8A3E09404BD
:1051BB00F9C3E894B9E9940B4049EFFA7B00EA751F
:1051CB00F004A4CAA8F075F000A428F875F004EB5D
:1051DB00A428FBEEF87900E875F020A4C8ACF075B4
:1051EB00F000A42CFC75F020E9A42CF9746628F8C7
:1051FB0074F739F9E82AF582E93BF5837400F0A3DB
:10520B007400F0EEFA7B00EA75F020A4CAA8F075E2
:10521B00F000A428F875F020EBA428FBEFF8790038
:10522B00E875F004A4C8ACF075F000A42CFC75F084
:10523B0004E9A42CF9746828F874F739F9E82AF50D
:10524B0082E93BF583E0C39450F8A3E09400F9C3E3
:10525B00E894ABE994004049EEFA7B00EA75F02044
:10526B00A4CAA8F075F000A428F875F020EBA428C8
:10527B00FBEFF87900E875F004A4C8ACF075F0000A
:10528B00A42CFC75F004E9A42CF9746828F874F7C5
:10529B0039F9E82AF582E93BF5837400F0A3740031
:1052AB00F00FEFC3940850030251700EEEC394033A
:1052BB0050047F0080EC7E0080010EEEC39403400F
:1052CB00030256CA7F00025373EEFA7B00EA75F0B5
:1052DB0020A4CAA8F075F000A428F875F020EBA460
:1052EB0028FBEFF87900E875F004A4C8ACF075F072
:1052FB0000A42CFC75F004E9A42CF9746828F8744C
:10530B00F739F9E82AF582E93BF583E0F8A3E0F9F0
:10531B007A0A7B00120A778A088B09EEFA7B00EA7D
:10532B0075F020A4CAA8F075F000A428F875F02039
:10533B00EBA428FBEFF87900E875F004A4C8ACF0F7
:10534B0075F000A42CFC75F004E9A42CF974682802
:10535B00F874F739F9E82AF582E93BF583C3E09550
:10536B0008F0A3E09509F00FEFC394084003025235
:10537B00C5EFFA7B00EA75F004A4CAA8F075F0003B
:10538B00A428F875F004EBA428FBEEF87900E87577
:10539B00F020A4C8ACF075F000A42CFC75F020E94B
:1053AB00A42CF9746628F874F739F9E82AF582E920
:1053BB003BF583E0F8A3E0F97A0A7B00120A778ABF
:1053CB00088B09C3E5089406E509940050030254C1
:1053DB00D4EFFA7B00EA75F004A4CAA8F075F000CC
:1053EB00A428F875F004EBA428FBEEF87900E87517
:1053FB00F020A4C8ACF075F000A42CFC75F020E9EB
:10540B00A42CF9746628F874F739F9E82AF582E9BF
:10541B003BF583E0240AFCA3E03400FDEFFA7B00AC
:10542B00EA75F004A4CAA8F075F000A428F875F08A
:10543B0004EBA428FBEEF87900E875F020A4C885EE
:10544B00F00875F000A42508F50875F020E9A425EF
:10545B0008F9746628F874F739F9E82AF582E93BFC
:10546B00F583E0F8A3E0F97A0A7B00120A778A0841
:10547B008B09ECC39508FCED9509FDEFFA7B00EA6F
:10548B0075F004A4CAA8F075F000A428F875F00410
:10549B00EBA428FBEEF87900E875F020A4C885F0A2
:1054AB000875F000A42508F50875F020E9A4250877
:1054BB00F9746628F874F739F9E82AF582E93BF5AF
:1054CB0083ECF0A3EDF0025572EFFA7B00EA75F076
:1054DB0004A4CAA8F075F000A428F875F004EBA496
:1054EB0028FBEEF87900E875F020A4C8ACF075F055
:1054FB0000A42CFC75F020E9A42CF9746628F87430
:10550B00F739F9E82AF582E93BF583E0F8A3E0F9EE
:10551B007A0A7B00120A778A088B09EFFA7B00EA7A
:10552B0075F004A4CAA8F075F000A428F875F0046F
:10553B00EBA428FBEEF87900E875F020A4C8ACF0DA
:10554B0075F000A42CFC75F020E9A42CF9746628E6
:10555B00F874F739F9E82AF582E93BF583C3E0954E
:10556B0008F0A3E09509F0EEFA7B00EA75F020A4B1
:10557B00CAA8F075F000A428F875F020EBA428FB5E
:10558B00EFF87900E875F004A4C8ACF075F000A44E
:10559B002CFC75F004E9A42CF9746828F874F7391D
:1055AB00F9E82AF582E93BF583E0F8A3E0F97A0AFA
:1055BB007B00120A778A088B09C3E5089406E50974
:1055CB00940050030252D4EEFA7B00EA75F020A44B
:1055DB00CAA8F075F000A428F875F020EBA428FBFE
:1055EB00EFF87900E875F004A4C8ACF075F000A4EE
:1055FB002CFC75F004E9A42CF9746828F874F739BD
:10560B00F9E82AF582E93BF583E0240AFCA3E034B0
:10561B0000FDEEFA7B00EA75F020A4CAA8F075F045
:10562B0000A428F875F020EBA428FBEFF87900E82C
:10563B0075F004A4C885F00875F000A42508F508DA
:10564B0075F004E9A42508F9746828F874F739F99A
:10565B00E82AF582E93BF583E0F8A3E0F97A0A7BC7
:10566B0000120A778A088B09ECC39508FCED9509A3
:10567B00FDEEFA7B00EA75F020A4CAA8F075F000E5
:10568B00A428F875F020EBA428FBEFF87900E87557
:10569B00F004A4C885F00875F000A42508F508757A
:1056AB00F004E9A42508F9746828F874F739F9E8C7
:1056BB002AF582E93BF583ECF0A3EDF00253727F00
:1056CB0002020BEE74F8120B88E9FEEEC4540F5471
:1056DB0007FCEEA2E0E433F990F718E0F890F8B18C
:1056EB00E068701C90F719E0F890F8B2E068701061
:1056FB0090F71AE0F890F8B3E06870047B008052E2
:10570B0090F718E0F890F8B4E068701C90F719E087
:10571B00F890F8B5E068701090F71AE0F890F8B6CA
:10572B00E06870047B01802A90F718E0F890F8B7D6
:10573B00E068701C90F719E0F890F8B8E06870100A
:10574B0090F71AE0F890F8B9E06870047B028002D9
:10575B007B03EBC394035068E9F87900E875F0021A
:10576B00A4C8AAF075F000A42AFA75F002E9A42ADD
:10577B00F9ECFC7D00EC75F004A4CCAAF075F000FC
:10578B00A42AFA75F004EDA42AFDEBFA7B00EA7566
:10579B00F020A4CAAFF075F000A42FFF75F020EB3A
:1057AB00A42FFB74662AFA74F73BFBEA2CFAEB3D49
:1057BB00FBEA28F582EB39F583E0FAA3E0FB8004E2
:1057CB007A007B007F01020BEE74F1120B8874FFE1
:1057DB00120B02E9C0E0851082851183D0E0F08ABC
:1057EB000F8C0C8D0DE50FC4540F5407FCE50FA265
:1057FB00E0E433F50E851082851183E0C4540F5419
:10580B0007FD851082851183E0A2E0E433FF90F75A
:10581B0018E0F890F8B1E068701C90F719E0F89078
:10582B00F8B2E068701090F71AE0F890F8B3E068FF
:10583B0070047E00805290F718E0F890F8B4E0689E
:10584B00701C90F719E0F890F8B5E068701090F7BD
:10585B001AE0F890F8B6E06870047E01802A90F7A1
:10586B0018E0F890F8B7E068701C90F719E0F89022
:10587B00F8B8E068701090F71AE0F890F8B9E068A3
:10588B0070047E0280027E03EEC394034003026326
:10589B002A8D0875090085080A85090B8C0875097E
:1058AB0000E5082401F8E43509F97A087B00120AAF
:1058BB006F8A088B09E508650A7004E509650B60BA
:1058CB000302618EECC39471400302618EC3E50C3D
:1058DB0094C0E50D9412400302618EE50E60030245
:1058EB005A6DEF6003025A6DECFA7B00EA75F00417
:1058FB00A4CAA8F075F000A428F875F004EBA4284E
:10590B00FBEEF87900E875F020A4C8ADF075F00057
:10591B00A42DFD75F020E9A42DF9746628F874F711
:10592B0039F9E82AF582E93BF583E0F8A3E0F9E8D9
:10593B0049704CECFA7B00EA75F004A4CAA8F07528
:10594B00F000A428F875F004EBA428FBEEF879001E
:10595B00E875F020A4C8ACF075F000A42CFC75F031
:10596B0020E9A42CF9746628F874F739F9E82AF5BC
:10597B0082E93BF583E50CF0A3E50DF002631AEC2D
:10598B00FA7B00EA75F004A4CAA8F075F000A4280D
:10599B00F875F004EBA428FBEEF87900E875F0201D
:1059AB00A4C8ADF075F000A42DFD75F020E9A42D71
:1059BB00F9746628F874F739F9E82AF582E93BF5AA
:1059CB0083E0250CF0A3E0350DF0ECFA7B00EA75D3
:1059DB00F004A4CAA8F075F000A428F875F004EB45
:1059EB00A428FBEEF87900E875F020A4C8ADF0759B
:1059FB00F000A42DFD75F020E9A42DF9746628F8AC
:105A0B0074F739F9E82AF582E93BF583E0F8A3E06E
:105A1B00F9E9C313F9E813F8ECFC7D00EC75F0041D
:105A2B00A4CCAAF075F000A42AFA75F004EDA42A10
:105A3B00FDEEFA7B00EA75F020A4CAAFF075F0001A
:105A4B00A42FFF75F020EBA42FFB74662AFA74F7D2
:105A5B003BFBEA2CF582EB3DF583E8F0A3E9F00282
:105A6B00631AE50E600302600574016F6003026048
:105A7B0005EEF87900E875F020A4C8AAF075F000DF
:105A8B00A42AFA75F020E9A42AF9EDFA7B00EA754D
:105A9B00F004A4CAAFF075F000A42FFF75F004EB6F
:105AAB00A42FFB74682AFA74F73BFBEA28F582EB08
:105ABB0039F583E0F8A3E0F9E8497003025D47ECA0
:105ACB00F87900E875F004A4C8AAF075F000A42AD0
:105ADB00FA75F004E9A42AF9EEFA7B00EA75F020D6
:105AEB00A4CAAFF075F000A42FFF75F020EBA42F24
:105AFB00FB74662AFA74F73BFBEA28F582EB39F55F
:105B0B0083E0F8A3E0F9E8496003025BB6EEF879AD
:105B1B0000E875F020A4C8AAF075F000A42AFA7565
