:020000040000FA
:030000000200CD2E
:03001300023C4D5F
:03003300026D2239
:03003B00023D7B08
:03004B000239C6B1
:03006B00026DD74C
:10007B000238FF00000080FBE479127807B8000219
:10008B008004F709D8FCE490F1FF787F79098002AE
:10009B00F0A3D8FCD9FA7A7D7BFA9000DC7846790C
:1000AB00018015E493A3AD82AE838A828B83F0A388
:1000BB00AA82AB838D828E83D8E9D9E7123E431295
:1000CB00007E75D0007581BF7510FF7511F10200B0
:1000DB008315313223342526161A192A0B2C0D0EB3
:1000EB001C802101B001B001B001B001B8010000CA
:1000FB0080431E00000052B82043240B183A9C5337
:10010B00C9350000804717B7D13601000000205DCC
:10011B000000410100001201000202000020510406
:10012B00A616090001020301090243000201008027
:10013B00190904000001020201000524001001044A
:10014B002402020524060001052401000107058293
:10015B000340004009040100020A00000007058467
:10016B0002400001070504024000010403090416C4
:10017B00034E006900670068007400730063006F32
:10018B00007500740018034D004D0043006F006DA7
:10019B00006D0061006E00640065007200080330A2
:1001AB0000300031003C0100005F010000C3E0960D
:1001BB0008A3E09608A3E09608A3E09622C008C324
:1001CB00E096F50808A3E096420808A3E0964208DB
:1001DB0008A3E09645087001D3D00822E96C70069D
:1001EB00EA6D7002EB6E22BB0102E722C082C08374
:1001FB0089828A83BB0003E08002E493D083D082A0
:10020B0022BB000EC082C0838A838982F0D083D048
:10021B008222BB0101F722080808E630E711120918
:10022B008012023A080808C64480C618181822180B
:10023B001818E9799EC608CAC608CBC608CCC6C32F
:10024B0070207996CACBCC7019798ECBCC70137980
:10025B0086CC700EF9802ACA33CACB33CBCC33CCC5
:10026B00331930E7F2CCCBCA3350147004EA30E0C8
:10027B000DE4CA3ACACB3BCBCC3CCC500209C3E908
:10028B0013C6CC182313C6CB18C6CA18C6F922122C
:10029B0002E530F03912032A80341202E520F01403
:1002AB0030E72B74FFFCFBFA747F8022E4FCFBFA33
:1002BB007480801AB48008BC00F2BB00EF800F5032
:1002CB00EBF9E4C39AFAE49BFBE49CFCE499C6CCFF
:1002DB0018C6CB18C6CA18C6F922E4C9C608CAC6BE
:1002EB0008CBC6D3330308CCC63392F0C3947F40FC
:1002FB002E94184019C9B90704CACBCC225025C378
:10030B0009CA33CACB33CBCC33CC33D9F422F46008
:10031B000DC9CCC313CB13CBCA13CAD9F6CC22E469
:10032B00FCFBFA2214FCFBFA22E6261846184618A8
:10033B004622E72719471947194722181818E608C4
:10034B0046087009E626087005E633F422082219E0
:10035B001919E70947097009E727097005E733F40D
:10036B00220922E6084608C3134608336002E63327
:10037B00F422E7094709C3134709336002E733F453
:10038B002212036E601C12037D6017120334700778
:10039B0012033D7001D322C0D012033D7006D0D0A2
:1003AB00B322C32233D0D0501430E0F6C3E7960803
:1003BB0009E7960809E7960809E796B32220E0D5E6
:1003CB00E6970809E6970809E6970809E697B32226
:1003DB000012036E604F12037D6012E7548066F6C5
:1003EB00120346701112033D703B090909F4F6180C
:1003FB00F618F618F62212035A7015120334080871
:10040B000860EAE6447FF618768018E4F618F622C0
:10041B00120334601612033D7012E4F608F608F668
:10042B0008E65480F609090918181822EAC0E0EB0F
:10043B00C0E0ECC0E0EDC0E0E687F0A4FBACF00858
:10044B00E687F0A42CFCE435F0FA1809E687F0A453
:10045B002C4B60027401CA35F0FCE433FB09E687D0
:10046B00F0D2F7A42CCB35F0FC1908E687F0A42BBF
:10047B00CC35F0FBE433FD0819E687F0D2E7A42C6A
:10048B004ACB35F0CD3400FC09E687F0D2E7A42D3A
:10049B00CC35F0FDE433FA0918E687F0D2F7A42C3B
:1004AB00CD35F0CA3400FC08E687F0D2E7D2F7A4CA
:1004BB002ACC35F07A7E20E70B0ACB33CBCD33CD6C
:1004CB00CC33CC33CB3350147004ED30E00ED2F17F
:1004DB00E4CD3DCDCC3CCC3B5005DA05C2F1EB5421
:1004EB007FC63308E63392F0FBE73309E733C39A51
:1004FB00502D2B70190C0D4C4D70151806E608C3BA
:10050B0033700D20F10AA2F013F6E418800B40248F
:10051B00E4F630F002768018F618F618F68024D33D
:10052B003B14501074FFA2F013F6187680E418F603
:10053B0018F6800FA2F013F618E63303F618ECF654
:10054B0018EDF6D0E0FDD0E0FCD0E0FBD0E0FA22D5
:10055B0012037D604612036E603DE9687008F61861
:10056B00F618F618F622748067F712058F09090939
:10057B00748067F72212036E601D12037D700519DC
:10058B001919801A120346701F12035AC37003E61F
:10059B00673319191940071818182208080874FF2F
:1005AB00F618F618F618F62212035A601712033DC6
:1005BB00702192F01203347019501720F0140808B0
:1005CB0008090909E7F61819E7F61819E7F61819D3
:1005DB00E7F62212033460E6E869701F0808E62488
:1005EB0080F608E436F618547FB47F0CE65480602E
:1005FB0007F6E418F618F622181822E9C6CC08C636
:10060B00CD08C6CE08C6CFC0E0E8C0E0EAC0E0EB3C
:10061B00C0E009E9F809E7FA09E7FBE6F918E6F89B
:10062B00C3EC98ED99EE9AEBC2E7F5F0EFC2E795C4
:10063B00F0500E600CEBCFFBEACEFAE9CDF9E8CC2B
:10064B00F8EAA2E7D2E7FAEB33FB13F5F0EEA2E7F9
:10065B00D2E7FEEF33FFC5F013A2E730E601B31389
:10066B00C5F0C3C0E0C0F07F00C39BFB605E941875
:10067B00600F401D14601AD0E023F9D0E0F8020798
:10068B00618AF0E9486003D2F0E4AFF0FAF9F88040
:10069B003BEB30E40D89F0EA6003D2F0E4AFF0F904
:1006AB00CAF8EB30E30D88F0EF6002D2F0AFF0E464
:1006BB00CAC9F8EB54076014FBC3EA13FAE913F940
:1006CB00E813F8EF135002D2E0FFDBEDD0E0C0E00F
:1006DB0030E739C3E49FFFF5F0EC98FC42F0ED995D
:1006EB00FD42F0EE9AFE42F0D0E0F9D0E0F8E5F0F2
:1006FB00607AE923F9EE20E742D8028067C3EF3333
:10070B00FFEC33FCED33FDEE33FE80EAEC28FCED21
:10071B0039FDEE3AFED0E023F9D0E0F84002801B21
:10072B00C3EE13FEED13FDEC13FCEF135002D2E0FE
:10073B00FF08B800067F7F74FF802EEF3350178CB5
:10074B00F020F00260100CBC000C0DBD00080EBEBA
:10075B00000408E860DFE933E813FFEE2313FE4FD4
:10076B004D4C8008E95480FFE4FEFDFCEE33EF3383
:10077B00F47004FCFD7E80D0E0FBD0E0FAD0E0F812
:10078B00D0E0CFC618CEC618CDC618CCC6F92212EB
:10079B00036E70041818182212037D700D74FFF687
:1007AB001819F61819F61819F622E7548066F6127E
:1007BB000334700F12033D70F014F608F608F608B8
:1007CB00F680D112033D700CF608F608768008E629
:1007DB00447F80EC12035D700C12034960BFE6543A
:1007EB0080F6E480BB120349700519191980A5E83E
:1007FB0069700C763F18768018F618F6E8F922E641
:10080B00CDC0E018ECC0E0E633CD33CDD313F6E723
:10081B0019FCE7191933CC33C3947F400ECD9D508F
:10082B002408E65480F6E418F6800FF4043D1450C7
:10083B001408E6447FF6187680E418F618F6D0E034
:10084B00FCD0E0FD22CCD313CCFD18E4C6CBC0E02A
:10085B0018E4C6CAC0E00808ED08C633E613F6185C
:10086B00E433C675F003C3CA97CA09CB97CB199C5F
:10087B0040047D08802EBD000302094316B6FF0518
:10088B000606081618C3CA33CACB33CB33CA27CADA
:10089B0009CB37CB193CC37D08803E187D0820E778
:1008AB005CC633C6CA33CACB33CB33DDF1D5F0EBE1
:1008BB0030E77BCA97CA09CB974ACB199C406F4B41
:1008CB007025E620E0218066187D08C3CA97CA0907
:1008DB00CB97CB199CD3C633C6CA33CACB33CB33D6
:1008EB0050C9DDE7D5F0E1D3E4C636C608C636C637
:1008FB0008C636C608C636C61818188031C3CA973C
:10090B00CA09CB97CB199CB34097C633C6CA33CA17
:10091B00CB33CB33DD34D5F02EC6A2E0C640C8CAEC
:10092B0027CA09CB37194A70BECB3CB480B908082B
:10093B00E63308E633601F181818D0E0FAD0E0FB56
:10094B00D0E0FCD0E0FD22187D08CA27CA09CB37BE
:10095B00CB193CD3808013F618E4B67F11F618B68A
:10096B00FF0EF618C60470D20808768080CAF618F7
:10097B00F618F680C5181818E4C396F608E496F630
:10098B0008E496F608E496F622E627F60809E63719
:10099B00F60809E637F60809E637F622E026F008EE
:1009AB00A3E036F008A3E036F008A3E036F022C34C
:1009BB00E0C696F608A3E0C696F608A3E0C696F640
:1009CB0008A3E0C696F622E0F608A3E0F608A3E03B
:1009DB00F608A3E0F622E6F008A3E6F008A3E6F09B
:1009EB0008A3E6F022E0FAA3E0FBA3E0FCA3E0FD02
:1009FB0022E8F0A3E9F0A3EAF0A3EBF022CAC0E0EF
:100A0B00E6F0A308DAFAD0E0FA22CAC0E0E0A3C508
:100A1B0082CCC582C583CDC583F0A3C582CCC582EC
:100A2B00C583CDC583DAE6D0E0CA22C3E498F8E4E7
:100A3B0099F9120A778026C3E49AFAE49BFBE92022
:100A4B00E7E9120A77E498F8E499F922C3E498F8F5
:100A5B00E499F9120A77E498F8E499F9C3E49AFA5D
:100A6B00E49BFB22EB20E7CFE920E7E0B90010BBCA
:100A7B000008E88AF084F8AAF022E4FBC8FA22EB1B
:100A8B0070227B10C833C8C933C9335007C39AC30C
:100A9B00DBF280069A50012ADBEAC833F4C8C9336B
:100AAB00F4C9FA2275F008E4C833C8C933C933C98D
:100ABB009AC99B5004C92AC93BD5F0ECFBC833F447
:100ACB00C8E4C9FA22600D08C6A2E713C618C613FC
:100ADB00C6D5E0F322600C08C6C313C618C613C6EE
:100AEB00D5E0F422700422600D18C6C333C608C6C5
:100AFB0033C6D5E0F41822251010AF08F510400CC2
:100B0B0015118008F51040021511D2AF2200C0D08C
:100B1B00251010AF08F510500C05118008F510507A
:100B2B00020511D2AFD0D0222510F58210AF08F5F7
:100B3B0010400C15118008F51040021511D2AF852D
:100B4B00118322C5822510C582C583351110AF07CD
:100B5B00F5118582108007F511858210D2AFC58300
:100B6B00222510F582E43511F583222510FAE435A0
:100B7B0011FB222510FCE43511FD22E4732510C571
:100B8B0082C0E0E51134FFC583C0E0E510C3958258
:100B9B0024F910AF08858311858210800885831195
:100BAB00858210D2AFCEF0A3E520F0A37808E6083B
:100BBB00F0A3DEFAEFF0A3E58124FBF8E608F0A33F
:100BCB00E608F0A30808E608F0A3E608F0A31581F1
:100BDB001581D0E0FED0E0F815811581E8C0E0EE7C
:100BEB00C0E022851183851082E0A3FEE0A3F520EF
:100BFB007808E0A3F608DFFAE0A3FFE0A3C0E0E08B
:100C0B00A3C0E0E0A3C0E0E0A3C0E010AF08858282
:100C1B00108583118008858210858311D2AFD08314
:100C2B00D08222C0D02510C582C0E0E51134FFC5AB
:100C3B0083C0E0E510C3958224F310AF08858311C0
:100C4B008582108008858311858210D2AFC8F0A3EE
:100C5B00E9F0A3EAF0A3EBF0A37908E709F0A3D836
:100C6B00FAECF0A3EDF0A3EEF0A3EFF0A3D0E0F0DD
:100C7B00A3D0E0F0A3D0E0F0A3E520F0A3E5F0F0E3
:100C8B00A322851183851082E0C0E0A3E0F9A3E0E5
:100C9B00FAA3E0FBA37808E0F608A3DFFAE0FCA3D5
:100CAB00E0FDA3E0FEA3E0FFA3E0C0E0A3E0C0E013
:100CBB00A3E0F5D0A3E0F520A3E0A3F5F010AF0877
:100CCB008583118582108008858311858210D2AFB0
:100CDB00D082D083D0E0F8D0E03274038004740269
:100CEB008000C0E0F404120B33D0E0120A08227427
:100CFB0003800474028000CCC0E0EDC0E0E510C3BB
:100D0B009CCCAD1150011D10AF068C108D118006BF
:100D1B008C108D11D2AF120A15D0E0FDD0E0FC2261
:100D2B00D083D082CCC0E0E493A36006120D55149F
:100D3B0070FAE493A36006120D741470FAD0E0FC01
:100D4B00E493A3C0E0E493C0E022C0E0E493A3D318
:100D5B009C5010E493A3C39C400AD0E0D0E0D0E0B9
:100D6B00020D48A3A3A3D0E022C0E0E493A36C70D0
:100D7B0009D0E0D0E0D0E0020D48A3A3D0E022746C
:100D8B00F7120B887E007F0074932EF58274F63F6A
:100D9B00F5837441F00EEE70010F74932EF582748F
:100DAB00F63FF5837454F00EEE70010F74932EF52D
:100DBB008274F63FF583742BF00EEE70010F749373
:100DCB002EF58274F63FF583744EF00EEE70010F24
:100DDB0074932EF58274F63FF5837441F00EEE702A
:100DEB00010F74932EF58274F63FF583744DF00E5C
:100DFB00EE70010F74932EF58274F63FF5837445F4
:100E0B00F00EEE70010F74932EF58274F63FF5839E
:100E1B00746DF00EEE70010F74932EF58274F63F25
:100E2B00F5837444F00EEE70010F74932EF58274FB
:100E3B00F63FF5837472F00EEE70010F74932EF57E
:100E4B008274F63FF5837469F00EEE70010F7493A4
:100E5B002EF58274F63FF5837470F00EEE70010F71
:100E6B0090F7177400F0A37400F075080375090070
:100E7B00800CE50824FFF508E50934FFF50990F728
:100E8B0017E0F8A3E0F9E849703BE5084509603540
:100E9B0090F7137402F0A37400F0123E07780079F8
:100EAB000080130AEA70010BC3EA9437EB947F407E
:100EBB00F208E8700109C3E89405E9940050B37A8D
:100ECB00007B0080E3E50845097004790080799088
:100EDB00F7177400F0A37400F07508037509008010
:100EEB000CE50824FFF508E50934FFF50990F71721
:100EFB00E0F8A3E0F9E8497039E50845096033905B
:100F0B00F713EEF0A3EFF0123E0778007900801391
:100F1B000AEA70010BC3EA9437EB947F40F208E8BE
:100F2B00700109C3E89405E9940050B57A007B0081
:100F3B0080E3E508450970047900800C90F717747D
:100F4B0000F0A37400F079017F02020BEE74F11232
:100F5B000B888A088B0990F719E07003021F0C8528
:100F6B000882850983E0120D2B031012D110181A79
:100F7B00661D2022641208009C0F13481314DA1507
:100F8B0015031A16241B17451C2429182BDA1E0CC3
:100F9B001F7E008E0A750B007493250AF58274F67A
:100FAB00350BF5837400F00E850882850983E0C04C
:100FBB00E08E0875090074932508F58274F63509DF
:100FCB00F583D0E0F00E8E0875090074932508F5B3
:100FDB008274F63509F583746DF00E8E0875090071
:100FEB0074932508F58274F63509F5837444F00E75
:100FFB008E0875090074932508F58274F63509F58A
:10100B00837472F00E8E0875090074932508F582AF
:10101B0074F63509F5837469F00E8E087509007442
:10102B00932508F58274F63509F5837470F00E8EEE
:10103B000875090074932508F58274F63509F58354
:10104B007420F00E8E0875090074932508F58274D0
:10105B00F63509F5837476F00E8E087509007493D6
:10106B002508F58274F63509F5837431F00E8E0878
:10107B0075090074932508F58274F63509F58374A8
:10108B002EF00E8E0875090074932508F58274F600
:10109B003509F5837430F00E8E08750900749325AD
:1010AB0008F58274F63509F5837431F00E74FF2E52
:1010BB0090F693F0EEF8790090F713E8F0A3E9F0CF
:1010CB00123E07021F0C7E008E0A750B00749325CF
:1010DB000AF58274F6350BF5837400F00E850882E1
:1010EB00850983E0C0E08E0A750B007493250AF521
:1010FB008274F6350BF583D0E0F00E7900021241C5
:10110B00E8FC7D00EC75F002A4CCAAF075F000A40D
:10111B002AFA75F002EDA42AFDE9F50A750B00E534
:10112B000A75F004A4C50AAAF075F000A42AFA7592
:10113B00F004E50BA42AF50B850882850983E0FAF8
:10114B007B00EA5403FAEB5400FBEA75F020A4CAC7
:10115B00AFF075F000A42FFF75F020EBA42FFB74FC
:10116B00672AFA74F73BFBEA250AFAEB350BFBEA25
:10117B002CF582EB3DF583E0FAA3E0FBE4CBFAEA36
:10118B00C0E08E0A750B007493250AF58274F63550
:10119B000BF583D0E0F00EE8FC7D00EC75F002A4BB
:1011AB00CCAAF075F000A42AFA75F002EDA42AFD82
:1011BB00E9F50A750B00E50A75F004A4C50AAAF057
:1011CB0075F000A42AFA75F004E50BA42AF50B853B
:1011DB000882850983E0FA7B00EA5403FAEB54009A
:1011EB00FBEA75F020A4CAAFF075F000A42FFF75D1
:1011FB00F020EBA42FFB74672AFA74F73BFBEA256C
:10120B000AFAEB350BFBEA2CF582EB3DF583E0FAA2
:10121B00A3E0FBEAC0E08E0A750B007493250AF578
:10122B008274F6350BF583D0E0F00E08E8C3940218
:10123B00500302110B09E9C394085004780080ECA9
:10124B0074FF2E90F693F0EEF8790090F713E8F018
:10125B00A3E9F0123E07021F0C74216C700374009B
:10126B006D6003021F0C7E01790002133B8E0A7521
:10127B000B00E508250AF582E509350BF583E0FA45
:10128B007B00E4CAFB8E0A750B00E508250AF58284
:10129B00E509350BF583A3E0FC7D00EA4CF50CEB7F
:1012AB004DF50DE8FC7D00EC75F002A4CCAAF075B1
:1012BB00F000A42AFA75F002EDA42AFDE9F50A75EF
:1012CB000B00E50A75F004A4C50AAAF075F000A49A
:1012DB002AFA75F004E50BA42AF50B85088285091B
:1012EB0083E0FA7B00EA5403FAEB5400FBEA75F057
:1012FB0020A4CAAFF075F000A42FFF75F020EBA46B
:10130B002FFB74672AFA74F73BFBEA250AFAEB35D5
:10131B000BFBEA2CF582EB3DF583E50CF0A3E50D19
:10132B00F074022EFE08E8C39402500302127809EF
:10133B00E9C394085004780080EC021F0C7E008EE9
:10134B000A750B007493250AF58274F6350BF58339
:10135B007400F00E850882850983E0C0E08E087565
:10136B00090074932508F58274F63509F583D0E0EE
:10137B00F00E90F72078081209D2E4C509F508E5BC
:10138B0008C0E08E0875090074932508F58274F681
:10139B003509F583D0E0F00E90F72078081209D2CA
:1013AB00E508C0E08E0875090074932508F5827472
:1013BB00F63509F583D0E0F00E90F728780812097E
:1013CB00D2E4C509F508E508C0E08E08750900747C
:1013DB00932508F58274F63509F583D0E0F00E906D
:1013EB00F72878081209D2E508C0E08E08750900C5
:1013FB0074932508F58274F63509F583D0E0F00E69
:10140B0090F812E0F8A3E0F9E4C9F8E8C0E08E0820
:10141B0075090074932508F58274F63509F583D0A8
:10142B00E0F00E90F812E0F8A3E0F9E8C0E08E08C7
:10143B0075090074932508F58274F63509F583D088
:10144B00E0F00E90F81AE0F8A3E0F9E4C9F8E8C070
:10145B00E08E0875090074932508F58274F635093A
:10146B00F583D0E0F00E90F81AE0F8A3E0F9E8C0AD
:10147B00E08E0875090074932508F58274F635091A
:10148B00F583D0E0F00E90F818E0F8A3E0F9E4C98A
:10149B00F8E8C0E08E0875090074932508F582748E
:1014AB00F63509F583D0E0F00E90F818E0F8A3E0DC
:1014BB00F9E8C0E08E0875090074932508F582746D
:1014CB00F63509F583D0E0F00E90F81CE0F8A3E0B8
:1014DB00F9E4C9F8E8C0E08E087509007493250893
:1014EB00F58274F63509F583D0E0F00E90F81CE028
:1014FB00F8A3E0F9E8C0E08E08750900749325089D
:10150B00F58274F63509F583D0E0F00E90F75B7831
:10151B000C1209D290FA9A78081209D2780C790831
:10152B001203DB780C1202A5AA0CAB0DEAF8EBF94F
:10153B00E4C9F8E8C0E08E0875090074932508F536
:10154B008274F63509F583D0E0F00EEAC0E08E0820
:10155B0075090074932508F58274F63509F583D067
:10156B00E0F00E90FA8DE0C0E08E087509007493E0
:10157B002508F58274F63509F583D0E0F00E90F767
:10158B0066E0FA90F765E0C333F990F764E0333324
:10159B0054FCF890F763E033333354F848494AC0AE
:1015AB00E08E0875090074932508F58274F63509E9
:1015BB00F583D0E0F00E74FF2E90F693F0EEF879F1
:1015CB000090F713E8F0A3E9F0123E07021F0C7E20
:1015DB00008E0A750B007493250AF58274F6350B91
:1015EB00F5837400F00E850882850983E0C0E08ED8
:1015FB000875090074932508F58274F63509F5838F
:10160B00D0E0F00E90F71FE0C0E08E087509007473
:10161B00932508F58274F63509F583D0E0F00E902A
:10162B00F8B0E0C0E08E0875090074932508F582C8
:10163B0074F63509F583D0E0F00E90F8B1E0C0E018
:10164B008E0875090074932508F58274F63509F533
:10165B0083D0E0F00E90F8B2E0C0E08E0875090080
:10166B0074932508F58274F63509F583D0E0F00EF6
:10167B0090F8B3E0C0E08E0875090074932508F567
:10168B008274F63509F583D0E0F00E90F8B4E0C023
:10169B00E08E0875090074932508F58274F63509F8
:1016AB00F583D0E0F00E90F8B5E0C0E08E08750938
:1016BB000074932508F58274F63509F583D0E0F0B4
:1016CB000E90F8B6E0C0E08E0875090074932508FB
:1016DB00F58274F63509F583D0E0F00E90F8B7E09B
:1016EB00C0E08E0875090074932508F58274F635F1
:1016FB0009F583D0E0F00E90F8B8E0C0E08E0875E5
:10170B00090074932508F58274F63509F583D0E04A
:10171B00F00E90F8B9E0C0E08E08750900749325BF
:10172B0008F58274F63509F583D0E0F00E90F8BA1F
:10173B00E0C0E08E0875090074932508F58274F6F5
:10174B003509F583D0E0F00E90F8BBE0C0E08E08D1
:10175B0075090074932508F58274F63509F583D065
:10176B00E0F00E90F8BCE0C0E08E087509007493B1
:10177B002508F58274F63509F583D0E0F00E90F864
:10178B00BDE0C0E08E0875090074932508F58274DE
:10179B00F63509F583D0E0F00E90F8BEE0C0E08E90
:1017AB000875090074932508F58274F63509F583DD
:1017BB00D0E0F00E90F8BFE0C0E08E087509007421
:1017CB00932508F58274F63509F583D0E0F00E9079
:1017DB00F8C0E0C0E08E0875090074932508F58207
:1017EB0074F63509F583D0E0F00E90F8C1E0C0E057
:1017FB008E0875090074932508F58274F63509F582
:10180B0083D0E0F00E74FF2E90F693F0EEF8790093
:10181B0090F713E8F0A3E9F0123E07021F0C7414C3
:10182B006C700374006D6003021F0C7E01850882CF
:10183B00850983A3E0F890F71FE068600312361C5C
:10184B008E0A750B00E508250AF582E509350BF5BF
:10185B0083E090F71FF00E8E0A750B00E508250A42
:10186B00F582E509350BF583E090F8B0F00E8E0AA2
:10187B00750B00E508250AF582E509350BF583E0C4
:10188B0090F8B1F00E8E0A750B00E508250AF5826B
:10189B00E509350BF583E090F8B2F00E8E0A750B67
:1018AB0000E508250AF582E509350BF583E090F88C
:1018BB00B3F00E8E0A750B00E508250AF582E509D3
:1018CB00350BF583E090F8B4F00E8E0A750B00E53E
:1018DB0008250AF582E509350BF583E090F8B5F09C
:1018EB000E8E0A750B00E508250AF582E509350B06
:1018FB00F583E090F8B6F00E8E0A750B00E508251F
:10190B000AF582E509350BF583E090F8B7F00E8EFA
:10191B000A750B00E508250AF582E509350BF583F9
:10192B00E090F8B8F00E8E0A750B00E508250AF565
:10193B0082E509350BF583E090F8B9F00E8E0A7548
:10194B000B00E508250AF582E509350BF583E090D8
:10195B00F8BAF00E8E0A750B00E508250AF582E53C
:10196B0009350BF583E090F8BBF00E8E0A750B0072
:10197B00E508250AF582E509350BF583E090F8BCFF
:10198B00F00E8E0A750B00E508250AF582E5093580
:10199B000BF583E090F8BDF00E8E0A750B00E50891
:1019AB00250AF582E509350BF583E090F8BEF00EBC
:1019BB008E0A750B00E508250AF582E509350BF54E
:1019CB0083E090F8BFF00E8E0A750B00E508250A30
:1019DB00F582E509350BF583E090F8C0F00E8E0A21
:1019EB00750B00E508250AF582E509350BF583E053
:1019FB0090F8C1F00E021F0C7E008E0A750B00745E
:101A0B0093250AF58274F6350BF5837400F00E8579
:101A1B000882850983E0C0E08E0875090074932560
:101A2B0008F58274F63509F583D0E0F00E90FA8D47
:101A3B00E0C0E08E0875090074932508F58274F6F2
:101A4B003509F583D0E0F00E7900021B0289087589
:101A5B00090074802508F58274F83509F583E0A236
:101A6B00E0E433F50875090074077808120AEFE90A
:101A7B00FA7B00EA75F002A4CAA8F075F000A4285E
:101A8B00F875F002EBA428FB74202AF58274F83B5E
:101A9B00F583E0FAA3E0FBE4CBFAEA54014508C076
:101AAB00E08E0875090074932508F58274F63509E4
:101ABB00F583D0E0F00EE9FA7B00EA75F002A4CAD8
:101ACB00A8F075F000A428F875F002EBA428FB74BD
:101ADB00202AF58274F83BF583E0FAA3E0FBEAC019
:101AEB00E08E0875090074932508F58274F63509A4
:101AFB00F583D0E0F00E09E9C394105003021A5895
:101B0B0074FF2E90F693F0EEF8790090F713E8F04F
:101B1B00A3E9F0123E07021F0C7E008E0A750B0024
:101B2B007493250AF58274F6350BF5837400F00E69
:101B3B00850882850983E0C0E08E087509007493DF
:101B4B002508F58274F63509F583D0E0F00E90FA8E
:101B5B008DE0C0E08E0875090074932508F582743A
:101B6B00F63509F583D0E0F00E7900021C238908C5
:101B7B0075090074902508F58274F83509F583E032
:101B8B00A2E0E433F50875090074077808120AEF30
:101B9B00E9FA7B00EA75F002A4CAA8F075F000A47C
:101BAB0028F875F002EBA428FB74402AF58274F830
:101BBB003BF583E0FAA3E0FBE4CBFAEA54014508DA
:101BCB00C0E08E0875090074932508F58274F6350C
:101BDB0009F583D0E0F00EE9FA7B00EA75F002A478
:101BEB00CAA8F075F000A428F875F002EBA428FB46
:101BFB0074402AF58274F83BF583E0FAA3E0FBEA24
:101C0B00C0E08E0875090074932508F58274F635CB
:101C1B0009F583D0E0F00E09E9C394105003021BC1
:101C2B007974FF2E90F693F0EEF8790090F713E8A5
:101C3B00F0A3E9F0123E07021F0C7E008E0A750B13
:101C4B00007493250AF58274F6350BF5837400F056
:101C5B000E850882850983E0C0E08E087509007443
:101C6B00932508F58274F63509F583D0E0F00E90D4
:101C7B00FA8DE0C0E08E0875090074932508F58293
:101C8B0074F63509F583D0E0F00E7900021D448916
:101C9B000875090074A02508F58274F83509F583D9
:101CAB00E0A2E0E433F50875090074077808120A1E
:101CBB00EFE9FA7B00EA75F002A4CAA8F075F00010
:101CCB00A428F875F002EBA428FB74602AF5827443
:101CDB00F83BF583E0FAA3E0FBE4CBFAEA547F454B
:101CEB0008C0E08E0875090074932508F58274F618
:101CFB003509F583D0E0F00EE9FA7B00EA75F002C6
:101D0B00A4CAA8F075F000A428F875F002EBA4287B
:101D1B00FB74602AF58274F83BF583E0FAA3E0FBD1
:101D2B00EAC0E08E0875090074932508F58274F6F5
:101D3B003509F583D0E0F00E09E9C3941050030286
:101D4B001C9A74FF2E90F693F0EEF8790090F7132F
:101D5B00E8F0A3E9F0123E07021F0C7E008E0A7515
:101D6B000B007493250AF58274F6350BF58374001A
:101D7B00F00E850882850983E0C0E08E0A750B00A2
:101D8B007493250AF58274F6350BF583D0E0F00ECB
:101D9B00850882850983E0F87900E8540FF8E95447
:101DAB0000F9740728F58274F839F583E0C0E08EEA
:101DBB000A750B007493250AF58274F6350BF583BF
:101DCB00D0E0F00E7900021EB9850882850983E008
:101DDB00FA7B00EA540FFAEB5400FBEA75F010A4FF
:101DEB00CAA8F075F000A428F875F010EBA428FB36
:101DFB00E9FC7D00EC75F002A4CCA8F075F000A412
:101E0B0028F875F002EDA428FD745F2CFC74F73DE7
:101E1B00FDEC2AF582ED3BF583E0F50AA3E0F50B2B
:101E2B007408780A120AD0E50AC0E08E0A750B0016
:101E3B007493250AF58274F6350BF583D0E0F00E1A
:101E4B00850882850983E0FA7B00EA540FFAEB548C
:101E5B0000FBEA75F010A4CAA8F075F000A428F8EE
:101E6B0075F010EBA428FBE9FC7D00EC75F002A4E7
:101E7B00CCA8F075F000A428F875F002EDA428FDAD
:101E8B00745F2CFC74F73DFDEC2AF582ED3BF5837A
:101E9B00E0FAA3E0FBEAC0E08E0A750B0074932511
:101EAB000AF58274F6350BF583D0E0F00E09E9C321
:101EBB0094085003021DD474FF2E90F693F0EEF8A5
:101ECB00790090F713E8F0A3E9F0123E0780327423
:101EDB00026C700374006D7028850882850983A3DA
:101EEB00E0F87900E875F00AA4C8AAF075F000A430
:101EFB002AFA75F00AE9A42AF990F81AE8F0A3E98E
:101F0B00F07F08020BEE74F8120B8879007E007FCD
:101F1B000080050EEE70010FC3EE9CEF9D5025EA7D
:101F2B002EF582EB3FF583E0C969C978088005E996
:101F3B00C333F918E860DCE9A2E750F3E9C3336473
:101F4B009BF980EF7F01020BEE74F7120B887C007C
:101F5B007D00802DECFAEDFBEA75F002A4CAAEF021
:101F6B0075F000A42EFE75F002EBA42EFB74FF2A75
:101F7B00F58274F13BF583E8F0A3E9F00CEC70010A
:101F8B000DC3EC9400ED9401505578007900ECFAF8
:101F9B00EDFBE4CAFB7E007F008011E828F8E933F3
:101FAB00F9EA2AFAEB33FB0EEE70010FC3EE94083D
:101FBB00EF9400509FE86AF508E96BF509E50854C2
:101FCB0000F508E5095480F509E508450960CCE8FA
:101FDB0028F8E933F9E86421F8E96410F980C27F45
:101FEB0002020BEE74F5120B88EAFEEBFF7AFF7B15
:101FFB00FF7508007509008054EE2508F582EF3552
:10200B0009F583E0F50A750B00EAF8EBF9E4C9F87A
:10201B00E8650AF8E9650BF9E4CAFBE875F002A478
:10202B00C885F00A75F000A4250AF50A75F002E9D7
:10203B00A4250AF974FF28F58274F139F583E06A57
:10204B00FAA3E06BFB0508E50870020509C3E50878
:10205B009CE5099D40A37F04020BEEE9FB7900EBA5
:10206B006AFC7800800BECA2E0500109ECC313FC76
:10207B0008E8C3940640EF2274F4120B8874F01234
:10208B000B02890890FA7DAC10AD117410120A1571
:10209B007E077F00750900750C008033850C0A756F
:1020AB000B00851082851183E582250AF582E58375
:1020BB00350BF583E0FAA908122066E9F87900C31D
:1020CB00EE98EF995007850C09E8FEE9FF050CE542
:1020DB000CC3941040C6A9097410120B187F05028B
:1020EB000BEEE9F8E8602F14602F14602F14602FAB
:1020FB0014602F14602F14602F14602F14602F1492
:10210B00602F14602F14602F14602F14602F146035
:10211B002F14602F80307915227931227932227970
:10212B002322793422792522792622791622791ACB
:10213B0022791922792A22790B22792C22790D22E4
:10214B00790E22791C2279002274F8120B88E9FE91
:10215B008A828B83EE24F570030221F624FE700332
:10216B0002220414700302220B24F9603114605F05
:10217B0024FD606914605F24FE700302221224F9AF
:10218B00603124FE603B14603F24FC605724FE60EA
:10219B006124FB601014601424FE601E80707400B8
:1021AB00F0790080767401F07900806F7402F07919
:1021BB000080687403F0790080617404F07900800A
:1021CB005A7405F0790080537406F07900804C74D2
:1021DB0007F0790080457408F07900803E7409F0AF
:1021EB0079008037740AF079008030740BF0790035
:1021FB008029740CF079008022740DF07900801B1B
:10220B00740EF079008014740FF07900800DEEF9E4
:10221B00122083E9C0E0D0E0F079017F01020BEEE0
:10222B0074F1120B8874FC120B02851082851183DA
:10223B00EAF0A3EBF07402120B6CECF0A3EDF0746C
:10224B0015120B6CE0F50EA3E0F50F850E82850FD2
:10225B00837400F0A37400F07E007F007508007596
:10226B000900750A00750B00022339851082851150
:10227B0083E028FAA3E0398A82F583E0540FF91240
:10228B0020EDE9F985080C85090D7406780C120A06
:10229B00EF850C08850D09890C750D00E50C4508BB
:1022AB00F508E50D4509F509EE2406FEEF3400FFB0
:1022BB00C3EE9408EF9400A2D265D0334068850832
:1022CB000C85090DEE24F8780C120AD0E50CF9E90F
:1022DB00C0E0850E82850F83E0F8A3E0F97413123A
:1022EB000B6CE028FAA3E0398A82F583D0E0F08505
:1022FB000E82850F83E02401F0A3E03400F0EE247E
:10230B00F8FEEF34FFFF750C01750D00EE780C1223
:10231B000AEFE50C24FFF8E50D34FFF9E85508F555
:10232B0008E95509F509050AE50A7002050B74025F
:10233B00120B6CE0F8A3E0F9E875F002A4C8AAF060
:10234B0075F000A42AFA75F002E9A42AF9C3E50A8C
:10235B0098E50B995049A80AA90BE9C313F9E8139F
:10236B00F8E8FAE9FBEA75F002A4CAACF075F000E4
:10237B00A42CFC75F002EBA42CFBE50A6A7003E5B8
:10238B000B6B6003022276851082851183E028FA9D
:10239B00A3E0398A82F583E0C4540FF902228AEE56
:1023AB004F6067750A01750B00EE780A120AEFE5AC
:1023BB000A24FFF8E50B34FFF9E85508F508E95551
:1023CB0009F50985080A85090B7408C39E780A125A
:1023DB000AEF850A08850B09E508F9E9C0E0850EC7
:1023EB0082850F83E0F8A3E0F97413120B6CE028DD
:1023FB00FAA3E0398A82F583D0E0F0850E82850F4F
:10240B0083E02401F0A3E03400F07404120B187F76
:10241B0008020BEE74F2120B8874F9120B0274059E
:10242B00120B6CEAF0A3EBF07403120B6CECF0A341
:10243B00EDF0750800750900750E00750B00740141
:10244B00120B6C7400F0A37400F00224F08E0C8F4E
:10245B000DE50824FA780C120AD0E50CC0E08510C3
:10246B0082851183D0E0F0851082851183E0543F83
:10247B00F0AA10AB11851082851183E0F91221545B
:10248B00E9E50AC454F0F50A530AF0851082851168
:10249B0083E0420A630E01E50E701DE50AC0E0E51C
:1024AB000BF879007415120B6CE028FAA3E0398A4B
:1024BB0082F583D0E0F0050BE50824FAF508E50971
:1024CB0034FFF509C3E5089406E5099400A2D2652B
:1024DB00D03340030224587401120B6CE02401F03A
:1024EB00A3E03400F07401120B6CC082C083740340
:1024FB00120B6CE0F8A3E0F9D083D082C3E098A371
:10250B00E0995034E4CEFF7401120B6CE0F8A3E0B9
:10251B00F97405120B6CE028FAA3E0398A82F58373
:10252B00E0F87900E84EFEE94FFFE5082408F508CE
:10253B00E5093400F509808CE50BF8790074171266
:10254B000B6CE0FAA3E0F5838A82E8F0A3E9F07460
:10255B0007120B187F07020BEE74F1120B8874FD38
:10256B00120B027401120B6CECF0A3EDF0E9C0E05E
:10257B00851082851183D0E0F0EAFEEBFF85108297
:10258B00851183E06003022A888E828F83E064AA20
:10259B00600C8E828F83E064AB6003022859740158
:1025AB00120B6CE064227004A3E064006003022849
:1025BB00598E828F83A3A3E0F890F8B0E068702166
:1025CB008E828F83A3A3A3E0F890F8B1E06870111B
:1025DB008E828F83A3A3A3A3E0F890F8B2E0686088
:1025EB00698E828F83A3A3E0F890F8B3E068702123
:1025FB008E828F83A3A3A3E0F890F8B4E0687011E8
:10260B008E828F83A3A3A3A3E0F890F8B5E0686054
:10261B00398E828F83A3A3E0F890F8B6E06860034D
:10262B0002299C8E828F83A3A3A3E0F890F8B7E0D6
:10263B0068600302299C8E828F83A3A3A3A3E0F877
:10264B0090F8B8E068600302299C90F71DE0FCA3AA
:10265B00E0FD90FA8DE0FA8E828F83A3A3A3A3A350
:10266B00A3A3A3E0F912555890FA8DE054F0F88E1D
:10267B00828F83A3A3A3A3A3A3A3A3E054F06870A7
:10268B00030228458E828F83A3A3A3A3A3A3A3A393
:10269B00E090FA8DF08E828F83A3A3E090F71AF06F
:1026AB008E828F83A3A3A3E090F71BF08E828F8380
:1026BB00A3A3A3A3E090F71CF08E828F83A3A3A305
:1026CB00A3A3A3A3A3A3E0F87900E875F000A4C823
:1026DB00AAF075F001A42AFA75F000E9A42AF98E84
:1026EB00828F83A3A3A3A3A3A3A3A3A3A3E0FA7B98
:1026FB0000E82AFAE93BFBEB3395E0FCFD90F72869
:10270B00EAF0A3EBF0A3ECF0A3EDF0EE240BF582D3
:10271B00E43FF583E0F87900E875F000A4C8AAF06F
:10272B0075F001A42AFA75F000E9A42AF9EE240C3D
:10273B00F582E43FF583E0FA7B00E82AFAE93BFBFC
:10274B00EB3395E0FCFD90F72CEAF0A3EBF0A3EC58
:10275B00F0A3EDF08E828F83A3A3A3A3A3A3A3E087
:10276B0090F756F090F756E0F990F7281209F0120F
:10277B002B86EAF8EBF9ECFAEDFB90F7571209FC14
:10278B0090F7647401F08E828F83A3A3A3A3A3A3FA
:10279B00A3A3E0A2E0503B8E828F83A3A3A3A3A3AA
:1027AB00A3A3A3E0F912545390F812EAF0A3EBF0B1
:1027BB0090F812E0F8A3E0F9E849700A90F8127467
:1027CB0032F0A37400F090F81A741EF0A37400F0AA
:1027DB00804790F8127400F0A37400F08E828F8300
:1027EB00A3A3A3A3A3A3A3A3E04401F9125453905F
:1027FB00F81AEAF0A3EBF090F81AE0F8A3E0F9E886
:10280B0049700A90F81A74C8F0A37400F090F81A83
:10281B00E0241EF0A3E03400F090F8167400F0A34F
:10282B007400F090F818C3E094DCA3E09405400A20
:10283B0090F81874B8F0A3740BF08E828F83A3A357
:10284B00A3A3A3A3A3A3E090FA8DF002299C8E82ED
:10285B008F83E064A2600302299C8E828F83A3E0A6
:10286B00F890F8B9E068600302299C8E828F83A3ED
:10287B00A3E0F890F8BAE068600302299C8E828F7F
:10288B0083A3A3A3E0F890F8BBE068600302299C44
:10289B008E828F83A3A3A3A3E06404600302299C0D
:1028AB008E828F83A3A3A3A3A3E0F890F3FFE0682A
:1028BB00700302299C90F763E0600302299C8E82CF
:1028CB008F83A3A3A3A3A3E090F3FFF0EE240EF555
:1028DB0082E43FF583E0F508750900E5082508F566
:1028EB0008E50933F509E5093395E0F50AF50BEE33
:1028FB00241DF582E43FF583E0A2E0E433F50C758B
:10290B000D00E50D3395E0F50EF50F7808790C12F7
:10291B000994EE2419F582E43FF583E090F761F01A
:10292B00EE241AF582E43FF583E090F762F090FA1B
:10293B009E78081201C8505990F72078081209E1C7
:10294B00EE240FF582E43FF583E0FA7B00EA2AFAE6
:10295B00EB33FBEB3395E0FCFD90F724EAF0A3EBB4
:10296B00F0A3ECF0A3EDF0EE241DF582E43FF5832C
:10297B00E0A2E1E433F508750900E5093395E0F5CC
:10298B000AF50B90F72478081209A790F7637401E6
:10299B00F08E828F83E064A56003022A6E740112AD
:1029AB000B6CE064077004A3E064006003022A6E02
:1029BB008E828F83A3E0F890F8BCE068701F8E8244
:1029CB008F83A3A3E0F890F8BDE06870108E828F20
:1029DB0083A3A3A3E0F890F8BEE068602D8E828FEE
:1029EB0083A3E0F890F8BFE06870788E828F83A3A2
:1029FB00A3E0F890F8C0E06870698E828F83A3A380
:102A0B00A3E0F890F8C1E068705990F81EE0F8A3C5
:102A1B00E0F9E849704D90F81E74C8F0A37400F00B
:102A2B008E828F83A3A3A3A3E0A2E0E433F8790003
:102A3B00E875F000A4C8AAF075F001A42AFA75F0A5
:102A4B0000E9A42AF98E828F83A3A3A3A3A3E0FAA0
:102A5B007B00E82AF8E93BF990F754E8F0A3E9F09A
:102A6B001232AF90F764E06401701290F763E06488
:102A7B0001700A90F81A7400F0A37400F07403123A
:102A8B000B187F08020BEE74F1120B8890F764E0C1
:102A9B0064016003022B8190F763E0640160030221
:102AAB002B8190FA9E78081209D290F720780812A1
:102ABB0001B85003022B8190F72078081209D278C5
:102ACB000812023D90F757780C1209D27808790C4E
:102ADB0012079A90F761E0F890F75FE068700C903E
:102AEB00F762E0F890F760E068602090F761E090A3
:102AFB00F75FF090F762E090F760F090F4007403EA
:102B0B00F0A37400F090F4027400F090F400E0F87D
:102B1B00A3E0F9E849600E90F400E024FFF0A3E095
:102B2B0034FFF0803F90F720780C1209D290F40319
:102B3B00E0F8A3E0F9E50CC398FAE50D99FB90F4E6
:102B4B0002E0702090F75B78081209E1EAC394F772
:102B5B00F8EB94FFF9C3E89413E99400500690F452
:102B6B00027401F090F72078081209D290F403E573
:102B7B0008F0A3E509F07F08020BEE74F1120B8845
:102B8B0074F8120B027404120B6CEAF0A3EBF0A3B3
:102B9B00ECF0A3EDF0E9FE7404120B6C780812094B
:102BAB00D2780812022290FAA2780C1209D2780875
:102BBB00790C12079AC008C009C00AC00B74041222
:102BCB000B6C780C1209D2780C12022290FAA678B0
:102BDB00081209D2780C79081203DBD00BD00AD07B
:102BEB0009D0087808790C12055B85108285118352
:102BFB0078081209E18E08E4F509F50AF50B780857
:102C0B0012023D7404120B6C780C1209D2780C1260
:102C1B0002227808790C1203DBC008C009C00AC075
:102C2B000B7404120B6C78081209D278081202226A
:102C3B0090FAAA780C1209D27808790C1203DB905F
:102C4B00FAAE780C1209D27808790C12079A90FA1E
:102C5B00B2780C1209D27808790C120580D00FD0FB
:102C6B000ED00DD00C780C79081203DB8510828501
:102C7B00118378081209D2780C7908120580851017
:102C8B0082851183780C1209E185108285118312DC
:102C9B0009F07408120B187F08020BEEC082C08378
:102CAB00122A92122CC5122F6990F7637400F090C0
:102CBB00F7647400F0D083D0822274F1120B887AFF
:102CCB000F8079EAF87900E875F002A4C8ABF075CB
:102CDB00F000A42BFB75F002E9A42BF9741E28F568
:102CEB008274F839F583E0FCA3E0FDEAF87900E89B
:102CFB0075F002A4C8ABF075F000A42BFB75F002C5
:102D0B00E9A42BF9742028F58274F839F583ECF0DB
:102D1B00A3EDF08A08750900747F2508F58274F815
:102D2B003509F583E0C0E08A087509007480250831
:102D3B00F58274F83509F583D0E0F01AEA708490C7
:102D4B00F763E06401703890F72078081209D2908D
:102D5B00F820E508F0A3E509F090F8807401F090F5
:102D6B00F881E0702A90F72478081209D290F822A3
:102D7B00E508F0A3E509F090F8817401F08010905C
:102D8B00F8207400F0A37400F090F8807400F07ACF
:102D9B000F8079EAF87900E875F002A4C8ABF075FA
:102DAB00F000A42BFB75F002E9A42BF9743E28F577
:102DBB008274F839F583E0FCA3E0FDEAF87900E8CA
:102DCB0075F002A4C8ABF075F000A42BFB75F002F4
:102DDB00E9A42BF9744028F58274F839F583ECF0EB
:102DEB00A3EDF08A08750900748F2508F58274F835
:102DFB003509F583E0C0E08A087509007490250851
:102E0B00F58274F83509F583D0E0F01AEA708490F6
:102E1B00F764E064016003022F4490F757780812BF
:102E2B0009D290F75B780C1209D27808790C12034F
:102E3B00DB780812029A90F75078081209E190F7A4
:102E4B005078081209D290F840E508F0A3E509F094
:102E5B0090F72878081209D290F860E508F0A3E5FE
:102E6B0009F090F75B78081209D290FAB6780C1239
:102E7B0009D27808790C12038C5004740180027407
:102E8B000090F890F090F8A07401F090F8A1E06039
:102E9B0003022F6490F756E0F990F72C1209F01209
:102EAB002B868A088B098C0A8D0B90F75B780C129A
:102EBB0009D27808790C1203DB780812029A90F782
:102ECB005078081209E190F75078081209D290F85F
:102EDB0042E508F0A3E509F090F75B78081209D2F8
:102EEB0090FAB6780C1209D27808790C12038C5030
:102EFB000474018002740090F891F090F72C78081C
:102F0B001209D290F862E508F0A3E509F090F8A158
:102F1B007401F090F75778081209D290F75B780C90
:102F2B001209D27808790C1203DB780812029A90F6
:102F3B00F75078081209E1802090F8407400F0A354
:102F4B007400F090F8607400F0A37400F090F890A7
:102F5B007400F090F8A07400F07F08020BEE74F58B
:102F6B00120B887A007B0090F71AE0F890F8B0E02B
:102F7B0068701D90F71BE0F890F8B1E06870119045
:102F8B00F71CE0F890F8B2E0687005750900805501
:102F9B0090F71AE0F890F8B3E068701D90F71BE01B
:102FAB00F890F8B4E068701190F71CE0F890F8B561
:102FBB00E0687005750901802C90F71AE0F890F81D
:102FCB00B6E068701D90F71BE0F890F8B7E06870FA
:102FDB001190F71CE0F890F8B8E0687005750902DD
:102FEB00800375090378007900E509C39403400356
:102FFB000230B690FA8DE0C4540FFE7F00EE75F0F0
:10300B0002A4CEACF075F000A42CFC75F002EFA47A
:10301B002CFFE509FC7D00EC75F010A4CC85F008C5
:10302B0075F000A42508F50875F010EDA42508FD32
:10303B0074DF2CFC74F73DFDEC2EF582ED3FF58330
:10304B00C3E09401A3E09400A2D265D033405C901E
:10305B00F812E0F8A3E0F990FA8DE0C4540FFE7F6C
:10306B0000EE75F002A4CEACF075F000A42CFC754C
:10307B00F002EFA42CFFE509FC7D00EC75F010A429
:10308B00CC85F00875F000A42508F50875F010ED57
:10309B00A42508FD74DF2CFC74F73DFDEC2EF582A6
:1030AB00ED3FF583E028F8A3E039F990F763E0648E
:1030BB0001600B90F764E0640160030232AA749321
:1030CB002AF58274F63BF5837400F00AEA70010B63
:1030DB0074932AF58274F63BF5837401F00AEA7057
:1030EB00010B90F764E0FC75F00290F763E0A42C01
:1030FB00C0E074932AF58274F63BF583D0E0F00AB6
:10310B00EA70010BE8FCE9FDE4CDFCECC0E0749344
:10311B002AF58274F63BF583D0E0F00AEA70010BD6
:10312B00E8C0E074932AF58274F63BF583D0E0F0A7
:10313B000AEA70010B90F763E06401704390F7208B
:10314B0078081209D2E4C509F508E508C0E07493C4
:10315B002AF58274F63BF583D0E0F00AEA70010B96
:10316B0090F72078081209D2E508C0E074932AF58D
:10317B008274F63BF583D0E0F00AEA70270B8024CB
:10318B0074932AF58274F63BF5837400F00AEA70A7
:10319B00010B74932AF58274F63BF5837400F00AE5
:1031AB00EA70010B90F764E06401600302323E9019
:1031BB00F75078081209D2E4C509F508E508C0E014
:1031CB0074932AF58274F63BF583D0E0F00AEA702B
:1031DB00010B90F75078081209D2E508C0E0749300
:1031EB002AF58274F63BF583D0E0F00AEA70010B06
:1031FB0090F72878081209D2E4C509F508E508C04C
:10320B00E074932AF58274F63BF583D0E0F00AEA7A
:10321B0070010B90F72878081209D2E508C0E0740A
:10322B00932AF58274F63BF583D0E0F00AEA704BF3
:10323B000B804874932AF58274F63BF5837400F087
:10324B000AEA70010B74932AF58274F63BF58374CA
:10325B0000F00AEA70010B74932AF58274F63BF5C1
:10326B00837400F00AEA70010B74932AF58274F6EA
:10327B003BF5837400F00AEA70010B74932AF58214
:10328B0074F63BF58374FFF00AEA70010BEA24FF36
:10329B0090F693F090F713EAF0A3EBF0123E077F52
:1032AB0004020BEEC082C08378007900749328F57A
:1032BB008274F639F5837400F008E8700109749391
:1032CB0028F58274F639F5837402F008E870010969
:1032DB0090F754E0FAA3E0FBE4CBFAEAC0E0749376
:1032EB0028F58274F639F583D0E0F008E87001090F
:1032FB0090F754E0FAA3E0FBEAC0E0749328F58260
:10330B0074F639F583D0E0F008E8700109E824FF82
:10331B0090F693F090F713E8F0A3E9F0123E07D084
:10332B0083D0822274F7120B88E9FEEE600302341D
:10333B008F8A828B83E064A2600302348F8A828B34
:10334B0083A3E0F890F8B9E068600302348F8A82B7
:10335B008B83A3A3E0F890F8BAE068600302348F84
:10336B008A828B83A3A3A3E0F890F8BBE068600389
:10337B0002348F8A828B83A3A3A3A3E024FC601067
:10338B0024FC600C14600914600614600302348F73
:10339B0090F58D74A2F08A828B83A3E090F58EF06A
:1033AB008A828B83A3A3E090F58FF08A828B83A311
:1033BB00A3A3E090F590F090F5917406F08A828BC0
:1033CB0083A3A3A3A3A3E0547F90F592F08A828BEF
:1033DB0083A3E090F593F08A828B83A3A3E090F50F
:1033EB0094F08A828B83A3A3A3E090F595F090F5DC
:1033FB00967400F08A828B83A3A3A3A3E090F59726
:10340B00F08A828B83A3A3A3A3E024F8601B146030
:10341B000814600D14601A802090F598740AF080DF
:10342B001E90F5987408F0801690F598740BF08048
:10343B000E90F5987404F0800690F5987400F09057
:10344B00F5997400F090F59A7400F07C0E7D007A7B
:10345B008D7BF5121F11E990F59BF090F60D740F13
:10346B00F0A37400F07508017509007808120CE9D7
:10347B0090F60DE0FCA3E0FD7A8D7BF51241ED7427
:10348B0002120B187F02020BEED2AF22C2AF22A2A6
:10349B00AFE433FA7B00C2AF22EAF8EAA2E092AFC4
:1034AB0022EBC313FBEA13FAC3EA9402EB9400403A
:1034BB001400000000000000000000EA24FFFAEBFB
:1034CB0034FFFB80E32274F8120B88EAFEEBFFEE6D
:1034DB00F8EFF9E824FFFEE934FFFFE84960097AC9
:1034EB00E87B031234AC80E77F01020BEE74F5121C
:1034FB000B88E9FE7A057BF4127B087A887BF41241
:10350B007B08EE24FC6005146010801C75080075A8
:10351B000996750A00750B00801A7508007509E18C
:10352B00750A00750B00800C7508007509C2750AC9
:10353B0001750B00AA08AB09AC0AAD0B1279117F10
:10354B0004020BEE74F5120B888A828B838C088D28
:10355B00097E007F00800B750B00EE250AFEEF3510
:10356B000BFFC3EE9508EF95095043EEF8E508C342
:10357B0098F9E5822EFCE5833FFD7A887BF4127B7C
:10358B0048E9F50AE50A70CF7A057B001234D1EED3
:10359B00F8E508C398F9E5822EFCE5833FFD7A88B0
:1035AB007BF4127B48E9250AF50AE50A70A9EEFAC5
:1035BB00EFFB7F04020BEE02354FC008ECF9EAFC7F
:1035CB00EBFD7A057BF4127C098908AA087B00D0F5
:1035DB000822C0087A057BF4127CAE8908AA087B06
:1035EB0000D00822E5F4A2E0E433F5F453F402C270
:1035FB0090C29143FE0143FE022253BEFBE5BEA2E5
:10360B00E650FA0053C6C053C68043C62843BE04D7
:10361B0022C082C083E5E1F875E10490DF0074FFFE
:10362B00F090DF017400F090DF0274FFF090DF0385
:10363B007400F090DF047400F090DF057400F090DC
:10364B00DF067400F090DF077406F090DF0874005B
:10365B00F090F71FE0701490DF097424F090DF0AEC
:10366B00742EF090DF0B7438F0801290DF09742603
:10367B00F090DF0A7430F090DF0B7400F090DF0CE9
:10368B007459F090DF0D7466F090DF0E7433F09088
:10369B00DF0F7462F090DF10741AF090DF11741367
:1036AB00F090DF127407F090DF137430F090DF149A
:1036BB007418F090DF157417F090DF16746CF0909F
:1036CB00DF177403F090DF187440F090DF197491DA
:1036DB00F090DF1A7456F090DF1B7412F090DF1C21
:1036EB0074E9F090DF1D742AF090DF1E7400F090E7
:1036FB00DF1F741FF090DF237488F090DF24743188
:10370B00F090DF257409F090DF277400F090DF282C
:10371B007400F090DF297400F090DF2A7400F090B1
:10372B00DF2B7400F090DF2C7452F090DF2D7400BF
:10373B00F090DF2E7400F0C2A888E1D083D08222F3
:10374B00E5F154FE4402F5F143F33C75C2A3E5C524
:10375B0054E04408F5C543868053C4FE43C402536A
:10376B00C4FB53C4F753C4EF53C4DF53C4BF53C597
:10377B00DF22C082C083780079007800790080391D
:10378B00740D28F58274F539F5837400F0748D2867
:10379B00F58274F539F5837400F0741328F582748F
:1037AB00F639F5837400F0749328F58274F639F5C5
:1037BB00837400F008E8700109C3E89480E9940071
:1037CB00A2D265D03340B990F60D7400F0A374000B
:1037DB00F090F60F7400F0A37400F090F6117400E3
:1037EB00F0A37400F090F7137400F0A37400F09042
:1037FB00F7157400F0A37400F090F7177400F0A3A2
:10380B007400F090F81274E0F0A3742EF090F8149A
:10381B007400F0A37400F090F8167400F0A3740019
:10382B00F090F7637400F090F71F7400F078007954
:10383B00000238E9E8FAE9FBEA75F002A4CAACF039
:10384B0075F000A42CFC75F002EBA42CFB74202A61
:10385B00F58274F83BF5837400F0A37400F0E8FA7A
:10386B00E9FBEA75F002A4CAACF075F000A42CFCDD
:10387B0075F002EBA42CFB74402AF58274F83BF52F
:10388B00837400F0A37400F0E8FAE9FBEA75F00228
:10389B00A4CAACF075F000A42CFC75F002EBA42CC0
:1038AB00FB74602AF58274F83BF5837400F0A37403
:1038BB0000F0748028F58274F839F5837400F07485
:1038CB009028F58274F839F5837400F074A028F50C
:1038DB008274F839F5837400F008E8700109C3E8C5
:1038EB009410E99400A2D265D033500302383FD034
:1038FB0083D08222C0E074F2120C2E74FE120B02E3
:10390B00758A00C2EB7C017D007800790080210074
:10391B000AEA70010B74FF6A700374FF6B70F0A2FC
:10392B009250087C007D007820790008E87001092E
:10393B00C3E89420E99400A2D265D03350067A00F4
:10394B007B0080D174016C700374006D703D90F935
:10395B00F8E06401701390F9F87400F0D2918510BF
:10396B00828511837413F0801190F9F87401F0C201
:10397B00918510828511837403F090F719E0700B19
:10398B007C017D00AA10AB111235C2758A00C2EA08
:10399B007402120B187F01020C8DC082C083C2907F
:1039AB0090F9F87401F0758A00C2EB438C02758DA7
:1039BB0004D2AF439A10D083D08222C0E074F112AC
:1039CB000C2E758A00C2C190F719E06401600302E6
:1039DB003BB590F812C3E094E0A3E0942E500C900A
:1039EB00F812E02401F0A3E03400F090F81AE0F8AC
:1039FB00A3E0F9E849600C90F81AE024FFF0A3E08B
:103A0B0034FFF090F81EE0F8A3E0F9E849600C9061
:103A1B00F81EE024FFF0A3E034FFF090F812C08210
:103A2B00C08390F816E0F8A3E0F9D083D082C3E00E
:103A3B0098A3E099400312649B7A007B007800798D
:103A4B0000801974BC28F58274F839F583E0FC7D8D
:103A5B0000EA2CFAEB3DFB08E8700109C3E894037C
:103A6B00E9940040DE78007900801974BF28F58254
:103A7B0074F839F583E0FC7D00EA2CFAEB3DFB088A
:103A8B00E8700109C3E89403E9940040DEEA4B6057
:103A9B002190F812E0F8A3E0F97A0A7B00120A777A
:103AAB008A088B09E508450970047A0180067A00BB
:103ABB0080027A0090F50BE090F50CF090F81AE08C
:103ACB00F8A3E0F9E849600B90F50B7401F0D29183
:103ADB00023B7974016A700990F50B7401F0023B9B
:103AEB007990F812C3E094E0A3E0942E400A90F58D
:103AFB000B7401F0D291807690F812C082C0839043
:103B0B00F814E0F8A3E0F9D083D082C3E098A3E0E7
:103B1B0099405390F816C082C08390F812E0F8A336
:103B2B00E0F9D083D082C3E098A3E099403890F7B6
:103B3B0064E06401702690F763E06401701E90FAF4
:103B4B008DE04401F91254538A088B09E5084509A5
:103B5B00600A90F50B7400F0C291801290F50B7413
:103B6B0001F0D291800890F50B7400F0C29190F5A2
:103B7B000BE06401700B90F50CE0700575E10280B1
:103B8B005290F50BE0704C90F50CE06401704475AD
:103B9B00E10490F764E06401600890F763E064016E
:103BAB00703190F7667401F0802990F812E02401CF
:103BBB00F0A3E03400F090F812C3E09400A3E0947B
:103BCB005D401075E10475E10290F8127400F0A3EA
:103BDB007400F07F02020C8D53E4FC75E200C2B955
:103BEB0022C082C08390F8127400F0A37400F075A9
:103BFB00E200D083D08222C082C08390F719E0709C
:103C0B002475E40C75DBFF75DAFF75E20090F81292
:103C1B007400F0A37400F075E544C2C1D2AFD2B901
:103C2B0075E40E801875E40875DB0275DA4975E2E8
:103C3B000075E544C2C1D2AFD2B975E40ED083D0C2
:103C4B008222C0E074F1120C2EC28BE5C1C0E09051
:103C5B00F717E02413F8A3E034F6F988828983D0B0
:103C6B00E0F090F717C3E0947FA3E09400A2D26535
:103C7B00D033500C90F717E02401F0A3E03400F0A0
:103C8B007E01023D1F90F613E0F879008A08750952
:103C9B0000E82508F8E93509F9741428F58274F65B
:103CAB0039F583E0C0E08A0875090074132508F51F
:103CBB008274F63509F583D0E0F00AEAC39B40C560
:103CCB0090F717C082C08390F613E0F87900D08389
:103CDB00D082E0C398F8A3E099F9E8C39401F8E91E
:103CEB009400F990F717E8F0A3E9F090F717E0F8D4
:103CFB00A3E0F9E849601B90F613E0FA7B0090F71C
:103D0B0017E0F8A3E0F9C3EA98EB99A2D265D03398
:103D1B0040027E00EE605490F717C3E09401A3E0DD
:103D2B009400A2D265D03340C290F613E0FA7B0028
:103D3B0090F717E0F8A3E0F9C3EA98EB99A2D265E4
:103D4B00D03350A790F613E0FC7D007A147BF6126B
:103D5B000F5890F613E0FA90F717E0F8A3E0F9E8A4
:103D6B00C39AC39401FB7A00023CC67F02020C8DFE
:103D7B00C0E0C0D0E8C0E0E9C0E0C082C083C2E9C7
:103D8B0090F715C082C08390F713E0F8A3E0F9D049
:103D9B0083D082C3E098A3E099A2D265D033400FC1
:103DAB0090F7157400F0A37400F0539AFB801F90EA
:103DBB00F715E02493F8A3E034F6F988828983E0C1
:103DCB00F5C190F715E02401F0A3E03400F0D083A7
:103DDB00D082D0E0F9D0E0F8D0D0D0E032C082C0B1
:103DEB008390F7177400F0A37400F0C28B5386FB1B
:103DFB00438640D2AFD2AAD083D08222C082C08366
:103E0B0090F7157400F0A37400F0C2E95386FD908F
:103E1B00F715E02493F8A3E034F6F988828983E060
:103E2B00F5C190F715E02401F0A3E03400F0D2AF18
:103E3B00439A04D083D082227582FA7583FE120BCB
:103E4B004E12377D1235EF123605121F5412361CE7
:103E5B001239A590F7197400F012374B123DE87A1E
:103E6B00007B00801308E8700109C3E89437E994DC
:103E7B007F40F20AEA70010BC3EA940FEB940050F7
:103E8B00067800790080E3120D8AE990F719F07A31
:103E9B00007B00801308E8700109C3E89437E994AC
:103EAB007F40F20AEA70010BC3EA9405EB940050D1
:103EBB00067800790080E3D2917A007B00801308AA
:103ECB00E8700109C3E89437E9947F40F20AEA707D
:103EDB00010BC3EA9405EB9400500678007900803F
:103EEB00E3C2917A007B00801308E8700109C3E8F4
:103EFB009437E9947F40F20AEA70010BC3EA940508
:103F0B00EB940050067800790080E3D2917A007B25
:103F1B0000801308E8700109C3E89437E9947F40E7
:103F2B00F20AEA70010BC3EA9405EB940050067891
:103F3B0000790080E3C29190F719E070547A007B0E
:103F4B0000801308E8700109C3E89437E9947F40B7
:103F5B00F20AEA70010BC3EA9405EB940050067861
:103F6B0000790080E3D2917A007B00801308E8701F
:103F7B000109C3E89437E9947F40F20AEA70010B18
:103F8B00C3EA9405EB940050067800790080E3C2F5
:103F9B009190F719E070097A0079051234F8803C9A
:103FAB00124DC7123C028034851082851183E0F9D3
:103FBB007401120B6CE0FCA3E0FD7406120B76127D
:103FCB00332F851082851183E0F97401120B6CE09D
:103FDB00FCA3E0FD7406120B761225647401120B20
:103FEB007E7406120B761242ABE9C0E08510828517
:103FFB001183D0E0F0A810A911880889097808125C
:10400B000CE97403120B7E7408120B761248C774FA
:10401B0002120B187401120B6CE0F8A3E0F9E849DB
:10402B0060BA7A00851082851183E0F890F58DE0F7
:10403B00A2E7E4336870707401120B6CC082C0830A
:10404B0090F60DE024FEF8A3E034FFF9D083D08284
:10405B00E0687003A3E069704E7A017E0080010E68
:10406B008E087509007401120B6CE0F8A3E0F9C31C
:10407B00E50898E50999502F8E087509007406120A
:10408B000B6CE5822508F582E5833509F583E0F8AD
:10409B008E08750900748F2508F58274F53509F5BE
:1040AB0083E06860BA7A0090F719E064017003024C
:1040BB003FB374016A701D7403120B6C7404F07CB3
:1040CB00017D007403120B761235C2127962124510
:1040DB003B023FE7851082851183E0700890F58DD8
:1040EB007402F0800690F58D7482F07401120B6CE3
:1040FB00E0F8A3E0F9E890F58EF07E00802E8E08B4
:10410B007509007406120B6CE5822508F582E583B0
:10411B003509F583E0C0E08E08750900748F25081A
:10412B00F58274F53509F583D0E0F00E8E0875092C
:10413B00007401120B6CE0F8A3E0F9C3E50898E5F5
:10414B00099940BA7401120B6CE02402F8A3E03415
:10415B0000F990F60DE8F0A3E9F07E00802890F6C8
:10416B000D8E08750900E0C39508FCA3E09509FDC9
:10417B008E08750900748D2508FA74F53509FB1244
:10418B0035C274302EFE8E0875090090F60DE0F8DE
:10419B00A3E0F9C3E50898E50999A2D265D03340AD
:1041AB0003023FE790F60D8E08750900E0C39508F2
:1041BB00F8A3E09509F9C3E89431E99400A2D2651C
:1041CB00D033409A7C307D008E08750900748D25A4
:1041DB0008FA74F53509FB1235C212796212453BA8
:1041EB0080A074F7120B887508427509F9780812CC
:1041FB000CE97508C27509F87808120CE912222B24
:10420B007404120B1890F942E0F8A3E0F9E890DF80
:10421B0002F090F719E07003123BE375E1047C00A8
:10422B007D007409120B6CE0FEA3E0FF801600EA20
:10423B0024FFF8EB34FFF9E8FAE9FBE84970EF0CDF
:10424B00EC70010DC3EC9EED9FA2D265D0335036BE
:10425B0075E1037A007B008018A28950FCC2897437
:10426B00C22AF58274F83BF583E0F5D90AEA7001AE
:10427B000B90F942E0F8A3E0F9C3EA98EB9940D927
:10428B007A007B1080A990DF0274FFF075E1047552
:10429B00E10290F719E07003123C027F02020BEE71
:1042AB0074F1120B888A0C8B0D8C0A8D0B75E10443
:1042BB0075E10290DF0274FFF090F94B74FFF09000
:1042CB00F719E07003123C027E007F00805090F7DC
:1042DB0019E07003123BE3E5D9C0E074C22EF582FE
:1042EB0074F83FF583D0E0F074C22EF58274F83F7A
:1042FB00F583E090F94BF0EE4F701C90F812E0F85C
:10430B00A3E0F990F71DE8F0A3E9F090F81AE02488
:10431B000AF0A3E03400F0C2890EEE70010FC3EE79
:10432B009480EF9400500990F94BE060030243DD59
:10433B00EE24FFF8EF34FFF990F942E8F0A3E9F02F
:10434B0075E104780A120CE9780C120CE990F94229
:10435B00E0FCA3E0FD7AC27BF812241F7404120B5D
:10436B0018850A82850B83E024FFFCA3E034FFFD54
:10437B00AA0CAB0D121F11E9FA850A82850B83E09B
:10438B00F8A3E0F9E50C28F8E50D39F9E824FFF579
:10439B0082E934FFF583E06A704D7900024536906F
:1043AB00F766E064017009122CA790F7667400F0B1
:1043BB00E5E9A2E6501C53E9BF90F94B74FFF07E80
:1043CB00007F0075E10475E10290F719E0700312AC
:1043DB003BECA28950030242D990F719E070C0124E
:1043EB00796212453B80C9850A82850B83E024FEE6
:1043FB00FCA3E034FFFDAA0CAB0D121FEF8A088B58
:10440B000985080E85090FA80E850A82850B83E0A6
:10441B00FAA3E0FBE50C2AFAE50D3BFBEA24FFF5DA
:10442B0082EB34FFF583E068702E7408780E120A65
:10443B00D0850A82850B83E0F8A3E0F9E50C28F818
:10444B00E50D39F9E824FEF582E934FFF583E065E3
:10445B000E70057900024536850A82850B83E024B0
:10446B00FEFCA3E034FFFDAA0CAB0D121F11E9FA01
:10447B00850A82850B83E0F8A3E0F9E50C28F8E5C3
:10448B000D39F9E824FEF582E934FFF583E06A7013
:10449B0014850A82850B83E024FFF0A3E034FFF040
:1044AB007900024536850A82850B83E024FDFCA347
:1044BB00E034FFFDAA0CAB0D121FEF8A088B0985A8
:1044CB00080E85090F850E08850A82850B83E0F897
:1044DB00A3E0F9E50C28F8E50D39F9E824FEF5829F
:1044EB00E934FFF583E06508703C7408780E120A16
:1044FB00D0850A82850B83E0F8A3E0F9E50C28F858
:10450B00E50D39F9E824FDF582E934FFF583E06523
:10451B000E7013850A82850B83E024FFF0A3E03431
:10452B00FFF079008005121F5479017F08020BEE12
:10453B0074F3120B887480120B021235DD8A088B10
:10454B000985080A85090B750800750900802DE59A
:10455B000AC39508FCE50B9509FD8510828511832F
:10456B00E5822508FAE5833509FB1235C512796218
:10457B00E5082430F508E5093400F509C3E508958D
:10458B000AE509950B501AE50AC39508F8E50B9552
:10459B0009F9C3E89431E9940040B47C307D008084
:1045AB00B9750800750900801490F611E02401F02C
:1045BB00A3E03400F00508E50870020509C3E5081F
:1045CB00950AE509950B40030248BD8510828511BC
:1045DB0083E5822508F582E5833509F583E0C0E0A4
:1045EB0090F611E0240DF8A3E034F5F98882898365
:1045FB00D0E0F090F611E0F8A3E0F9E8496003028F
:10460B0046DF90F50DE06401702590F611E0240172
:10461B00F0A3E03400F090F9447400F0A37400F0C0
:10462B0090F9467400F0A37400F0123C028086905F
:10463B00F50DE06481702690F611E02401F0A3E003
:10464B003400F090F9447401F0A37400F090F94633
:10465B007400F0A37400F0123C020245C090F50DFB
:10466B00E064C1702690F611E02401F0A3E0340061
:10467B00F090F9447400F0A37400F090F9467401C3
:10468B00F0A37400F0123C020245C090F50DE064FB
:10469B0003600890F50DE06413701C90F9F8740139
:1046AB00F0C29190F50D7403F07C017D007A0D7BC7
:1046BB00F51235C20245C090F50DE060030245C00E
:1046CB0090F50D745AF07C017D007A0D7BF5123557
:1046DB00C20245C090F611E064017004A3E06400CF
:1046EB00702390F50EE090F948F090F611E024015C
:1046FB00F0A3E03400F090F719E060030245C0121C
:10470B003BEC0245C090F611E064027004A3E06438
:10471B0000702A90F50FE0F8790090F949E8F0A3C2
:10472B00E9F090F611E02401F0A3E03400F090F7EB
:10473B0019E060030245C0123BEC0245C090F61134
:10474B00C3E09403A3E09400A2D265D033500302DC
:10475B0045C090F719E07003123BEC90F611C08244
:10476B00C08390F948E0F87900E82402F850010979
:10477B00D083D082E0687003A3E06960030245B484
:10478B00123BE390F944E064017004A3E064007011
:10479B003990F611E02401FEA3E03400FF90F611EE
:1047AB00EEF0A3EFF090F948E0FC7D007A107BF57A
:1047BB00121F11E9C0E0740D2EF58274F53FF583DD
:1047CB00D0E0F090F948E02401F090F946E0640164
:1047DB007004A3E06400707190F948E0FC7D007AEE
:1047EB00107BF5121FEF8A0C8B0DAA0CAB0D90F6FC
:1047FB0011E02401FCA3E03400FD90F611ECF0A3D2
:10480B00EDF08A0C8B0D7408780C120AD0E50CC0F5
:10481B00E0740D2CF58274F53DF583D0E0F090F645
:10482B0011E02401F8A3E03400F990F611E8F0A3AD
:10483B00E9F0EAC0E0740D28F58274F539F583D000
:10484B00E0F090F948E02402F090F948E0FC7D009C
:10485B007A107BF51265E5E9703490F949120CFE7C
:10486B0090F948E0FC7D007A107BF51241ED740263
:10487B00120B18121F547C037D007A0D7BF5123539
:10488B00C290F6117400F0A37400F00245C090F5CD
:10489B000E7400F090F50F7400F07C037D007A0D20
:1048AB007BF51235C290F6117400F0A37400F00280
:1048BB0045C07480120B187F06020BEE74F3120BBB
:1048CB0088EAFEEBFF8C0A8D0B740D120B6CE0F576
:1048DB0008A3E0F509850882850983E07003024C83
:1048EB00C778007900801DEE28F582EF39F583E05B
:1048FB00C0E074CC28F58274F939F583D0E0F00868
:10490B00E8700109850A82850B83E0FAA3E0FBC3FB
:10491B00E89AE99B40D1850A82850B83E0F8A3E0F6
:10492B00F990F9F6E8F0A3E9F090F9CCE0540F44D4
:10493B00A090F9CCF090F9F6E0C39407F8A3E094BB
:10494B0000F9C3E8941BE99400504290F9F6740700
:10495B00F0A37400F090F9F6E024FFFCA3E034FF21
:10496B00FD7ACC7BF9121F11E9FA90F9F6E024CB12
:10497B00F8A3E034F9F988828983E06A6003024C7A
:10498B00778508828509837400F0024C7790F9F6DD
:10499B00E0C39422F8A3E09400F9C3E89407E994E8
:1049AB00004003024BDA90F9F67422F0A37400F086
:1049BB0090F9F6E024FEFCA3E034FFFD7ACC7BF902
:1049CB00121FEF8A0C8B0DA80CA90DE8FA90F9F6C3
:1049DB00E024CBFCA3E034F9FD8C828D83E06A707C
:1049EB002C880C890D7408780C120AD090F9F6E01B
:1049FB0024CAF8A3E034F9F988828983E0650C7046
:104A0B000C8508828509837400F0024C77121F54C1
:104A1B0090F9F4E0F8A3E0F9E8497003024C7778D9
:104A2B00007900801F744C28F58274F939F583E006
:104A3B00C0E074CC28F58274F939F583D0E0F00826
:104A4B00E8700109C3E89408E9940040D890F95440
:104A5B00E02410547090F9D4F078007900801F7422
:104A6B005528F58274F939F583E0C0E074D728F541
:104A7B008274F939F583D0E0F008E8700109C3E8D6
:104A8B009402E9940040D890F9D97400F090F95A47
:104A9B00E090F9DBF090F95CE090F9DCF0780079CC
:104AAB0000801F745728F58274F939F583E0C0E054
:104ABB0074DD28F58274F939F583D0E0F008E870DD
:104ACB000109C3E89402E9940040D878007900808A
:104ADB001F745D28F58274F939F583E0C0E074DF4B
:104AEB0028F58274F939F583D0E0F008E8700109F4
:104AFB00C3E8940CE9940040D890F9EB7400F09063
:104B0B00F9F6E024FEFCA3E034FFFD7ACC7BF9122E
:104B1B001FEF8A0C8B0DA80CA90DE8FA90F9F6E0A3
:104B2B0024CBFCA3E034F9FD8C828D83E06A7029E1
:104B3B00880C890D7408780C120AD090F9F6E024D1
:104B4B00CAF8A3E034F9F988828983E0650C70090F
:104B5B008508828509837400F0850882850983E0C6
:104B6B007003024C7790F9D4E0D2E0F090F9F6E0C4
:104B7B0024FEFCA3E034FFFD7ACC7BF9121FEF8AF5
:104B8B000C8B0DA80CA90DE8FA90F9F6E024CBFCE0
:104B9B00A3E034F9FD8C828D83E06A6003024C77CD
:104BAB00880C890D7408780C120AD090F9F6E02461
:104BBB00CAF8A3E034F9F988828983E0650C6003B5
:104BCB00024C778508828509837400F0024C77903C
:104BDB00F9F6E0C3942AF8A3E09400F9C3E8941D16
:104BEB00E99400503E90F9F6742AF0A37400F0900B
:104BFB00F9F6E024FFFCA3E034FFFD7ACC7BF9123D
:104C0B001F11E9FA90F9F6E024CBF8A3E034F9F997
:104C1B0088828983E06A70548508828509837400D1
:104C2B00F0804990F9F6C3E09447A3E09400403C30
:104C3B0090F9F67447F0A37400F090F9F6E024FFB6
:104C4B00FCA3E034FFFD7ACC7BF9121F11E9FA903B
:104C5B00F9F6E024CBF8A3E034F9F988828983E0F4
:104C6B006A70098508828509837400F0850882853E
:104C7B000983E06401604578007900801D74CC28BD
:104C8B00F58274F939F583E0C0E0EE28F582EF394F
:104C9B00F583D0E0F008E870010990F9F6E0FAA38B
:104CAB00E0FBC3E89AE99B40D490F9F6E0F8A3E067
:104CBB00F9850A82850B83E8F0A3E9F085088285E4
:104CCB000983E064017003024DC28E828F83E0641E
:104CDB00AA600C8E828F83E064AB6003024DC28EA0
:104CEB00828F83A3A3E0F890F8B0E06870218E82E6
:104CFB008F83A3A3A3E0F890F8B1E06870118E82C4
:104D0B008F83A3A3A3A3E0F890F8B2E06860608E52
:104D1B00828F83A3A3E0F890F8B3E06870218E82B2
:104D2B008F83A3A3A3E0F890F8B4E06870118E8290
:104D3B008F83A3A3A3A3E0F890F8B5E06860308E4F
:104D4B00828F83A3A3E0F890F8B6E06870698E8237
:104D5B008F83A3A3A3E0F890F8B7E06870598E8215
:104D6B008F83A3A3A3A3E0F890F8B8E068704885FD
:104D7B000A82850B83E0F8A3E0F990F9F4E8F0A33D
:104D8B00E9F078007900801DEE28F582EF39F58384
:104D9B00E0C0E0744C28F58274F939F583D0E0F06B
:104DAB0008E8700109850A82850B83E0FAA3E0FB12
:104DBB00C3E89AE99B40D17F06020BEE74F5120B08
:104DCB00887E0080010EEEC394034003024EE5750E
:104DDB000800024EA3EFF87900E875F002A4C8AA08
:104DEB00F075F000A42AFA75F002E9A42AF9E50897
:104DFB00FC7D00EC75F004A4CCAAF075F000A42A9D
:104E0B00FA75F004EDA42AFDEEFA7B00EA75F020AA
:104E1B00A4CA85F00975F000A42509F50975F020E1
:104E2B00EBA42509FB74672AFA74F73BFBEA2CFA0F
:104E3B00EB3DFBEA28F582EB39F5837400F0A374A4
:104E4B0000F0E508FA7B00EA75F002A4CAA8F07539
:104E5B00F000A428F875F002EBA428FBEEF879001B
:104E6B00E875F010A4C8ACF075F000A42CFC75F03C
:104E7B0010E9A42CF974DF28F874F739F9E82AF54E
:104E8B0082E93BF5837400F0A37400F00FEFC39439
:104E9B00025003024DE00508E508C39408400302E5
:104EAB004DD085080A750B00EEF87900E875F0080F
:104EBB00A4C8AAF075F000A42AFA75F008E9A42A90
:104ECB00F974C728F874F739F9E8250AF582E9353A
:104EDB000BF5837400F07F0080B37F04020BEE743C
:104EEB00F7120B887E0002503BEFFA7B00EA75F05D
:104EFB0004A4CAA8F075F000A428F875F004EBA47C
:104F0B0028FBEEF87900E875F020A4C8ACF075F03A
:104F1B0000A42CFC75F020E9A42CF9746728F87414
:104F2B00F739F9E82AF582E93BF583E0C394B0F849
:104F3B00A3E09404F9C3E894B9E9940B4049EFFA60
:104F4B007B00EA75F004A4CAA8F075F000A428F859
:104F5B0075F004EBA428FBEEF87900E875F020A4BB
:104F6B00C8ACF075F000A42CFC75F020E9A42CF96A
:104F7B00746728F874F739F9E82AF582E93BF58369
:104F8B007400F0A37400F0EEFA7B00EA75F020A435
:104F9B00CAA8F075F000A428F875F020EBA428FB44
:104FAB00EFF87900E875F004A4C8ACF075F000A434
:104FBB002CFC75F004E9A42CF9746928F874F73902
:104FCB00F9E82AF582E93BF583E0C39450F8A3E0B6
:104FDB009400F9C3E894ABE994004049EEFA7B00E6
:104FEB00EA75F020A4CAA8F075F000A428F875F0B3
:104FFB0020EBA428FBEFF87900E875F004A4C8AC0B
:10500B00F075F000A42CFC75F004E9A42CF974697C
:10501B0028F874F739F9E82AF582E93BF58374002F
:10502B00F0A37400F00FEFC394085003024EF40E7C
:10503B00EEC3940350047F0080EC7E0080010EEEE3
:10504B00C39403400302544E7F000250F7EEFA7BE9
:10505B0000EA75F020A4CAA8F075F000A428F87532
:10506B00F020EBA428FBEFF87900E875F004A4C856
:10507B00ACF075F000A42CFC75F004E9A42CF974C9
:10508B006928F874F739F9E82AF582E93BF583E0EA
:10509B00F8A3E0F97A0A7B00120A778A088B09EEEB
:1050AB00FA7B00EA75F020A4CAA8F075F000A428DA
:1050BB00F875F020EBA428FBEFF87900E875F00405
:1050CB00A4C8ACF075F000A42CFC75F004E9A42C7A
:1050DB00F9746928F874F739F9E82AF582E93BF590
:1050EB0083C3E09508F0A3E09509F00FEFC3940894
:1050FB004003025049EFFA7B00EA75F004A4CAA8FA
:10510B00F075F000A428F875F004EBA428FBEEF87A
:10511B007900E875F020A4C8ACF075F000A42CFC65
:10512B0075F020E9A42CF9746728F874F739F9E8BD
:10513B002AF582E93BF583E0F8A3E0F97A0A7B00D4
:10514B00120A778A088B09C3E5089406E5099400CF
:10515B005003025258EFFA7B00EA75F004A4CAA878
:10516B00F075F000A428F875F004EBA428FBEEF81A
:10517B007900E875F020A4C8ACF075F000A42CFC05
:10518B0075F020E9A42CF9746728F874F739F9E85D
:10519B002AF582E93BF583E0240AFCA3E03400FD09
:1051AB00EFFA7B00EA75F004A4CAA8F075F000A42E
:1051BB0028F875F004EBA428FBEEF87900E875F0FD
:1051CB0020A4C885F00875F000A42508F50875F033
:1051DB0020E9A42508F9746728F874F739F9E82A47
:1051EB00F582E93BF583E0F8A3E0F97A0A7B00123C
:1051FB000A778A088B09ECC39508FCED9509FDEF3E
:10520B00FA7B00EA75F004A4CAA8F075F000A42894
:10521B00F875F004EBA428FBEEF87900E875F020A4
:10522B00A4C885F00875F000A42508F50875F020D2
:10523B00E9A42508F9746728F874F739F9E82AF511
:10524B0082E93BF583ECF0A3EDF00252F6EFFA7B2B
:10525B0000EA75F004A4CAA8F075F000A428F8754C
:10526B00F004EBA428FBEEF87900E875F020A4C855
:10527B00ACF075F000A42CFC75F020E9A42CF974AB
:10528B006728F874F739F9E82AF582E93BF583E0EA
:10529B00F8A3E0F97A0A7B00120A778A088B09EFE8
:1052AB00FA7B00EA75F004A4CAA8F075F000A428F4
:1052BB00F875F004EBA428FBEEF87900E875F02004
:1052CB00A4C8ACF075F000A42CFC75F020E9A42C5C
:1052DB00F9746728F874F739F9E82AF582E93BF590
:1052EB0083C3E09508F0A3E09509F0EEFA7B00EAA2
:1052FB0075F020A4CAA8F075F000A428F875F0206A
:10530B00EBA428FBEFF87900E875F004A4C8ACF027
:10531B0075F000A42CFC75F004E9A42CF974692831
:10532B00F874F739F9E82AF582E93BF583E0F8A33D
:10533B00E0F97A0A7B00120A778A088B09C3E50821
:10534B009406E50994005003025058EEFA7B00EAEC
:10535B0075F020A4CAA8F075F000A428F875F02009
:10536B00EBA428FBEFF87900E875F004A4C8ACF0C7
:10537B0075F000A42CFC75F004E9A42CF9746928D1
:10538B00F874F739F9E82AF582E93BF583E0240A4A
:10539B00FCA3E03400FDEEFA7B00EA75F020A4CA12
:1053AB00A8F075F000A428F875F020EBA428FBEF0B
:1053BB00F87900E875F004A4C885F00875F000A42E
:1053CB002508F50875F004E9A42508F9746928F88F
:1053DB0074F739F9E82AF582E93BF583E0F8A3E0A5
:1053EB00F97A0A7B00120A778A088B09ECC39508B5
:1053FB00FCED9509FDEEFA7B00EA75F020A4CAA836
:10540B00F075F000A428F875F020EBA428FBEFF85A
:10541B007900E875F004A4C885F00875F000A425A0
:10542B0008F50875F004E9A42508F9746928F874DF
:10543B00F739F9E82AF582E93BF583ECF0A3EDF0B7
:10544B000250F67F02020BEE74F8120B88E9FEEEA7
:10545B00C4540F5407FCEEA2E0E433F990F71AE0C2
:10546B00F890F8B0E068701C90F71BE0F890F8B17A
:10547B00E068701090F71CE0F890F8B2E0687004E8
:10548B007B00805290F71AE0F890F8B3E068701C3C
:10549B0090F71BE0F890F8B4E068701090F71CE000
:1054AB00F890F8B5E06870047B01802A90F71AE059
:1054BB00F890F8B6E068701C90F71BE0F890F8B71E
:1054CB00E068701090F71CE0F890F8B8E068700492
:1054DB007B0280027B03EBC394035068E9F87900ED
:1054EB00E875F002A4C8AAF075F000A42AFA75F0CA
:1054FB0002E9A42AF9ECFC7D00EC75F004A4CCAA1B
:10550B00F075F000A42AFA75F004EDA42AFDEBFA6D
:10551B007B00EA75F020A4CAAFF075F000A42FFF52
:10552B0075F020EBA42FFB74672AFA74F73BFBEAA8
:10553B002CFAEB3DFBEA28F582EB39F583E0FAA375
:10554B00E0FB80047A007B007F01020BEE74F1120A
:10555B000B8874FF120B02E9C0E085108285118362
:10556B00D0E0F08A0F8C0C8D0DE50FC4540F54074F
:10557B00FCE50FA2E0E433F50E851082851183E084
:10558B00C4540F5407FD851082851183E0A2E0E41B
:10559B0033FF90F71AE0F890F8B0E068701C90F7C2
:1055AB001BE0F890F8B1E068701090F71CE0F890F1
:1055BB00F8B2E06870047E00805290F71AE0F89021
:1055CB00F8B3E068701C90F71BE0F890F8B4E06853
:1055DB00701090F71CE0F890F8B5E06870047E014D
:1055EB00802A90F71AE0F890F8B6E068701C90F7F4
:1055FB001BE0F890F8B7E068701090F71CE0F8909B
:10560B00F8B8E06870047E0280027E03EEC3940358
:10561B0040030260AE8D0875090085080A85090BE9
:10562B008C08750900E5082401F8E43509F97A08B6
:10563B007B00120A6F8A088B09E508650A7004E57E
:10564B0009650B6003025F12ECC394714003025FA8
:10565B0012C3E50C94C0E50D94124003025F12E5F2
:10566B000E60030257F1EF60030257F1ECFA7B0077
:10567B00EA75F004A4CAA8F075F000A428F875F038
:10568B0004EBA428FBEEF87900E875F020A4C8AD74
:10569B00F075F000A42DFD75F020E9A42DF97467C9
:1056AB0028F874F739F9E82AF582E93BF583E0F835
:1056BB00A3E0F9E849704CECFA7B00EA75F004A41E
:1056CB00CAA8F075F000A428F875F004EBA428FB29
:1056DB00EEF87900E875F020A4C8ACF075F000A4E2
:1056EB002CFC75F020E9A42CF9746728F874F739B1
:1056FB00F9E82AF582E93BF583E50CF0A3E50DF01B
:10570B0002609EECFA7B00EA75F004A4CAA8F0755F
:10571B00F000A428F875F004EBA428FBEEF8790050
:10572B00E875F020A4C8ADF075F000A42DFD75F060
:10573B0020E9A42DF9746728F874F739F9E82AF5EC
:10574B0082E93BF583E0250CF0A3E0350DF0ECFA94
:10575B007B00EA75F004A4CAA8F075F000A428F841
:10576B0075F004EBA428FBEEF87900E875F020A4A3
:10577B00C8ADF075F000A42DFD75F020E9A42DF94E
:10578B00746728F874F739F9E82AF582E93BF58351
:10579B00E0F8A3E0F9E9C313F9E813F8ECFC7D009A
:1057AB00EC75F004A4CCAAF075F000A42AFA75F0FD
:1057BB0004EDA42AFDEEFA7B00EA75F020A4CAAF33
:1057CB00F075F000A42FFF75F020EBA42FFB74678E
:1057DB002AFA74F73BFBEA2CF582EB3DF583E8F0F4
:1057EB00A3E9F002609EE50E6003025D8974016F10
:1057FB006003025D89EEF87900E875F020A4C8AA71
:10580B00F075F000A42AFA75F020E9A42AF9EDFA54
:10581B007B00EA75F004A4CAAFF075F000A42FFF6B
:10582B0075F004EBA42FFB74692AFA74F73BFBEABF
:10583B0028F582EB39F583E0F8A3E0F9E84970032A
:10584B00025ACBECF87900E875F004A4C8AAF075FD
:10585B00F000A42AFA75F004E9A42AF9EEFA7B0009
:10586B00EA75F020A4CAAFF075F000A42FFF75F015
:10587B0020EBA42FFB74672AFA74F73BFBEA28F59D
:10588B0082EB39F583E0F8A3E0F9E84960030259AC
:10589B003AEEF87900E875F020A4C8AAF075F0008C
:1058AB00A42AFA75F020E9A42AF9EDFA7B00EA752F
:1058BB00F004A4CAAFF075F000A42FFF75F004EB51
:1058CB00A42FFB74692AFA74F73BFBEA28F582EBE9
:1058DB0039F583E0F8A3E0F9E50CC398F508E50D7D
:1058EB0099F509ECF87900E875F004A4C8AAF075ED
:1058FB00F000A42AFA75F004E9A42AF9EEFA7B0069
:10590B00EA75F020A4CAAFF075F000A42FFF75F074
:10591B0020EBA42FFB74672AFA74F73BFBEA28F5FC
:10592B0082EB39F583E508F0A3E509F0025ACBECDD
:10593B00F87900E875F004A4C8AAF075F000A42A61
:10594B00FA75F004E9A42AF9EEFA7B00EA75F02067
:10595B00A4CAAFF075F000A42FFF75F020EBA42FB5
:10596B00FB74672AFA74F73BFBEA28F582EB39F5EF
:10597B0083E0250CF8A3E0350DF9EEFA7B00EA7510
:10598B00F020A4CAAFF075F000A42FFF75F020EB48
:10599B00A42FFBEDF508750900E50875F004A4C507
:1059AB0008AFF075F000A42FFF75F004E509A42FE4
:1059BB00F50974692508F50874F73509F509E50843
:1059CB002AF582E5093BF583E0FAA3E0FBE8C39AED
:1059DB00F508E99BF509ECF87900E875F004A4C823
:1059EB00AAF075F000A42AFA75F004E9A42AF9EEDE
:1059FB00FA7B00EA75F020A4CAAFF075F000A42F73
:105A0B00FF75F020EBA42FFB74672AFA74F73BFBAE
:105A1B00EA28F582EB39F583E508F0A3E509F0EC0C
:105A2B00F87900E875F004A4C8AAF075F000A42A70
:105A3B00FA75F004E9A42AF9EEFA7B00EA75F02076
:105A4B00A4CAAFF075F000A42FFF75F020EBA42FC4
:105A5B00FB74672AFA74F73BFBEA28F582EB39F5FE
:105A6B0083E0F8A3E0F9E9C313F9E813F8ECFA7B48
:105A7B0000EA75F004A4CAAFF075F000A42FFF750F
:105A8B00F004EBA42FFBEEF508750900E50875F0A3
:105A9B0020A4C508AFF075F000A42FFF75F020E52A
:105AAB0009A42FF50974672508F50874F73509F56E
:105ABB0009E5082AF582E5093BF583E8F0A3E9F04F
:105ACB00ECF87900E875F004A4C8AAF075F000A40E
:105ADB002AFA75F004E9A42AF9EEFA7B00EA75F0CC
:105AEB0020A4CAAFF075F000A42FFF75F020EBA433
:105AFB002FFB74672AFA74F73BFBEA28F582EB3924
:105B0B00F583E0F8A3E0F9E849700302609EEEF834
:105B1B007900E875F020A4C8AAF075F000A42AFA61
