:020000040000FA
:030000000200CD2E
:03001300023E604A
:03003300026F5EFB
:03003B00023FB7CA
:03004B00023BC0B5
:03006B000270130D
:10007B00023AF900000080FBE479127807B800021D
:10008B008004F709D8FCE490F1FF788079098002AD
:10009B00F0A3D8FCD9FA7A7E7BFA9000DC7846790B
:1000AB00018015E493A3AD82AE838A828B83F0A388
:1000BB00AA82AB838D828E83D8E9D9E712407F1257
:1000CB00007E75D0007581BF7510FF7511F10200B0
:1000DB008315313223342526161A192A0B2C0D0EB3
:1000EB001C802101B001B001B001B001B8010000CA
:1000FB0080431E00000000002043240B183A9C5341
:10010B00C9350000804717B7D13601000000205DCC
:10011B000000410100001201000202000020510406
:10012B00A616090001020301090243000201008027
:10013B00190904000001020201000524001001044A
:10014B002402020524060001052401000107058293
:10015B000340004009040100020A00000007058467
:10016B0002400001070504024000010403090416C4
:10017B00034E006900670068007400730063006F32
:10018B00007500740018034D004D0043006F006DA7
:10019B00006D0061006E00640065007200080330A2
:1001AB0000300031003C0100005F010000C3E0960D
:1001BB0008A3E09608A3E09608A3E09622C008C324
:1001CB00E096F50808A3E096420808A3E0964208DB
:1001DB0008A3E09645087001D3D00822E96C70069D
:1001EB00EA6D7002EB6E22BB0102E722C082C08374
:1001FB0089828A83BB0003E08002E493D083D082A0
:10020B0022BB000EC082C0838A838982F0D083D048
:10021B008222BB0101F722080808E630E711120918
:10022B008012023A080808C64480C618181822180B
:10023B001818E9799EC608CAC608CBC608CCC6C32F
:10024B0070207996CACBCC7019798ECBCC70137980
:10025B0086CC700EF9802ACA33CACB33CBCC33CCC5
:10026B00331930E7F2CCCBCA3350147004EA30E0C8
:10027B000DE4CA3ACACB3BCBCC3CCC500209C3E908
:10028B0013C6CC182313C6CB18C6CA18C6F922122C
:10029B0002E530F03912032A80341202E520F01403
:1002AB0030E72B74FFFCFBFA747F8022E4FCFBFA33
:1002BB007480801AB48008BC00F2BB00EF800F5032
:1002CB00EBF9E4C39AFAE49BFBE49CFCE499C6CCFF
:1002DB0018C6CB18C6CA18C6F922E4C9C608CAC6BE
:1002EB0008CBC6D3330308CCC63392F0C3947F40FC
:1002FB002E94184019C9B90704CACBCC225025C378
:10030B0009CA33CACB33CBCC33CC33D9F422F46008
:10031B000DC9CCC313CB13CBCA13CAD9F6CC22E469
:10032B00FCFBFA2214FCFBFA22E6261846184618A8
:10033B004622E72719471947194722181818E608C4
:10034B0046087009E626087005E633F422082219E0
:10035B001919E70947097009E727097005E733F40D
:10036B00220922E6084608C3134608336002E63327
:10037B00F422E7094709C3134709336002E733F453
:10038B002212036E601C12037D6017120334700778
:10039B0012033D7001D322C0D012033D7006D0D0A2
:1003AB00B322C32233D0D0501430E0F6C3E7960803
:1003BB0009E7960809E7960809E796B32220E0D5E6
:1003CB00E6970809E6970809E6970809E697B32226
:1003DB000012036E604F12037D6012E7548066F6C5
:1003EB00120346701112033D703B090909F4F6180C
:1003FB00F618F618F62212035A7015120334080871
:10040B000860EAE6447FF618768018E4F618F622C0
:10041B00120334601612033D7012E4F608F608F668
:10042B0008E65480F609090918181822EAC0E0EB0F
:10043B00C0E0ECC0E0EDC0E0E687F0A4FBACF00858
:10044B00E687F0A42CFCE435F0FA1809E687F0A453
:10045B002C4B60027401CA35F0FCE433FB09E687D0
:10046B00F0D2F7A42CCB35F0FC1908E687F0A42BBF
:10047B00CC35F0FBE433FD0819E687F0D2E7A42C6A
:10048B004ACB35F0CD3400FC09E687F0D2E7A42D3A
:10049B00CC35F0FDE433FA0918E687F0D2F7A42C3B
:1004AB00CD35F0CA3400FC08E687F0D2E7D2F7A4CA
:1004BB002ACC35F07A7E20E70B0ACB33CBCD33CD6C
:1004CB00CC33CC33CB3350147004ED30E00ED2F17F
:1004DB00E4CD3DCDCC3CCC3B5005DA05C2F1EB5421
:1004EB007FC63308E63392F0FBE73309E733C39A51
:1004FB00502D2B70190C0D4C4D70151806E608C3BA
:10050B0033700D20F10AA2F013F6E418800B40248F
:10051B00E4F630F002768018F618F618F68024D33D
:10052B003B14501074FFA2F013F6187680E418F603
:10053B0018F6800FA2F013F618E63303F618ECF654
:10054B0018EDF6D0E0FDD0E0FCD0E0FBD0E0FA22D5
:10055B0012037D604612036E603DE9687008F61861
:10056B00F618F618F622748067F712058F09090939
:10057B00748067F72212036E601D12037D700519DC
:10058B001919801A120346701F12035AC37003E61F
:10059B00673319191940071818182208080874FF2F
:1005AB00F618F618F618F62212035A601712033DC6
:1005BB00702192F01203347019501720F0140808B0
:1005CB0008090909E7F61819E7F61819E7F61819D3
:1005DB00E7F62212033460E6E869701F0808E62488
:1005EB0080F608E436F618547FB47F0CE65480602E
:1005FB0007F6E418F618F622181822E9C6CC08C636
:10060B00CD08C6CE08C6CFC0E0E8C0E0EAC0E0EB3C
:10061B00C0E009E9F809E7FA09E7FBE6F918E6F89B
:10062B00C3EC98ED99EE9AEBC2E7F5F0EFC2E795C4
:10063B00F0500E600CEBCFFBEACEFAE9CDF9E8CC2B
:10064B00F8EAA2E7D2E7FAEB33FB13F5F0EEA2E7F9
:10065B00D2E7FEEF33FFC5F013A2E730E601B31389
:10066B00C5F0C3C0E0C0F07F00C39BFB605E941875
:10067B00600F401D14601AD0E023F9D0E0F8020798
:10068B00618AF0E9486003D2F0E4AFF0FAF9F88040
:10069B003BEB30E40D89F0EA6003D2F0E4AFF0F904
:1006AB00CAF8EB30E30D88F0EF6002D2F0AFF0E464
:1006BB00CAC9F8EB54076014FBC3EA13FAE913F940
:1006CB00E813F8EF135002D2E0FFDBEDD0E0C0E00F
:1006DB0030E739C3E49FFFF5F0EC98FC42F0ED995D
:1006EB00FD42F0EE9AFE42F0D0E0F9D0E0F8E5F0F2
:1006FB00607AE923F9EE20E742D8028067C3EF3333
:10070B00FFEC33FCED33FDEE33FE80EAEC28FCED21
:10071B0039FDEE3AFED0E023F9D0E0F84002801B21
:10072B00C3EE13FEED13FDEC13FCEF135002D2E0FE
:10073B00FF08B800067F7F74FF802EEF3350178CB5
:10074B00F020F00260100CBC000C0DBD00080EBEBA
:10075B00000408E860DFE933E813FFEE2313FE4FD4
:10076B004D4C8008E95480FFE4FEFDFCEE33EF3383
:10077B00F47004FCFD7E80D0E0FBD0E0FAD0E0F812
:10078B00D0E0CFC618CEC618CDC618CCC6F92212EB
:10079B00036E70041818182212037D700D74FFF687
:1007AB001819F61819F61819F622E7548066F6127E
:1007BB000334700F12033D70F014F608F608F608B8
:1007CB00F680D112033D700CF608F608768008E629
:1007DB00447F80EC12035D700C12034960BFE6543A
:1007EB0080F6E480BB120349700519191980A5E83E
:1007FB0069700C763F18768018F618F6E8F922E641
:10080B00CDC0E018ECC0E0E633CD33CDD313F6E723
:10081B0019FCE7191933CC33C3947F400ECD9D508F
:10082B002408E65480F6E418F6800FF4043D1450C7
:10083B001408E6447FF6187680E418F618F6D0E034
:10084B00FCD0E0FD22CCD313CCFD18E4C6CBC0E02A
:10085B0018E4C6CAC0E00808ED08C633E613F6185C
:10086B00E433C675F003C3CA97CA09CB97CB199C5F
:10087B0040047D08802EBD000302094316B6FF0518
:10088B000606081618C3CA33CACB33CB33CA27CADA
:10089B0009CB37CB193CC37D08803E187D0820E778
:1008AB005CC633C6CA33CACB33CB33DDF1D5F0EBE1
:1008BB0030E77BCA97CA09CB974ACB199C406F4B41
:1008CB007025E620E0218066187D08C3CA97CA0907
:1008DB00CB97CB199CD3C633C6CA33CACB33CB33D6
:1008EB0050C9DDE7D5F0E1D3E4C636C608C636C637
:1008FB0008C636C608C636C61818188031C3CA973C
:10090B00CA09CB97CB199CB34097C633C6CA33CA17
:10091B00CB33CB33DD34D5F02EC6A2E0C640C8CAEC
:10092B0027CA09CB37194A70BECB3CB480B908082B
:10093B00E63308E633601F181818D0E0FAD0E0FB56
:10094B00D0E0FCD0E0FD22187D08CA27CA09CB37BE
:10095B00CB193CD3808013F618E4B67F11F618B68A
:10096B00FF0EF618C60470D20808768080CAF618F7
:10097B00F618F680C5181818E4C396F608E496F630
:10098B0008E496F608E496F622E627F60809E63719
:10099B00F60809E637F60809E637F622E026F008EE
:1009AB00A3E036F008A3E036F008A3E036F022C34C
:1009BB00E0C696F608A3E0C696F608A3E0C696F640
:1009CB0008A3E0C696F622E0F608A3E0F608A3E03B
:1009DB00F608A3E0F622E6F008A3E6F008A3E6F09B
:1009EB0008A3E6F022E0FAA3E0FBA3E0FCA3E0FD02
:1009FB0022E8F0A3E9F0A3EAF0A3EBF022CAC0E0EF
:100A0B00E6F0A308DAFAD0E0FA22CAC0E0E0A3C508
:100A1B0082CCC582C583CDC583F0A3C582CCC582EC
:100A2B00C583CDC583DAE6D0E0CA22C3E498F8E4E7
:100A3B0099F9120A778026C3E49AFAE49BFBE92022
:100A4B00E7E9120A77E498F8E499F922C3E498F8F5
:100A5B00E499F9120A77E498F8E499F9C3E49AFA5D
:100A6B00E49BFB22EB20E7CFE920E7E0B90010BBCA
:100A7B000008E88AF084F8AAF022E4FBC8FA22EB1B
:100A8B0070227B10C833C8C933C9335007C39AC30C
:100A9B00DBF280069A50012ADBEAC833F4C8C9336B
:100AAB00F4C9FA2275F008E4C833C8C933C933C98D
:100ABB009AC99B5004C92AC93BD5F0ECFBC833F447
:100ACB00C8E4C9FA22600D08C6A2E713C618C613FC
:100ADB00C6D5E0F322600C08C6C313C618C613C6EE
:100AEB00D5E0F422700422600D18C6C333C608C6C5
:100AFB0033C6D5E0F41822251010AF08F510400CC2
:100B0B0015118008F51040021511D2AF2200C0D08C
:100B1B00251010AF08F510500C05118008F510507A
:100B2B00020511D2AFD0D0222510F58210AF08F5F7
:100B3B0010400C15118008F51040021511D2AF852D
:100B4B00118322C5822510C582C583351110AF07CD
:100B5B00F5118582108007F511858210D2AFC58300
:100B6B00222510F582E43511F583222510FAE435A0
:100B7B0011FB222510FCE43511FD22E4732510C571
:100B8B0082C0E0E51134FFC583C0E0E510C3958258
:100B9B0024F910AF08858311858210800885831195
:100BAB00858210D2AFCEF0A3E520F0A37808E6083B
:100BBB00F0A3DEFAEFF0A3E58124FBF8E608F0A33F
:100BCB00E608F0A30808E608F0A3E608F0A31581F1
:100BDB001581D0E0FED0E0F815811581E8C0E0EE7C
:100BEB00C0E022851183851082E0A3FEE0A3F520EF
:100BFB007808E0A3F608DFFAE0A3FFE0A3C0E0E08B
:100C0B00A3C0E0E0A3C0E0E0A3C0E010AF08858282
:100C1B00108583118008858210858311D2AFD08314
:100C2B00D08222C0D02510C582C0E0E51134FFC5AB
:100C3B0083C0E0E510C3958224F310AF08858311C0
:100C4B008582108008858311858210D2AFC8F0A3EE
:100C5B00E9F0A3EAF0A3EBF0A37908E709F0A3D836
:100C6B00FAECF0A3EDF0A3EEF0A3EFF0A3D0E0F0DD
:100C7B00A3D0E0F0A3D0E0F0A3E520F0A3E5F0F0E3
:100C8B00A322851183851082E0C0E0A3E0F9A3E0E5
:100C9B00FAA3E0FBA37808E0F608A3DFFAE0FCA3D5
:100CAB00E0FDA3E0FEA3E0FFA3E0C0E0A3E0C0E013
:100CBB00A3E0F5D0A3E0F520A3E0A3F5F010AF0877
:100CCB008583118582108008858311858210D2AFB0
:100CDB00D082D083D0E0F8D0E03274038004740269
:100CEB008000C0E0F404120B33D0E0120A08227427
:100CFB0003800474028000CCC0E0EDC0E0E510C3BB
:100D0B009CCCAD1150011D10AF068C108D118006BF
:100D1B008C108D11D2AF120A15D0E0FDD0E0FC2261
:100D2B00D083D082CCC0E0E493A36006120D55149F
:100D3B0070FAE493A36006120D741470FAD0E0FC01
:100D4B00E493A3C0E0E493C0E022C0E0E493A3D318
:100D5B009C5010E493A3C39C400AD0E0D0E0D0E0B9
:100D6B00020D48A3A3A3D0E022C0E0E493A36C70D0
:100D7B0009D0E0D0E0D0E0020D48A3A3D0E022746C
:100D8B00F7120B887E007F0074912EF58274F63F6C
:100D9B00F5837441F00EEE70010F74912EF5827491
:100DAB00F63FF5837454F00EEE70010F74912EF52F
:100DBB008274F63FF583742BF00EEE70010F749175
:100DCB002EF58274F63FF583744EF00EEE70010F24
:100DDB0074912EF58274F63FF5837441F00EEE702C
:100DEB00010F74912EF58274F63FF583744DF00E5E
:100DFB00EE70010F74912EF58274F63FF5837445F6
:100E0B00F00EEE70010F74912EF58274F63FF583A0
:100E1B00746DF00EEE70010F74912EF58274F63F27
:100E2B00F5837444F00EEE70010F74912EF58274FD
:100E3B00F63FF5837472F00EEE70010F74912EF580
:100E4B008274F63FF5837469F00EEE70010F7491A6
:100E5B002EF58274F63FF5837470F00EEE70010F71
:100E6B0090F7157400F0A37400F075080375090072
:100E7B00800CE50824FFF508E50934FFF50990F728
:100E8B0015E0F8A3E0F9E849703BE5084509603542
:100E9B0090F7117402F0A37400F0124043780079BC
:100EAB000080130AEA70010BC3EA9437EB947F407E
:100EBB00F208E8700109C3E89405E9940050B37A8D
:100ECB00007B0080E3E50845097004790080799088
:100EDB00F7157400F0A37400F07508037509008012
:100EEB000CE50824FFF508E50934FFF50990F71523
:100EFB00E0F8A3E0F9E8497039E50845096033905B
:100F0B00F711EEF0A3EFF012404378007900801355
:100F1B000AEA70010BC3EA9437EB947F40F208E8BE
:100F2B00700109C3E89405E9940050B57A007B0081
:100F3B0080E3E508450970047900800C90F715747F
:100F4B0000F0A37400F079017F02020BEE74F11232
:100F5B000B888A088B0990F717E07003021EC9856E
:100F6B000882850983E0120D2B031012D110181A79
:100F7B00231D2022641208009C0F1348131497158D
:100F8B0015C01916E11A17021C24E6172B971EC958
:100F9B001E7E008E0A750B007491250AF58274F67D
:100FAB00350BF5837400F00E850882850983E0C04C
:100FBB00E08E0875090074912508F58274F63509E1
:100FCB00F583D0E0F00E8E0875090074912508F5B5
:100FDB008274F63509F583746DF00E8E0875090071
:100FEB0074912508F58274F63509F5837444F00E77
:100FFB008E0875090074912508F58274F63509F58C
:10100B00837472F00E8E0875090074912508F582B1
:10101B0074F63509F5837469F00E8E087509007442
:10102B00912508F58274F63509F5837470F00E8EF0
:10103B000875090074912508F58274F63509F58356
:10104B007420F00E8E0875090074912508F58274D2
:10105B00F63509F5837476F00E8E087509007491D8
:10106B002508F58274F63509F5837431F00E8E0878
:10107B0075090074912508F58274F63509F58374AA
:10108B002EF00E8E0875090074912508F58274F602
:10109B003509F5837430F00E8E08750900749125AF
:1010AB0008F58274F63509F5837431F00E74FF2E52
:1010BB0090F691F0EEF8790090F711E8F0A3E9F0D3
:1010CB00124043021EC97E008E0A750B00749125D7
:1010DB000AF58274F6350BF5837400F00E850882E1
:1010EB00850983E0C0E08E0A750B007491250AF523
:1010FB008274F6350BF583D0E0F00E7900021241C5
:10110B00E8FC7D00EC75F002A4CCAAF075F000A40D
:10111B002AFA75F002EDA42AFDE9F50A750B00E534
:10112B000A75F004A4C50AAAF075F000A42AFA7592
:10113B00F004E50BA42AF50B850882850983E0FAF8
:10114B007B00EA5403FAEB5400FBEA75F020A4CAC7
:10115B00AFF075F000A42FFF75F020EBA42FFB74FC
:10116B00662AFA74F73BFBEA250AFAEB350BFBEA26
:10117B002CF582EB3DF583E0FAA3E0FBE4CBFAEA36
:10118B00C0E08E0A750B007491250AF58274F63552
:10119B000BF583D0E0F00EE8FC7D00EC75F002A4BB
:1011AB00CCAAF075F000A42AFA75F002EDA42AFD82
:1011BB00E9F50A750B00E50A75F004A4C50AAAF057
:1011CB0075F000A42AFA75F004E50BA42AF50B853B
:1011DB000882850983E0FA7B00EA5403FAEB54009A
:1011EB00FBEA75F020A4CAAFF075F000A42FFF75D1
:1011FB00F020EBA42FFB74662AFA74F73BFBEA256D
:10120B000AFAEB350BFBEA2CF582EB3DF583E0FAA2
:10121B00A3E0FBEAC0E08E0A750B007491250AF57A
:10122B008274F6350BF583D0E0F00E08E8C3940218
:10123B00500302110B09E9C394085004780080ECA9
:10124B0074FF2E90F691F0EEF8790090F711E8F01C
:10125B00A3E9F0124043021EC974216C70037400A1
:10126B006D6003021EC97E01790002133B8E0A7565
:10127B000B00E508250AF582E509350BF583E0FA45
:10128B007B00E4CAFB8E0A750B00E508250AF58284
:10129B00E509350BF583A3E0FC7D00EA4CF50CEB7F
:1012AB004DF50DE8FC7D00EC75F002A4CCAAF075B1
:1012BB00F000A42AFA75F002EDA42AFDE9F50A75EF
:1012CB000B00E50A75F004A4C50AAAF075F000A49A
:1012DB002AFA75F004E50BA42AF50B85088285091B
:1012EB0083E0FA7B00EA5403FAEB5400FBEA75F057
:1012FB0020A4CAAFF075F000A42FFF75F020EBA46B
:10130B002FFB74662AFA74F73BFBEA250AFAEB35D6
:10131B000BFBEA2CF582EB3DF583E50CF0A3E50D19
:10132B00F074022EFE08E8C39402500302127809EF
:10133B00E9C394085004780080EC021EC97E008E2D
:10134B000A750B007491250AF58274F6350BF5833B
:10135B007400F00E850882850983E0C0E08E087565
:10136B00090074912508F58274F63509F583D0E0F0
:10137B00F00E90F71E78081209D2E4C509F508E5BE
:10138B0008C0E08E0875090074912508F58274F683
:10139B003509F583D0E0F00E90F71E78081209D2CC
:1013AB00E508C0E08E0875090074912508F5827474
:1013BB00F63509F583D0E0F00E90F7267808120980
:1013CB00D2E4C509F508E508C0E08E08750900747C
:1013DB00912508F58274F63509F583D0E0F00E906F
:1013EB00F72678081209D2E508C0E08E08750900C7
:1013FB0074912508F58274F63509F583D0E0F00E6B
:10140B0090F811E0F8A3E0F9E4C9F8E8C0E08E0821
:10141B0075090074912508F58274F63509F583D0AA
:10142B00E0F00E90F811E0F8A3E0F9E8C0E08E08C8
:10143B0075090074912508F58274F63509F583D08A
:10144B00E0F00E90F817E0F8A3E0F9E4C9F8E8C073
:10145B00E08E0875090074912508F58274F635093C
:10146B00F583D0E0F00E90F817E0F8A3E0F9E8C0B0
:10147B00E08E0875090074912508F58274F635091C
:10148B00F583D0E0F00E90F819E0F8A3E0F9E4C989
:10149B00F8E8C0E08E0875090074912508F5827490
:1014AB00F63509F583D0E0F00E90F819E0F8A3E0DB
:1014BB00F9E8C0E08E0875090074912508F582746F
:1014CB00F63509F583D0E0F00E90F75A780C120937
:1014DB00D290FA9B78081209D2780C79081203DBA8
:1014EB00780C1202A5AA0CAB0DEAF8EBF9E4C9F8DB
:1014FB00E8C0E08E0875090074912508F58274F632
:10150B003509F583D0E0F00EEAC0E08E08750900CE
:10151B0074912508F58274F63509F583D0E0F00E49
:10152B0090FA8EE0C0E08E0875090074912508F5DD
:10153B008274F63509F583D0E0F00E90F765E0FA8A
:10154B0090F764E0C333F990F763E0333354FCF85E
:10155B0090F762E033333354F848494AC0E08E08C1
:10156B0075090074912508F58274F63509F583D059
:10157B00E0F00E74FF2E90F691F0EEF8790090F7F4
:10158B0011E8F0A3E9F0124043021EC97E008E0A57
:10159B00750B007491250AF58274F6350BF583747F
:1015AB0000F00E850882850983E0C0E08E0875097E
:1015BB000074912508F58274F63509F583D0E0F0B7
:1015CB000E90F71DE0C0E08E087509007491250898
:1015DB00F58274F63509F583D0E0F00E90F8B1E0A2
:1015EB00C0E08E0875090074912508F58274F635F4
:1015FB0009F583D0E0F00E90F8B2E0C0E08E0875EC
:10160B00090074912508F58274F63509F583D0E04D
:10161B00F00E90F8B3E0C0E08E08750900749125C8
:10162B0008F58274F63509F583D0E0F00E90F8B426
:10163B00E0C0E08E0875090074912508F58274F6F8
:10164B003509F583D0E0F00E90F8B5E0C0E08E08D8
:10165B0075090074912508F58274F63509F583D068
:10166B00E0F00E90F8B6E0C0E08E087509007491BA
:10167B002508F58274F63509F583D0E0F00E90F865
:10168B00B7E0C0E08E0875090074912508F58274E7
:10169B00F63509F583D0E0F00E90F8B8E0C0E08E97
:1016AB000875090074912508F58274F63509F583E0
:1016BB00D0E0F00E90F8B9E0C0E08E087509007428
:1016CB00912508F58274F63509F583D0E0F00E907C
:1016DB00F8BAE0C0E08E0875090074912508F58210
:1016EB0074F63509F583D0E0F00E90F8BBE0C0E05E
:1016FB008E0875090074912508F58274F63509F585
:10170B0083D0E0F00E90F8BCE0C0E08E08750900C5
:10171B0074912508F58274F63509F583D0E0F00E47
:10172B0090F8BDE0C0E08E0875090074912508F5AE
:10173B008274F63509F583D0E0F00E90F8BEE0C068
:10174B00E08E0875090074912508F58274F6350949
:10175B00F583D0E0F00E90F8BFE0C0E08E0875097D
:10176B000074912508F58274F63509F583D0E0F005
:10177B000E90F8C0E0C0E08E087509007491250842
:10178B00F58274F63509F583D0E0F00E90F8C1E0E0
:10179B00C0E08E0875090074912508F58274F63542
:1017AB0009F583D0E0F00E90F8C2E0C0E08E08752A
:1017BB00090074912508F58274F63509F583D0E09C
:1017CB00F00E74FF2E90F691F0EEF8790090F71171
:1017DB00E8F0A3E9F0124043021EC974146C7003C5
:1017EB0074006D6003021EC97E0185088285098322
:1017FB00A3E0F890F71DE06860031237F58E0A75C9
:10180B000B00E508250AF582E509350BF583E09019
:10181B00F71DF00E8E0A750B00E508250AF582E51B
:10182B0009350BF583E090F8B1F00E8E0A750B00BD
:10183B00E508250AF582E509350BF583E090F8B24A
:10184B00F00E8E0A750B00E508250AF582E50935C1
:10185B000BF583E090F8B3F00E8E0A750B00E508DC
:10186B00250AF582E509350BF583E090F8B4F00E07
:10187B008E0A750B00E508250AF582E509350BF58F
:10188B0083E090F8B5F00E8E0A750B00E508250A7B
:10189B00F582E509350BF583E090F8B6F00E8E0A6C
:1018AB00750B00E508250AF582E509350BF583E094
:1018BB0090F8B7F00E8E0A750B00E508250AF58235
:1018CB00E509350BF583E090F8B8F00E8E0A750B31
:1018DB0000E508250AF582E509350BF583E090F85C
:1018EB00B9F00E8E0A750B00E508250AF582E5099D
:1018FB00350BF583E090F8BAF00E8E0A750B00E508
:10190B0008250AF582E509350BF583E090F8BBF065
:10191B000E8E0A750B00E508250AF582E509350BD5
:10192B00F583E090F8BCF00E8E0A750B00E50825E8
:10193B000AF582E509350BF583E090F8BDF00E8EC4
:10194B000A750B00E508250AF582E509350BF583C9
:10195B00E090F8BEF00E8E0A750B00E508250AF52F
:10196B0082E509350BF583E090F8BFF00E8E0A7512
:10197B000B00E508250AF582E509350BF583E090A8
:10198B00F8C0F00E8E0A750B00E508250AF582E506
:10199B0009350BF583E090F8C1F00E8E0A750B003C
:1019AB00E508250AF582E509350BF583E090F8C2C9
:1019BB00F00E021EC97E008E0A750B007491250A6B
:1019CB00F58274F6350BF5837400F00E850882856D
:1019DB000983E0C0E08E0875090074912508F58233
:1019EB0074F63509F583D0E0F00E90FA8EE0C0E086
:1019FB008E0875090074912508F58274F63509F582
:101A0B0083D0E0F00E7900021ABF890875090074C3
:101A1B00812508F58274F83509F583E0A2E0E433FB
:101A2B00F50875090074077808120AEFE9FA7B00CC
:101A3B00EA75F002A4CAA8F075F000A428F875F0B6
:101A4B0002EBA428FB74212AF58274F83BF583E0A2
:101A5B00FAA3E0FBE4CBFAEA54014508C0E08E0898
:101A6B0075090074912508F58274F63509F583D054
:101A7B00E0F00EE9FA7B00EA75F002A4CAA8F07553
:101A8B00F000A428F875F002EBA428FB74212AF5CA
:101A9B008274F83BF583E0FAA3E0FBEAC0E08E0822
:101AAB0075090074912508F58274F63509F583D014
:101ABB00E0F00E09E9C394105003021A1574FF2EBF
:101ACB0090F691F0EEF8790090F711E8F0A3E9F0B9
:101ADB00124043021EC97E008E0A750B00749125BD
:101AEB000AF58274F6350BF5837400F00E850882C7
:101AFB00850983E0C0E08E0875090074912508F50F
:101B0B008274F63509F583D0E0F00E90FA8EE0C0C2
:101B1B00E08E0875090074912508F58274F6350975
:101B2B00F583D0E0F00E7900021BE08908750900FF
:101B3B0074912508F58274F83509F583E0A2E0E489
:101B4B0033F50875090074077808120AEFE9FA7B78
:101B5B0000EA75F002A4CAA8F075F000A428F87585
:101B6B00F002EBA428FB74412AF58274F83BF58351
:101B7B00E0FAA3E0FBE4CBFAEA54014508C0E08E9F
:101B8B000875090074912508F58274F63509F583FB
:101B9B00D0E0F00EE9FA7B00EA75F002A4CAA8F0D7
:101BAB0075F000A428F875F002EBA428FB74412A09
:101BBB00F58274F83BF583E0FAA3E0FBEAC0E08E14
:101BCB000875090074912508F58274F63509F583BB
:101BDB00D0E0F00E09E9C394105003021B3674FFDA
:101BEB002E90F691F0EEF8790090F711E8F0A3E95A
:101BFB00F0124043021EC97E008E0A750B007491D1
:101C0B00250AF58274F6350BF5837400F00E850802
:101C1B0082850983E0C0E08E087509007491250860
:101C2B00F58274F63509F583D0E0F00E90FA8EE06C
:101C3B00C0E08E0875090074912508F58274F6359D
:101C4B0009F583D0E0F00E7900021D0189087509B2
:101C5B000074A12508F58274F83509F583E0A2E03C
:101C6B00E433F50875090074077808120AEFE9FAEE
:101C7B007B00EA75F002A4CAA8F075F000A428F85E
:101C8B0075F002EBA428FB74612AF58274F83BF51E
:101C9B0083E0FAA3E0FBE4CBFAEA547F4508C0E00B
:101CAB008E0875090074912508F58274F63509F5CF
:101CBB0083D0E0F00EE9FA7B00EA75F002A4CAA823
:101CCB00F075F000A428F875F002EBA428FB746102
:101CDB002AF58274F83BF583E0FAA3E0FBEAC0E057
:101CEB008E0875090074912508F58274F63509F58F
:101CFB0083D0E0F00E09E9C394105003021C577413
:101D0B00FF2E90F691F0EEF8790090F711E8F0A322
:101D1B00E9F0124043021EC97E008E0A750B007457
:101D2B0091250AF58274F6350BF5837400F00E8558
:101D3B000882850983E0C0E08E0A750B007491253B
:101D4B000AF58274F6350BF583D0E0F00E85088228
:101D5B00850983E0F87900E8540FF8E95400F97429
:101D6B000628F58274F839F583E0C0E08E0A750B0E
:101D7B00007491250AF58274F6350BF583D0E0F0EB
:101D8B000E7900021E76850882850983E0FA7B00B6
:101D9B00EA540FFAEB5400FBEA75F010A4CAA8F052
:101DAB0075F000A428F875F010EBA428FBE9FC7D76
:101DBB0000EC75F002A4CCA8F075F000A428F8751F
:101DCB00F002EDA428FD745E2CFC74F73DFDEC2AAB
:101DDB00F582ED3BF583E0F50AA3E0F50B7408788B
:101DEB000A120AD0E50AC0E08E0A750B0074912521
:101DFB000AF58274F6350BF583D0E0F00E85088278
:101E0B00850983E0FA7B00EA540FFAEB5400FBEAF6
:101E1B0075F010A4CAA8F075F000A428F875F0109E
:101E2B00EBA428FBE9FC7D00EC75F002A4CCA8F038
:101E3B0075F000A428F875F002EDA428FD745E2C53
:101E4B00FC74F73DFDEC2AF582ED3BF583E0FAA33C
:101E5B00E0FBEAC0E08E0A750B007491250AF5824F
:101E6B0074F6350BF583D0E0F00E09E9C3940850F6
:101E7B0003021D9174FF2E90F691F0EEF87900900D
:101E8B00F711E8F0A3E9F0124043803274026C7052
:101E9B000374006D7028850882850983A3E0F879A7
:101EAB0000E875F00AA4C8AAF075F000A42AFA7528
:101EBB00F00AE9A42AF990F817E8F0A3E9F07F08F3
:101ECB00020BEE74F5120B887A007B0090F718E08A
:101EDB00F890F8B1E068701D90F719E0F890F8B23F
:101EEB00E068701190F71AE0F890F8B3E0687005AD
:101EFB00750900805590F718E0F890F8B4E0687019
:101F0B001D90F719E0F890F8B5E068701190F71A8A
:101F1B00E0F890F8B6E0687005750901802C90F731
:101F2B0018E0F890F8B7E068701D90F719E0F8909A
:101F3B00F8B8E068701190F71AE0F890F8B9E0681B
:101F4B007005750902800375090378007900E509AE
:101F5B00C39403400302201B90FA8EE0C4540FFE7F
:101F6B007F00EE75F002A4CEACF075F000A42CFC53
:101F7B0075F002EFA42CFFE509FC7D00EC75F01069
:101F8B00A4CC85F00875F000A42508F50875F010B1
:101F9B00EDA42508FD74DE2CFC74F73DFDEC2EF54D
:101FAB0082ED3FF583C3E09401A3E09400A2D265D8
:101FBB00D033405C90F811E0F8A3E0F990FA8EE092
:101FCB00C4540FFE7F00EE75F002A4CEACF075F09A
:101FDB0000A42CFC75F002EFA42CFFE509FC7D009E
:101FEB00EC75F010A4CC85F00875F000A42508F56D
:101FFB000875F010EDA42508FD74DE2CFC74F73D7C
:10200B00FDEC2EF582ED3FF583E028F8A3E039F9DE
:10201B0090F762E06401600B90F763E0640160038A
:10202B0002220F74912AF58274F63BF5837400F04B
:10203B000AEA70010B74912AF58274F63BF58374EE
:10204B0001F00AEA70010B90F763E0FC75F0029067
:10205B00F762E0A42CC0E074912AF58274F63BF58C
:10206B0083D0E0F00AEA70010BE8FCE9FDE4CDFC5B
:10207B00ECC0E074912AF58274F63BF583D0E0F066
:10208B000AEA70010BE8C0E074912AF58274F63B02
:10209B00F583D0E0F00AEA70010B90F762E064017F
:1020AB00704390F71E78081209D2E4C509F508E5CC
:1020BB0008C0E074912AF58274F63BF583D0E0F00A
:1020CB000AEA70010B90F71E78081209D2E508C0D6
:1020DB00E074912AF58274F63BF583D0E0F00AEABE
:1020EB0070270B802474912AF58274F63BF5837468
:1020FB0000F00AEA70010B74912AF58274F63BF535
:10210B00837400F00AEA70010B90F763E0640160DE
:10211B00030221A390F74E78081209D2E4C509F502
:10212B0008E508C0E074912AF58274F63BF583D07C
:10213B00E0F00AEA70010B90F74E78081209D2E52D
:10214B0008C0E074912AF58274F63BF583D0E0F079
:10215B000AEA70010B90F72678081209D2E4C50938
:10216B00F508E508C0E074912AF58274F63BF58317
:10217B00D0E0F00AEA70010B90F72678081209D22A
:10218B00E508C0E074912AF58274F63BF583D0E044
:10219B00F00AEA704B0B804874912AF58274F63B77
:1021AB00F5837400F00AEA70010B74912AF58274BE
:1021BB00F63BF5837400F00AEA70010B74912AF573
:1021CB008274F63BF5837400F00AEA70010B74918C
:1021DB002AF58274F63BF5837400F00AEA70010B62
:1021EB0074912AF58274F63BF58374FFF00AEA705A
:1021FB00010BEA24FF90F691F090F711EAF0A3EBB4
:10220B00F01240437F04020BEEC082C0837800794A
:10221B0000749128F58274F639F5837400F008E8A0
:10222B00700109749128F58274F639F5837402F004
:10223B0008E870010990F752E0FAA3E0FBE4CBFA4F
:10224B00EAC0E0749128F58274F639F583D0E0F09A
:10225B0008E870010990F752E0FAA3E0FBEAC0E04E
:10226B00749128F58274F639F583D0E0F008E870A4
:10227B000109E824FF90F691F090F711E8F0A3E93B
:10228B00F0124043D083D0822274F8120B8879006D
:10229B007E007F0080050EEE70010FC3EE9CEF9D5C
:1022AB005025EA2EF582EB3FF583E0C969C9780822
:1022BB008005E9C333F918E860DCE9A2E750F3E9DC
:1022CB00C333649BF980EF7F01020BEE74F7120BA3
:1022DB00887C007D00802DECFAEDFBEA75F002A402
:1022EB00CAAEF075F000A42EFE75F002EBA42EFB27
:1022FB0074FF2AF58274F13BF583E8F0A3E9F00C47
:10230B00EC70010DC3EC9400ED94015055780079FD
:10231B0000ECFAEDFBE4CAFB7E007F008011E8289D
:10232B00F8E933F9EA2AFAEB33FB0EEE70010FC32F
:10233B00EE9408EF9400509FE86AF508E96BF509F5
:10234B00E5085400F508E5095480F509E508450949
:10235B0060CCE828F8E933F9E86421F8E96410F96E
:10236B0080C27F02020BEE74F5120B88EAFEEBFFC4
:10237B007AFF7BFF7508007509008054EE2508F580
:10238B0082EF3509F583E0F50A750B00EAF8EBF9F6
:10239B00E4C9F8E8650AF8E9650BF9E4CAFBE875E6
:1023AB00F002A4C885F00A75F000A4250AF50A7599
:1023BB00F002E9A4250AF974FF28F58274F139F5C6
:1023CB0083E06AFAA3E06BFB0508E50870020509D8
:1023DB00C3E5089CE5099D40A37F04020BEEE9FBD6
:1023EB007900EB6AFC7800800BECA2E0500109EC61
:1023FB00C313FC08E8C3940640EF2274F4120B8855
:10240B0074F0120B02890890FA7EAC10AD117410A7
:10241B00120A157E077F00750900750C0080338545
:10242B000C0A750B00851082851183E582250AF550
:10243B0082E583350BF583E0FAA9081223E9E9F865
:10244B007900C3EE98EF995007850C09E8FEE9FF78
:10245B00050CE50CC3941040C6A9097410120B1897
:10246B007F05020BEEE9F8E8602F14602F14602F44
:10247B0014602F14602F14602F14602F14602F140E
:10248B00602F14602F14602F14602F14602F1460B2
:10249B002F14602F14602F80307915227931227917
:1024AB003222792322793422792522792622791630
:1024BB0022791A22791922792A22790B22792C2254
:1024CB00790D22790E22791C2279002274F8120BD5
:1024DB0088E9FE8A828B83EE24F57003022579242A
:1024EB00FE700302258714700302258E24F96031D8
:1024FB0014605F24FD606914605F24FE7003022585
:10250B009524F9603124FE603B14603F24FC605736
:10251B0024FE606124FB601014601424FE601E8096
:10252B00707400F0790080767401F07900806F741C
:10253B0002F0790080687403F0790080617404F014
:10254B007900805A7405F0790080537406F0790095
:10255B00804C7407F0790080457408F07900803E58
:10256B007409F079008037740AF079008030740BAD
:10257B00F079008029740CF079008022740DF079C9
:10258B0000801B740EF079008014740FF0790080BA
:10259B000DEEF9122406E9C0E0D0E0F079017F01DD
:1025AB00020BEE74F1120B8874FC120B0285108275
:1025BB00851183EAF0A3EBF07402120B6CECF0A321
:1025CB00EDF07415120B6CE0F50EA3E0F50F850E14
:1025DB0082850F837400F0A37400F07E007F00757A
:1025EB000800750900750A00750B000226BC8510E2
:1025FB0082851183E028FAA3E0398A82F583E054BF
:10260B000FF9122470E9F985080C85090D74067809
:10261B000C120AEF850C08850D09890C750D00E568
:10262B000C4508F508E50D4509F509EE2406FEEF06
:10263B003400FFC3EE9408EF9400A2D265D0334070
:10264B006885080C85090DEE24F8780C120AD0E584
:10265B000CF9E9C0E0850E82850F83E0F8A3E0F961
:10266B007413120B6CE028FAA3E0398A82F583D03D
:10267B00E0F0850E82850F83E02401F0A3E03400A7
:10268B00F0EE24F8FEEF34FFFF750C01750D00EE34
:10269B00780C120AEFE50C24FFF8E50D34FFF9E88E
:1026AB005508F508E95509F509050AE50A7002050B
:1026BB000B7402120B6CE0F8A3E0F9E875F002A4BE
:1026CB00C8AAF075F000A42AFA75F002E9A42AF959
:1026DB00C3E50A98E50B995049A80AA90BE9C3135E
:1026EB00F9E813F8E8FAE9FBEA75F002A4CAACF0D2
:1026FB0075F000A42CFC75F002EBA42CFBE50A6A28
:10270B007003E50B6B60030225F98510828511833D
:10271B00E028FAA3E0398A82F583E0C4540FF9026A
:10272B00260DEE4F6067750A01750B00EE780A12E5
:10273B000AEFE50A24FFF8E50B34FFF9E85508F535
:10274B0008E95509F50985080A85090B7408C39E24
:10275B00780A120AEF850A08850B09E508F9E9C022
:10276B00E0850E82850F83E0F8A3E0F97413120B5A
:10277B006CE028FAA3E0398A82F583D0E0F0850E6D
:10278B0082850F83E02401F0A3E03400F07404127F
:10279B000B187F08020BEE74F2120B8874F9120BF4
:1027AB00027405120B6CEAF0A3EBF07403120B6CC2
:1027BB00ECF0A3EDF0750800750900750E00750BB4
:1027CB00007401120B6C7400F0A37400F0022873F8
:1027DB008E0C8F0DE50824FA780C120AD0E50CC08C
:1027EB00E0851082851183D0E0F0851082851183FE
:1027FB00E0543FF0AA10AB11851082851183E0F9EC
:10280B001224D7E9E50AC454F0F50A530AF08510EF
:10281B0082851183E0420A630E01E50E701DE50A05
:10282B00C0E0E50BF879007415120B6CE028FAA3E5
:10283B00E0398A82F583D0E0F0050BE50824FAF540
:10284B0008E50934FFF509C3E5089406E50994008A
:10285B00A2D265D03340030227DB7401120B6CE06C
:10286B002401F0A3E03400F07401120B6CC082C0A1
:10287B00837403120B6CE0F8A3E0F9D083D082C30E
:10288B00E098A3E0995034E4CEFF7401120B6CE096
:10289B00F8A3E0F97405120B6CE028FAA3E0398A6F
:1028AB0082F583E0F87900E84EFEE94FFFE5082456
:1028BB0008F508E5093400F509808CE50BF879007B
:1028CB007417120B6CE0FAA3E0F5838A82E8F0A38D
:1028DB00E9F07407120B187F07020BEE74F1120B61
:1028EB008874FD120B027401120B6CECF0A3EDF06B
:1028FB00E9C0E0851082851183D0E0F0EAFEEBFFA2
:10290B00851082851183E06003022EEC8E828F830B
:10291B00E064AA600C8E828F83E064AB6003022CB0
:10292B00BD7401120B6CE064227004A3E0640060C0
:10293B0003022CBD8E828F83A3A3E0F890F8B1E045
:10294B006870218E828F83A3A3A3E0F890F8B2E086
:10295B006870118E828F83A3A3A3A3E0F890F8B3C2
:10296B00E06860698E828F83A3A3E0F890F8B4E0EF
:10297B006870218E828F83A3A3A3E0F890F8B5E053
:10298B006870118E828F83A3A3A3A3E0F890F8B68F
:10299B00E06860398E828F83A3A3E0F890F8B7E0EC
:1029AB00686003022E008E828F83A3A3A3E0F890AE
:1029BB00F8B8E0686003022E008E828F83A3A3A376
:1029CB00A3E0F890F8B9E0686003022E0090F71BC3
:1029DB00E0FCA3E0FD90FA8EE0FA8E828F83A3A336
:1029EB00A3A3A3A3A3A3E0F912579490FA8EE054E8
:1029FB00F0F88E828F83A3A3A3A3A3A3A3A3E05476
:102A0B00F0687003022CA98E828F83A3A3A3A3A3C8
:102A1B00A3A3A3E090FA8EF08E828F83A3A3E09002
:102A2B00F718F08E828F83A3A3A3E090F719F08E93
:102A3B00828F83A3A3A3A3E090F71AF08E828F83D8
:102A4B00E064AA700474018002740090F755F08E54
:102A5B00828F83A3A3A3A3A3A3A3E090F754F08E29
:102A6B00828F83A3A3A3A3A3A3A3A3A3E0F87900BB
:102A7B00E875F000A4C8AAF075F001A42AFA75F065
:102A8B0000E9A42AF98E828F83A3A3A3A3A3A3A3F4
:102A9B00A3A3A3E0FA7B00E82AFAE93BFBEB33950F
:102AAB00E0FCFD90F726EAF0A3EBF0A3ECF0A3ED2E
:102ABB00F0EE240BF582E43FF583E0F87900E8753E
:102ACB00F000A4C8AAF075F001A42AFA75F000E989
:102ADB00A42AF9EE240CF582E43FF583E0FA7B009F
:102AEB00E82AFAE93BFBEB3395E0FCFD90F72AEA89
:102AFB00F0A3EBF0A3ECF0A3EDF07900022BBAE915
:102B0B00FA7B00EA75F002A4CAA8F075F000A428BD
:102B1B00F875F002EBA428FBEE2AFAEF3BFBEA2454
:102B2B0011F582E43BF583E0FA7B00EA75F000A433
:102B3B00CAA8F075F001A428F875F000EBA428FBE7
:102B4B00E9FC7D00EC75F002A4CCA8F075F000A4B4
:102B5B0028F875F002EDA428FDEE2CFCEF3DFDEC02
:102B6B002412F582E43DF583E0FC7D00EA2CFAEBC0
:102B7B003DFBEB3395E0FCFDE9F508750900E50835
:102B8B0075F004A4C508A8F075F000A428F875F03A
:102B9B0004E509A428F509742E2508F58274F73588
:102BAB0009F583EAF0A3EBF0A3ECF0A3EDF009E950
:102BBB00C394075003022B0A90F754E0F990F726C1
:102BCB001209F0122FEAEAF8EBF9ECFAEDFB90F7A9
:102BDB00561209FC90F7637401F08E828F83A3A3C6
:102BEB00A3A3A3A3A3A3E0A2E0505990F71BE0F883
:102BFB00A3E0F990F811C3E098F0A3E099F08E826E
:102C0B008F83A3A3A3A3A3A3A3A3E0F912568F8A35
:102C1B00088B09A808A90990F811E028F0A3E0395E
:102C2B00F090F811C3E0941EA3E09400500A90F8C2
:102C3B00117432F0A37400F090F817741EF0A374A3
:102C4B0000F0805090F71BE0F8A3E0F990F811C367
:102C5B00E098F0A3E099F08E828F83A3A3A3A3A3A4
:102C6B00A3A3A3E04401F912568F90F817EAF0A33F
:102C7B00EBF090F817E0F8A3E0F9E849700A90F848
:102C8B001774C8F0A37400F090F817E0241EF0A39B
:102C9B00E03400F090F8157400F0A37400F08E820D
:102CAB008F83A3A3A3A3A3A3A3A3E090FA8EF00205
:102CBB002E008E828F83E064A26003022E008E8230
:102CCB008F83A3E0F890F8BAE0686003022E008EC1
:102CDB00828F83A3A3E0F890F8BBE0686003022E19
:102CEB00008E828F83A3A3A3E0F890F8BCE068600A
:102CFB0003022E008E828F83A3A3A3A3E064046040
:102D0B0003022E008E828F83A3A3A3A3A3E0F890CC
:102D1B00F3FFE0687003022E0090F762E06003029D
:102D2B002E008E828F83A3A3A3A3A3E090F3FFF0C7
:102D3B00EE240EF582E43FF583E0F508750900E516
:102D4B00082508F508E50933F509E5093395E0F59C
:102D5B000AF50BEE241DF582E43FF583E0A2E0E4D7
:102D6B0033F50C750D00E50D3395E0F50EF50F7889
:102D7B0008790C120994EE2419F582E43FF583E0EF
:102D8B0090F760F0EE241AF582E43FF583E090F7BC
:102D9B0061F090FA9F78081201C8505990F71E788D
:102DAB00081209E1EE240FF582E43FF583E0FA7B8C
:102DBB0000EA2AFAEB33FBEB3395E0FCFD90F722AC
:102DCB00EAF0A3EBF0A3ECF0A3EDF0EE241DF582FB
:102DDB00E43FF583E0A2E1E433F508750900E5096A
:102DEB003395E0F50AF50B90F72278081209A790B6
:102DFB00F7627401F08E828F83E064A56003022E6C
:102E0B00D27401120B6CE064077004A3E0640060E1
:102E1B0003022ED28E828F83A3E0F890F8BDE06878
:102E2B00701F8E828F83A3A3E0F890F8BEE06870CA
:102E3B00108E828F83A3A3A3E0F890F8BFE06860A5
:102E4B002D8E828F83A3E0F890F8C0E06870788EA7
:102E5B00828F83A3A3E0F890F8C1E06870698E823B
:102E6B008F83A3A3A3E0F890F8C2E068705990F8A1
:102E7B001BE0F8A3E0F9E849704D90F81B74C8F01B
:102E8B00A37400F08E828F83A3A3A3A3E0A2E0E43C
:102E9B0033F87900E875F000A4C8AAF075F001A426
:102EAB002AFA75F000E9A42AF98E828F83A3A3A3D3
:102EBB00A3A3E0FA7B00E82AF8E93BF990F752E884
:102ECB00F0A3E9F012221490F763E0640170129002
:102EDB00F762E06401700A90F8177400F0A37400B5
:102EEB00F07403120B187F08020BEE74F1120B88AF
:102EFB0090F763E064016003022FE590F762E064F2
:102F0B00016003022FE590FA9F78081209D290F71F
:102F1B001E78081201B85003022FE590F71E7808AF
:102F2B001209D2780812023D90F756780C1209D28A
:102F3B007808790C12079A90F760E0F890F75EE04A
:102F4B0068700C90F761E0F890F75FE06860209094
:102F5B00F760E090F75EF090F761E090F75FF0902C
:102F6B00F4007403F0A37400F090F4027400F0907A
:102F7B00F400E0F8A3E0F9E849600E90F400E024D7
:102F8B00FFF0A3E034FFF0803F90F71E780C12099E
:102F9B00D290F403E0F8A3E0F9E50CC398FAE50D41
:102FAB0099FB90F402E0702090F75A78081209E12F
:102FBB00EAC394F7F8EB94FFF9C3E89413E9940090
:102FCB00500690F4027401F090F71E78081209D2A3
:102FDB0090F403E508F0A3E509F07F08020BEE740B
:102FEB00F1120B8874F8120B027404120B6CEAF0DA
:102FFB00A3EBF0A3ECF0A3EDF0E9FE7404120B6C61
:10300B0078081209D2780812022290FAA3780C12CF
:10301B0009D27808790C12079AC008C009C00AC0F7
:10302B000B7404120B6C780C1209D2780C1202225E
:10303B0090FAA778081209D2780C79081203DBD022
:10304B000BD00AD009D0087808790C12055B8510D3
:10305B008285118378081209E18E08E4F509F50AD7
:10306B00F50B780812023D7404120B6C780C1209E4
:10307B00D2780C1202227808790C1203DBC008C03C
:10308B0009C00AC00B7404120B6C78081209D278B1
:10309B000812022290FAAB780C1209D27808790C3C
:1030AB001203DB90FAAF780C1209D27808790C1264
:1030BB00079A90FAB3780C1209D27808790C12059A
:1030CB0080D00FD00ED00DD00C780C79081203DB0A
:1030DB0085108285118378081209D2780C79081231
:1030EB000580851082851183780C1209E185108289
:1030FB008511831209F07408120B187F08020BEE6E
:10310B00C082C083122EF6123129121ECE90F762A6
:10311B007400F090F7637400F0D083D0822274F1C6
:10312B00120B887E0F02329CEEF87900E875F002E4
:10313B00A4C8AAF075F000A42AFA75F002E9A42A33
:10314B00F9741F28F58274F839F583E0FAA3E0FBD4
:10315B00EEF87900E875F002A4C8ACF075F000A4A5
:10316B002CFC75F002E9A42CF9742128F58274F873
:10317B0039F583EAF0A3EBF08E087509007480250E
:10318B0008F58274F83509F583E0C0E08E087509FF
:10319B000074812508F58274F83509F583D0E0F0C9
:1031AB00EEF87900E875F002A4C8AAF075F000A457
:1031BB002AFA75F002E9A42AF9743F28F58274F80B
:1031CB0039F583E0FAA3E0FBEEF87900E875F0023D
:1031DB00A4C8ACF075F000A42CFC75F002E9A42C8B
:1031EB00F9744128F58274F839F583EAF0A3EBF012
:1031FB008E0875090074902508F58274F83509F569
:10320B0083E0C0E08E0875090074912508F582747F
:10321B00F83509F583D0E0F0EEF87900E875F002A7
:10322B00A4C8AAF075F000A42AFA75F002E9A42A42
:10323B00F9745F28F58274F839F583E0FAA3E0FBA3
:10324B00EEF87900E875F002A4C8ACF075F000A4B4
:10325B002CFC75F002E9A42CF9746128F58274F842
:10326B0039F583EAF0A3EBF08E0875090074A025FD
:10327B0008F58274F83509F583E0C0E08E0875090E
:10328B000074A12508F58274F83509F583D0E0F0B8
:10329B001EEE600302313390F762E06401703290EE
:1032AB00F71E78081209D290F821E508F0A3E5097A
:1032BB00F090F8817401F090F72278081209D290FF
:1032CB00F823E508F0A3E509F090F8827401F0808B
:1032DB001090F8217400F0A37400F090F881740042
:1032EB00F090F763E0640160030234E390F75678E3
:1032FB00081209D290F75A780C1209D27808790C77
:10330B001203DB780812029A90F74E78081209E143
:10331B0090F75678081209D290F75A780C1209D206
:10332B007808790C1203DB780812029A90F841E5C1
:10333B0008F0A3E509F090F75A78081209D290FA31
:10334B00B7780C1209D27808790C12038C500F90B5
:10335B00F755E07004740180027400FF80027F0057
:10336B00EF90F891F090F72678081209D290F86157
:10337B00E508F0A3E509F090F755E07004740180BF
:10338B0002740090F8A1F07E00802D7C007D00EE91
:10339B00F87900E875F002A4C8AAF075F000A42A29
:1033AB00FA75F002E9A42AF9746328F58274F839E6
:1033BB00F583ECF0A3EDF00EEEC394084003023559
:1033CB000390F754E0F9EEFA7B00EA75F004A4CA17
:1033DB00A8F075F000A428F875F004EBA428FB7492
:1033EB002A2AF58274F73BF5831209F0122FEA8A29
:1033FB000C8B0D8C0E8D0F90F75A78081209D27822
:10340B000C79081203DB780C12029AEEF87900E8BB
:10341B0075F002A4C8AAF075F000A42AFA75F002A0
:10342B00E9A42AF9744328F58274F839F583E50C7D
:10343B00F0A3E50DF090F75A780C1209D290FAB779
:10344B0078081209D2780C790812038C500F90F778
:10345B0055E07004740180027400FA80027A00EA6D
:10346B00C0E08E0875090074922508F58274F83552
:10347B0009F583D0E0F0EEF87900E875F004A4C804
:10348B00ABF075F000A42BFB75F004E9A42BF974D9
:10349B002A28F58274F739F58378081209D2EEF8E9
:1034AB007900E875F002A4C8ABF075F000A42BFB13
:1034BB0075F002E9A42BF9746328F58274F839F5D9
:1034CB0083E508F0A3E509F090F755E060030233BC
:1034DB00967C017D0002339A90F8417400F0A3743E
:1034EB0000F090F8617400F0A37400F090F8917400
:1034FB0000F090F8A17400F07F08020BEE74F71245
:10350B000B88E9FEEE60030236688A828B83E064E7
:10351B00A260030236688A828B83A3E0F890F8BA24
:10352B00E06860030236688A828B83A3A3E0F8907D
:10353B00F8BBE06860030236688A828B83A3A3A37F
:10354B00E0F890F8BCE06860030236688A828B83EF
:10355B00A3A3A3A3E024FC601024FC600C1460095B
:10356B0014600614600302366890F58B74A2F08A1F
:10357B00828B83A3E090F58CF08A828B83A3A3E0EC
:10358B0090F58DF08A828B83A3A3A3E090F58EF048
:10359B0090F58F7406F08A828B83A3A3A3A3A3E079
:1035AB00547F90F590F08A828B83A3E090F591F095
:1035BB008A828B83A3A3E090F592F08A828B83A3FC
:1035CB00A3A3E090F593F090F5947400F08A828BAE
:1035DB0083A3A3A3A3E090F595F08A828B83A3A387
:1035EB00A3A3E024F8601B14600814600D14601A88
:1035FB00802090F596740AF0801E90F5967408F072
:10360B00801690F596740BF0800E90F5967404F07E
:10361B00800690F5967400F090F5977400F090F595
:10362B00987400F07C0E7D007A8B7BF5122294E966
:10363B0090F599F090F60B740FF0A37400F07508E9
:10364B00017509007808120CE990F60BE0FCA3E079
:10365B00FD7A8B7BF51244297402120B187F020240
:10366B000BEED2AF22C2AF22A2AFE433FA7B00C281
:10367B00AF22EAF8EAA2E092AF22EBC313FBEA1304
:10368B00FAC3EA9402EB940040140000000000001F
:10369B0000000000EA24FFFAEB34FFFB80E3227406
:1036AB00F8120B88EAFEEBFFEEF8EFF9E824FFFEC9
:1036BB00E934FFFFE84960097AE87B03123685801D
:1036CB00E77F01020BEE74F5120B88E9FE7A057B9E
:1036DB00F4127D447A887BF4127D44EE24FC600561
:1036EB00146010801C750800750996750A00750B1F
:1036FB0000801A7508007509E1750A00750B0080CA
:10370B000C7508007509C2750A01750B00AA08AB88
:10371B0009AC0AAD0B127B4D7F04020BEE74F51254
:10372B000B888A828B838C088D097E007F00800B2F
:10373B00750B00EE250AFEEF350BFFC3EE9508EF78
:10374B0095095043EEF8E508C398F9E5822EFCE5A0
:10375B00833FFD7A887BF4127D84E9F50AE50A70D4
:10376B00CF7A057B001236AAEEF8E508C398F9E587
:10377B00822EFCE5833FFD7A887BF4127D84E9255C
:10378B000AF50AE50A70A9EEFAEFFB7F04020BEECD
:10379B00023728C008ECF9EAFCEBFD7A057BF41242
:1037AB007E458908AA087B00D00822C0087A057BD1
:1037BB00F4127EEA8908AA087B00D00822E5F4A25D
:1037CB00E0E433F5F453F402C290C29143FE01439B
:1037DB00FE022253BEFBE5BEA2E650FA0053C6C062
:1037EB0053C68043C61843BE0422C082C08375E112
:1037FB000490DF0074FFF090DF017400F090DF02A3
:10380B0074FFF090DF037400F090DF047400F0900D
:10381B00DF057400F090DF067400F090DF0774068C
:10382B00F090DF087400F090F71DE0701490DF0942
:10383B007424F090DF0A742EF090DF0B7438F08054
:10384B001290DF097426F090DF0A7430F090DF0BD2
:10385B007400F090DF0C7459F090DF0D7466F090EB
:10386B00DF0E7433F090DF0F7462F090DF10741A78
:10387B00F090DF117413F090DF127407F090DF13E8
:10388B007430F090DF147418F090DF157417F0900B
:10389B00DF16746CF090DF177403F090DF18744030
:1038AB00F090DF197491F090DF1A7456F090DF1BD3
:1038BB007412F090DF1C74E9F090DF1D742AF09005
:1038CB00DF1E7400F090DF1F741FF090DF237488ED
:1038DB00F090DF247431F090DF257409F090DF272E
:1038EB007400F090DF287400F090DF297400F090E2
:1038FB00DF2A7400F090DF2B7400F090DF2C7452F1
:10390B00F090DF2D7400F090DF2E7400F0C2A890C1
:10391B00F81FE06401700575E102800375E104D0C6
:10392B0083D08222E5F154FE4402F5F143F33C755A
:10393B00C2A3E5C554E04408F5C543868053C4FED5
:10394B0043C40253C4FB53C4F753C4EF53C4DF53F4
:10395B00C4BF53C5DF22C082C083780079007800D2
:10396B0079008039740B28F58274F539F58374006E
:10397B00F0748B28F58274F539F5837400F07411AB
:10398B0028F58274F639F5837400F0749128F5826A
:10399B0074F639F5837400F008E8700109C3E894F4
:1039AB0080E99400A2D265D03340B990F60B740035
:1039BB00F0A37400F090F60D7400F0A37400F09077
:1039CB00F60F7400F0A37400F090F7117400F0A3DD
:1039DB007400F090F7137400F0A37400F090F715D7
:1039EB007400F0A37400F090F81174E0F0A3742E3F
:1039FB00F090F8137400F0A37400F090F8157400B5
:103A0B00F0A37400F090F81D7400F0A37400F09014
:103A1B00F7627400F090F71D7400F090F81F7400BB
:103A2B00F090F8207400F078007900023AE3E8FA9D
:103A3B00E9FBEA75F002A4CAACF075F000A42CFC0B
:103A4B0075F002EBA42CFB74212AF58274F83BF57C
:103A5B00837400F0A37400F0E8FAE9FBEA75F00256
:103A6B00A4CAACF075F000A42CFC75F002EBA42CEE
:103A7B00FB74412AF58274F83BF5837400F0A37450
:103A8B0000F0E8FAE9FBEA75F002A4CAACF075F0B5
:103A9B0000A42CFC75F002EBA42CFB74612AF582BC
:103AAB0074F83BF5837400F0A37400F0748128F56F
:103ABB008274F839F5837400F0749128F58274F8E8
:103ACB0039F5837400F074A128F58274F839F58305
:103ADB007400F008E8700109C3E89410E99400A29F
:103AEB00D265D0335003023A39D083D08222C0E062
:103AFB0074F2120C2E74FE120B02758A00C2EB7C50
:103B0B00017D00780079008021000AEA70010B74B6
:103B1B00FF6A700374FF6B70F0A29250087C007DFB
:103B2B00007820790008E8700109C3E89420E99433
:103B3B0000A2D265D03350067A007B0080D174018D
:103B4B006C700374006D703D90F9F9E064017013B3
:103B5B0090F9F97400F0D29185108285118374135A
:103B6B00F0801190F9F97401F0C2918510828511E2
:103B7B00837403F090F717E0700B7C017D00AA10A3
:103B8B00AB1112379B758A00C2EA7402120B187FB5
:103B9B0001020C8DC082C083C29090F9F97401F0C0
:103BAB00758A00C2EB438C02758D04D2AF439A1019
:103BBB00D083D08222C0E074F1120C2E758A00C221
:103BCB00C190F717E064016003023DC890F811C380
:103BDB00E094E0A3E0942E500C90F811E02401F057
:103BEB00A3E03400F090F817E0F8A3E0F9E849609F
:103BFB000C90F817E024FFF0A3E034FFF090F81BD3
:103C0B00E0F8A3E0F9E849600C90F81BE024FFF022
:103C1B00A3E034FFF090F811C082C08390F815E058
:103C2B00F8A3E0F9D083D082C3E098A3E0994003D6
:103C3B001266D790F81DC3E0941FA3E09400500CBC
:103C4B0090F81DE02401F0A3E03400F07A007B0033
:103C5B0078007900801974BD28F58274F839F583E2
:103C6B00E0FC7D00EA2CFAEB3DFB08E8700109C390
:103C7B00E89403E9940040DE78007900801974C061
:103C8B0028F58274F839F583E0FC7D00EA2CFAEB19
:103C9B003DFB08E8700109C3E89403E9940040DE9A
:103CAB00EA4B602190F811E0F8A3E0F97A0A7B0067
:103CBB00120A778A088B09E508450970047A018096
:103CCB00067A0080027A0090F81FE090F820F090BE
:103CDB00F817E0F8A3E0F9E849600B90F81F7401BE
:103CEB00F0D291023D8C74016A700990F81F740137
:103CFB00F0023D8C90F811C3E094E0A3E0942E40C9
:103D0B000A90F81F7401F0D291807690F811C0825E
:103D1B00C08390F813E0F8A3E0F9D083D082C3E01E
:103D2B0098A3E099405390F815C082C08390F81186
:103D3B00E0F8A3E0F9D083D082C3E098A3E09940E8
:103D4B003890F763E06401702690F762E0640170CD
:103D5B001E90FA8EE04401F912568F8A088B09E502
:103D6B00084509600A90F81F7400F0C29180129008
:103D7B00F81F7401F0D291800890F81F7400F0C204
:103D8B009190F81FE06401700B90F820E0700575BE
:103D9B00E102805290F81FE0704C90F820E0640133
:103DAB00704475E10490F763E06401600890F7627A
:103DBB00E06401703190F7657401F0802990F8117F
:103DCB00E02401F0A3E03400F090F811C3E094007C
:103DDB00A3E0945D401075E10475E10290F8117455
:103DEB0000F0A37400F07F02020C8D53E4FC75E22B
:103DFB0000C2B922C082C08390F8117400F0A37482
:103E0B0000F075E200D083D08222C082C08390F78D
:103E1B0017E0702475E40C75DBFF75DAFF75E200B3
:103E2B0090F8117400F0A37400F075E544C2C1D290
:103E3B00AFD2B975E40A801875E40875DB2475DA1E
:103E4B009E75E20075E544C2C1D2AFD2B975E40AE2
:103E5B00D083D08222C0E074F1120C2EC28B90F86A
:103E6B001DC3E0941EA3E094004012E5C190F6112F
:103E7B00F090F7157401F0A37400F08035E5C1C024
:103E8B00E090F715E02411F8A3E034F6F988828965
:103E9B0083D0E0F090F715C3E0947FA3E09400A2E9
:103EAB00D265D033500C90F715E02401F0A3E03429
:103EBB0000F090F81D7400F0A37400F07E01023F37
:103ECB005B90F611E0F879008A08750900E825087F
:103EDB00F8E93509F9741228F58274F639F583E09F
:103EEB00C0E08A0875090074112508F58274F6354F
:103EFB0009F583D0E0F00AEAC39B40C590F715C0E3
:103F0B0082C08390F611E0F87900D083D082E0C3B1
:103F1B0098F8A3E099F9E8C39401F8E99400F990B3
:103F2B00F715E8F0A3E9F090F715E0F8A3E0F9E84E
:103F3B0049601B90F611E0FA7B0090F715E0F8A3AF
:103F4B00E0F9C3EA98EB99A2D265D03340027E0028
:103F5B00EE605490F715C3E09401A3E09400A2D255
:103F6B0065D03340C290F611E0FA7B0090F715E074
:103F7B00F8A3E0F9C3EA98EB99A2D265D03350A726
:103F8B0090F611E0FC7D007A127BF6120F5890F63A
:103F9B0011E0FA90F715E0F8A3E0F9E8C39AC3949F
:103FAB0001FB7A00023F027F02020C8DC0E0C0D001
:103FBB00E8C0E0E9C0E0C082C083C2E990F713C05B
:103FCB0082C08390F711E0F8A3E0F9D083D082C3CD
:103FDB00E098A3E099A2D265D033400F90F7137409
:103FEB0000F0A37400F0539AFB801F90F713E024AA
:103FFB0091F8A3E034F6F988828983E0F5C190F754
:10400B0013E02401F0A3E03400F0D083D082D0E0A1
:10401B00F9D0E0F8D0D0D0E032C082C08390F71551
:10402B007400F0A37400F0C28B5386FB438640D21E
:10403B00AFD2AAD083D08222C082C08390F71374F0
:10404B0000F0A37400F0C2E95386FD90F713E0244F
:10405B0091F8A3E034F6F988828983E0F5C190F7F3
:10406B0013E02401F0A3E03400F0D2AF439A04D064
:10407B0083D082227582FA7583FE120B4E12396140
:10408B001237C81237DE1222D71237F5123B9F9028
:10409B00F7177400F012392F1240247A007B00803E
:1040AB001308E8700109C3E89437E9947F40F20ADA
:1040BB00EA70010BC3EA940FEB9400500678007979
:1040CB000080E3120D8AE990F717F07A007B0080ED
:1040DB001308E8700109C3E89437E9947F40F20AAA
:1040EB00EA70010BC3EA9405EB9400500678007953
:1040FB000080E3D2917A007B00801308E8700109FD
:10410B00C3E89437E9947F40F20AEA70010BC3EAE3
:10411B009405EB940050067800790080E3C2917A05
:10412B00007B00801308E8700109C3E89437E99419
:10413B007F40F20AEA70010BC3EA9405EB9400503E
:10414B00067800790080E3D2917A007B0080130817
:10415B00E8700109C3E89437E9947F40F20AEA70EA
:10416B00010BC3EA9405EB940050067800790080AC
:10417B00E3C29190F717E070547A007B008013082C
:10418B00E8700109C3E89437E9947F40F20AEA70BA
:10419B00010BC3EA9405EB9400500678007900807C
:1041AB00E3D2917A007B00801308E8700109C3E821
:1041BB009437E9947F40F20AEA70010BC3EA940545
:1041CB00EB940050067800790080E3C29190F717CA
:1041DB00E070097A0079051236D1803C1250031237
:1041EB003E158034851082851183E0F97401120B22
:1041FB006CE0FCA3E0FD7406120B761235088510FB
:10420B0082851183E0F97401120B6CE0FCA3E0FDD5
:10421B007406120B761228E77401120B7E740612C9
:10422B000B761244E7E9C0E0851082851183D0E05C
:10423B00F0A810A911880889097808120CE97403F1
:10424B00120B7E7408120B76124B037402120B18AE
:10425B007401120B6CE0F8A3E0F9E84960BA7A003C
:10426B00851082851183E0F890F58BE0A2E7E433AB
:10427B006870707401120B6CC082C08390F60BE0F7
:10428B0024FEF8A3E034FFF9D083D082E0687003FA
:10429B00A3E069704E7A017E0080010E8E087509CD
:1042AB00007401120B6CE0F8A3E0F9C3E50898E584
:1042BB000999502F8E087509007406120B6CE58254
:1042CB002508F582E5833509F583E0F88E08750935
:1042DB0000748D2508F58274F53509F583E0686067
:1042EB00BA7A0090F717E0640170030241EF740192
:1042FB006A701D7403120B6C7404F07C017D0074E6
:10430B0003120B7612379B127B9E124777024223C6
:10431B00851082851183E0700890F58B7402F08014
:10432B000690F58B7482F07401120B6CE0F8A3E02D
:10433B00F9E890F58CF07E00802E8E0875090074DC
:10434B0006120B6CE5822508F582E5833509F583AA
:10435B00E0C0E08E08750900748D2508F58274F5B0
:10436B003509F583D0E0F00E8E0875090074011243
:10437B000B6CE0F8A3E0F9C3E50898E5099940BA9E
:10438B007401120B6CE02402F8A3E03400F990F6F0
:10439B000BE8F0A3E9F07E00802890F60B8E0875F1
:1043AB000900E0C39508FCA3E09509FD8E0875098B
:1043BB0000748B2508FA74F53509FB12379B7430A2
:1043CB002EFE8E0875090090F60BE0F8A3E0F9C3FA
:1043DB00E50898E50999A2D265D033400302422340
:1043EB0090F60B8E08750900E0C39508F8A3E095CD
:1043FB0009F9C3E89431E99400A2D265D033409A0D
:10440B007C307D008E08750900748B2508FA74F5D5
:10441B003509FB12379B127B9E12477780A074F7EE
:10442B00120B887508437509F97808120CE97508A1
:10443B00C37509F87808120CE91225AE7404120B37
:10444B001890F943E0F8A3E0F9E890DF02F090F759
:10445B0017E07003123DF675E1047C007D007409D2
:10446B00120B6CE0FEA3E0FF801600EA24FFF8EBD2
:10447B0034FFF9E8FAE9FBE84970EF0CEC70010D39
:10448B00C3EC9EED9FA2D265D033503675E1037A13
:10449B00007B008018A28950FCC28974C32AF58264
:1044AB0074F83BF583E0F5D90AEA70010B90F943F8
:1044BB00E0F8A3E0F9C3EA98EB9940D97A007B10B6
:1044CB0080A990DF0274FFF075E10475E10290F7AB
:1044DB0017E07003123E157F02020BEE74F1120B04
:1044EB00888A0C8B0D8C0A8D0B75E10475E102909B
:1044FB00DF0274FFF090F94C74FFF090F717E07047
:10450B0003123E157E007F00805090F717E070037A
:10451B00123DF6E5D9C0E074C32EF58274F83FF571
:10452B0083D0E0F074C32EF58274F83FF583E090EE
:10453B00F94CF0EE4F701C90F811E0F8A3E0F990F5
:10454B00F71BE8F0A3E9F090F817E0240AF0A3E0DA
:10455B003400F0C2890EEE70010FC3EE9480EF941D
:10456B0000500990F94CE06003024619EE24FFF865
:10457B00EF34FFF990F943E8F0A3E9F075E1047823
:10458B000A120CE9780C120CE990F943E0FCA3E059
:10459B00FD7AC37BF81227A27404120B18850A82CA
:1045AB00850B83E024FFFCA3E034FFFDAA0CAB0DCD
:1045BB00122294E9FA850A82850B83E0F8A3E0F9CD
:1045CB00E50C28F8E50D39F9E824FFF582E934FF0D
:1045DB00F583E06A704D790002477290F765E064ED
:1045EB0001700912310B90F7657400F0E5E9A2E652
:1045FB00501C53E9BF90F94C74FFF07E007F00759F
:10460B00E10475E10290F717E07003123DFFA289F8
:10461B00500302451590F717E070C0127B9E1247AE
:10462B007780C9850A82850B83E024FEFCA3E034E6
:10463B00FFFDAA0CAB0D1223728A088B0985080E9D
:10464B0085090FA80E850A82850B83E0FAA3E0FB90
:10465B00E50C2AFAE50D3BFBEA24FFF582EB34FF70
:10466B00F583E068702E7408780E120AD0850A82E2
:10467B00850B83E0F8A3E0F9E50C28F8E50D39F993
:10468B00E824FEF582E934FFF583E0650E700579C9
:10469B0000024772850A82850B83E024FEFCA3E0AF
:1046AB0034FFFDAA0CAB0D122294E9FA850A828520
:1046BB000B83E0F8A3E0F9E50C28F8E50D39F9E8F0
:1046CB0024FEF582E934FFF583E06A7014850A82D3
:1046DB00850B83E024FFF0A3E034FFF07900024761
:1046EB0072850A82850B83E024FDFCA3E034FFFD79
:1046FB00AA0CAB0D1223728A088B0985080E85094B
:10470B000F850E08850A82850B83E0F8A3E0F9E597
:10471B000C28F8E50D39F9E824FEF582E934FFF5AC
:10472B0083E06508703C7408780E120AD0850A8203
:10473B00850B83E0F8A3E0F9E50C28F8E50D39F9D2
:10474B00E824FDF582E934FFF583E0650E701385EF
:10475B000A82850B83E024FFF0A3E034FFF079009D
:10476B0080051222D779017F08020BEE74F3120B2E
:10477B00887480120B021237B68A088B0985080AD7
:10478B0085090B750800750900802DE50AC395088E
:10479B00FCE50B9509FD851082851183E5822508C3
:1047AB00FAE5833509FB12379E127B9EE508243010
:1047BB00F508E5093400F509C3E508950AE50995FF
:1047CB000B501AE50AC39508F8E50B9509F9C3E8F0
:1047DB009431E9940040B47C307D0080B9750800B9
:1047EB00750900801490F60FE02401F0A3E034006B
:1047FB00F00508E50870020509C3E508950AE50907
:10480B00950B4003024AF9851082851183E58225B9
:10481B0008F582E5833509F583E0C0E090F60FE0FB
:10482B00240BF8A3E034F5F988828983D0E0F0906B
:10483B00F60FE0F8A3E0F9E849600302491B90F595
:10484B000BE06401702590F60FE02401F0A3E03437
:10485B0000F090F9457400F0A37400F090F94774E0
:10486B0000F0A37400F0123E15808690F50BE06407
:10487B0081702690F60FE02401F0A3E03400F09055
:10488B00F9457401F0A37400F090F9477400F0A39C
:10489B007400F0123E150247FC90F50BE064C170FA
:1048AB002690F60FE02401F0A3E03400F090F945D8
:1048BB007400F0A37400F090F9477401F0A3740036
:1048CB00F0123E150247FC90F50BE0640360089074
:1048DB00F50BE06413701C90F9F97401F0C2919020
:1048EB00F50B7403F07C017D007A0B7BF512379B83
:1048FB000247FC90F50BE060030247FC90F50B744C
:10490B005AF07C017D007A0B7BF512379B0247FC3A
:10491B0090F60FE064017004A3E06400702390F53F
:10492B000CE090F949F090F60FE02401F0A3E0348D
:10493B0000F090F717E060030247FC123DFF0247BF
:10494B00FC90F60FE064027004A3E06400702A9000
:10495B00F50DE0F8790090F94AE8F0A3E9F090F64C
:10496B000FE02401F0A3E03400F090F717E06003B0
:10497B000247FC123DFF0247FC90F60FC3E0940385
:10498B00A3E09400A2D265D03350030247FC90F70A
:10499B0017E07003123DFF90F60FC082C08390F9B1
:1049AB0049E0F87900E82402F8500109D083D0825D
:1049BB00E0687003A3E06960030247F0123DF690D4
:1049CB00F945E064017004A3E06400703990F60FC0
:1049DB00E02401FEA3E03400FF90F60FEEF0A3EF0E
:1049EB00F090F949E0FC7D007A0E7BF5122294E9F8
:1049FB00C0E0740B2EF58274F53FF583D0E0F09098
:104A0B00F949E02401F090F947E064017004A3E058
:104A1B006400707190F949E0FC7D007A0E7BF51211
:104A2B0023728A0C8B0DAA0CAB0D90F60FE02401B0
:104A3B00FCA3E03400FD90F60FECF0A3EDF08A0C34
:104A4B008B0D7408780C120AD0E50CC0E0740B2C9B
:104A5B00F58274F53DF583D0E0F090F60FE024017C
:104A6B00F8A3E03400F990F60FE8F0A3E9F0EAC000
:104A7B00E0740B28F58274F539F583D0E0F090F9EA
:104A8B0049E02402F090F949E0FC7D007A0E7BF5B9
:104A9B00126821E9703490F94A120CFE90F949E042
:104AAB00FC7D007A0E7BF51244297402120B18124E
:104ABB0022D77C037D007A0B7BF512379B90F60F88
:104ACB007400F0A37400F00247FC90F50C7400F036
:104ADB0090F50D7400F07C037D007A0B7BF512379B
:104AEB009B90F60F7400F0A37400F00247FC7480E7
:104AFB00120B187F06020BEE74F3120B88EAFEEB17
:104B0B00FF8C0A8D0B740D120B6CE0F508A3E0F50E
:104B1B0009850882850983E07003024F03780079C9
:104B2B0000801DEE28F582EF39F583E0C0E074CDEF
:104B3B0028F58274F939F583D0E0F008E8700109A3
:104B4B00850A82850B83E0FAA3E0FBC3E89AE99B15
:104B5B0040D1850A82850B83E0F8A3E0F990F9F741
:104B6B00E8F0A3E9F090F9CDE0540F44A090F9CD13
:104B7B00F090F9F7E0C39407F8A3E09400F9C3E8C9
:104B8B00941BE99400504290F9F77407F0A374005A
:104B9B00F090F9F7E024FFFCA3E034FFFD7ACD7B26
:104BAB00F9122294E9FA90F9F7E024CCF8A3E03457
:104BBB00F9F988828983E06A6003024EB385088223
:104BCB008509837400F0024EB390F9F7E0C3942289
:104BDB00F8A3E09400F9C3E89407E99400400302BA
:104BEB004E1690F9F77422F0A37400F090F9F7E0E9
:104BFB0024FEFCA3E034FFFD7ACD7BF91223728AED
:104C0B000C8B0DA80CA90DE8FA90F9F7E024CCFC5D
:104C1B00A3E034F9FD8C828D83E06A702C880C89BB
:104C2B000D7408780C120AD090F9F7E024CBF8A396
:104C3B00E034F9F988828983E0650C700C85088271
:104C4B008509837400F0024EB31222D790F9F5E078
:104C5B00F8A3E0F9E8497003024EB37800790080BD
:104C6B001F744D28F58274F939F583E0C0E074CDDB
:104C7B0028F58274F939F583D0E0F008E870010962
:104C8B00C3E89408E9940040D890F955E0241054F7
:104C9B007090F9D5F078007900801F745628F58252
:104CAB0074F939F583E0C0E074D828F58274F939CA
:104CBB00F583D0E0F008E8700109C3E89402E994A9
:104CCB000040D890F9DA7400F090F95BE090F9DCD1
:104CDB00F090F95DE090F9DDF078007900801F74B9
:104CEB005828F58274F939F583E0C0E074DE28F5B5
:104CFB008274F939F583D0E0F008E8700109C3E854
:104D0B009402E9940040D878007900801F745E28E3
:104D1B00F58274F939F583E0C0E074E028F582740C
:104D2B00F939F583D0E0F008E8700109C3E8940C79
:104D3B00E9940040D890F9EC7400F090F9F7E02476
:104D4B00FEFCA3E034FFFD7ACD7BF91223728A0CB3
:104D5B008B0DA80CA90DE8FA90F9F7E024CCFCA375
:104D6B00E034F9FD8C828D83E06A7029880C890D03
:104D7B007408780C120AD090F9F7E024CBF8A3E072
:104D8B0034F9F988828983E0650C7009850882857E
:104D9B0009837400F0850882850983E07003024E55
:104DAB00B390F9D5E0D2E0F090F9F7E024FEFCA344
:104DBB00E034FFFD7ACD7BF91223728A0C8B0DA8A0
:104DCB000CA90DE8FA90F9F7E024CCFCA3E034F938
:104DDB00FD8C828D83E06A6003024EB3880C890DD3
:104DEB007408780C120AD090F9F7E024CBF8A3E002
:104DFB0034F9F988828983E0650C6003024EB38530
:104E0B0008828509837400F0024EB390F9F7E0C372
:104E1B00942AF8A3E09400F9C3E8941DE994005098
:104E2B003E90F9F7742AF0A37400F090F9F7E024A0
:104E3B00FFFCA3E034FFFD7ACD7BF9122294E9FA53
:104E4B0090F9F7E024CCF8A3E034F9F98882898350
:104E5B00E06A70548508828509837400F08049905C
:104E6B00F9F7C3E09447A3E09400403C90F9F77442
:104E7B0047F0A37400F090F9F7E024FFFCA3E034B3
:104E8B00FFFD7ACD7BF9122294E9FA90F9F7E02431
:104E9B00CCF8A3E034F9F988828983E06A7009853C
:104EAB0008828509837400F0850882850983E06494
:104EBB0001604578007900801D74CD28F58274F966
:104ECB0039F583E0C0E0EE28F582EF39F583D0E0C9
:104EDB00F008E870010990F9F7E0FAA3E0FBC3E8EA
:104EEB009AE99B40D490F9F7E0F8A3E0F9850A82A0
:104EFB00850B83E8F0A3E9F0850882850983E064DC
:104F0B00017003024FFE8E828F83E064AA600C8EC9
:104F1B00828F83E064AB6003024FFE8E828F83A38C
:104F2B00A3E0F890F8B1E06870218E828F83A3A381
:104F3B00A3E0F890F8B2E06870118E828F83A3A380
:104F4B00A3A3E0F890F8B3E06860608E828F83A330
:104F5B00A3E0F890F8B4E06870218E828F83A3A34E
:104F6B00A3E0F890F8B5E06870118E828F83A3A34D
:104F7B00A3A3E0F890F8B6E06860308E828F83A32D
:104F8B00A3E0F890F8B7E06870698E828F83A3A3D3
:104F9B00A3E0F890F8B8E06870598E828F83A3A3D2
:104FAB00A3A3E0F890F8B9E0687048850A82850BF6
:104FBB0083E0F8A3E0F990F9F5E8F0A3E9F07800C5
:104FCB007900801DEE28F582EF39F583E0C0E0749F
:104FDB004D28F58274F939F583D0E0F008E87001BB
:104FEB0009850A82850B83E0FAA3E0FBC3E89AE903
:104FFB009B40D17F06020BEE74F5120B887E00806E
:10500B00010EEEC3940340030251217508000250B8
:10501B00DFEFF87900E875F002A4C8AAF075F0008C
:10502B00A42AFA75F002E9A42AF9E508FC7D00EC44
:10503B0075F004A4CCAAF075F000A42AFA75F0045C
:10504B00EDA42AFDEEFA7B00EA75F020A4CA85F0E8
:10505B000975F000A42509F50975F020EBA42509C5
:10506B00FB74662AFA74F73BFBEA2CFAEB3DFBEA7E
:10507B0028F582EB39F5837400F0A37400F0E50892
:10508B00FA7B00EA75F002A4CAA8F075F000A42818
:10509B00F875F002EBA428FBEEF87900E875F01038
:1050AB00A4C8ACF075F000A42CFC75F010E9A42C8E
:1050BB00F974DE28F874F739F9E82AF582E93BF53B
:1050CB00837400F0A37400F00FEFC394025003023B
:1050DB00501C0508E508C39408400302500C8508D2
:1050EB000A750B00EEF87900E875F008A4C8AAF071
:1050FB0075F000A42AFA75F008E9A42AF974C628F9
:10510B00F874F739F9E8250AF582E9350BF583745C
:10511B0000F07F0080B37F04020BEE74F7120B8854
:10512B007E00025277EFFA7B00EA75F004A4CAA85E
:10513B00F075F000A428F875F004EBA428FBEEF84A
:10514B007900E875F020A4C8ACF075F000A42CFC35
:10515B0075F020E9A42CF9746628F874F739F9E88E
:10516B002AF582E93BF583E0C394B0F8A3E09404FD
:10517B00F9C3E894B9E9940B4049EFFA7B00EA755F
:10518B00F004A4CAA8F075F000A428F875F004EB9D
:10519B00A428FBEEF87900E875F020A4C8ACF075F4
:1051AB00F000A42CFC75F020E9A42CF9746628F807
:1051BB0074F739F9E82AF582E93BF5837400F0A31B
:1051CB007400F0EEFA7B00EA75F020A4CAA8F07523
:1051DB00F000A428F875F020EBA428FBEFF8790079
:1051EB00E875F004A4C8ACF075F000A42CFC75F0C5
:1051FB0004E9A42CF9746828F874F739F9E82AF54E
:10520B0082E93BF583E0C39450F8A3E09400F9C323
:10521B00E894ABE994004049EEFA7B00EA75F02084
:10522B00A4CAA8F075F000A428F875F020EBA42808
:10523B00FBEFF87900E875F004A4C8ACF075F0004A
:10524B00A42CFC75F004E9A42CF9746828F874F705
:10525B0039F9E82AF582E93BF5837400F0A3740071
:10526B00F00FEFC3940850030251300EEEC39403BA
:10527B0050047F0080EC7E0080010EEEC39403404F
:10528B000302568A7F00025333EEFA7B00EA75F075
:10529B0020A4CAA8F075F000A428F875F020EBA4A0
:1052AB0028FBEFF87900E875F004A4C8ACF075F0B2
:1052BB0000A42CFC75F004E9A42CF9746828F8748C
:1052CB00F739F9E82AF582E93BF583E0F8A3E0F931
:1052DB007A0A7B00120A778A088B09EEFA7B00EABE
:1052EB0075F020A4CAA8F075F000A428F875F0207A
:1052FB00EBA428FBEFF87900E875F004A4C8ACF038
:10530B0075F000A42CFC75F004E9A42CF974682842
:10531B00F874F739F9E82AF582E93BF583C3E09590
:10532B0008F0A3E09509F00FEFC394084003025275
:10533B0085EFFA7B00EA75F004A4CAA8F075F000BB
:10534B00A428F875F004EBA428FBEEF87900E875B7
:10535B00F020A4C8ACF075F000A42CFC75F020E98B
:10536B00A42CF9746628F874F739F9E82AF582E960
:10537B003BF583E0F8A3E0F97A0A7B00120A778AFF
:10538B00088B09C3E5089406E50994005003025401
:10539B0094EFFA7B00EA75F004A4CAA8F075F0004C
:1053AB00A428F875F004EBA428FBEEF87900E87557
:1053BB00F020A4C8ACF075F000A42CFC75F020E92B
:1053CB00A42CF9746628F874F739F9E82AF582E900
:1053DB003BF583E0240AFCA3E03400FDEFFA7B00ED
:1053EB00EA75F004A4CAA8F075F000A428F875F0CB
:1053FB0004EBA428FBEEF87900E875F020A4C8852F
:10540B00F00875F000A42508F50875F020E9A4252F
:10541B0008F9746628F874F739F9E82AF582E93B3C
:10542B00F583E0F8A3E0F97A0A7B00120A778A0881
:10543B008B09ECC39508FCED9509FDEFFA7B00EAAF
:10544B0075F004A4CAA8F075F000A428F875F00450
:10545B00EBA428FBEEF87900E875F020A4C885F0E2
:10546B000875F000A42508F50875F020E9A42508B7
:10547B00F9746628F874F739F9E82AF582E93BF5EF
:10548B0083ECF0A3EDF0025532EFFA7B00EA75F0F6
:10549B0004A4CAA8F075F000A428F875F004EBA4D6
:1054AB0028FBEEF87900E875F020A4C8ACF075F095
:1054BB0000A42CFC75F020E9A42CF9746628F87470
:1054CB00F739F9E82AF582E93BF583E0F8A3E0F92F
:1054DB007A0A7B00120A778A088B09EFFA7B00EABB
:1054EB0075F004A4CAA8F075F000A428F875F004B0
:1054FB00EBA428FBEEF87900E875F020A4C8ACF01B
:10550B0075F000A42CFC75F020E9A42CF974662826
:10551B00F874F739F9E82AF582E93BF583C3E0958E
:10552B0008F0A3E09509F0EEFA7B00EA75F020A4F1
:10553B00CAA8F075F000A428F875F020EBA428FB9E
:10554B00EFF87900E875F004A4C8ACF075F000A48E
:10555B002CFC75F004E9A42CF9746828F874F7395D
:10556B00F9E82AF582E93BF583E0F8A3E0F97A0A3A
:10557B007B00120A778A088B09C3E5089406E509B4
:10558B0094005003025294EEFA7B00EA75F020A4CB
:10559B00CAA8F075F000A428F875F020EBA428FB3E
:1055AB00EFF87900E875F004A4C8ACF075F000A42E
:1055BB002CFC75F004E9A42CF9746828F874F739FD
:1055CB00F9E82AF582E93BF583E0240AFCA3E034F1
:1055DB0000FDEEFA7B00EA75F020A4CAA8F075F086
:1055EB0000A428F875F020EBA428FBEFF87900E86D
:1055FB0075F004A4C885F00875F000A42508F5081B
:10560B0075F004E9A42508F9746828F874F739F9DA
:10561B00E82AF582E93BF583E0F8A3E0F97A0A7B07
:10562B0000120A778A088B09ECC39508FCED9509E3
:10563B00FDEEFA7B00EA75F020A4CAA8F075F00025
:10564B00A428F875F020EBA428FBEFF87900E87597
:10565B00F004A4C885F00875F000A42508F50875BA
:10566B00F004E9A42508F9746828F874F739F9E807
:10567B002AF582E93BF583ECF0A3EDF00253327F80
:10568B0002020BEE74F8120B88E9FEEEC4540F54B1
:10569B0007FCEEA2E0E433F990F718E0F890F8B1CC
:1056AB00E068701C90F719E0F890F8B2E0687010A1
:1056BB0090F71AE0F890F8B3E06870047B00805222
:1056CB0090F718E0F890F8B4E068701C90F719E0C8
:1056DB00F890F8B5E068701090F71AE0F890F8B60B
:1056EB00E06870047B01802A90F718E0F890F8B717
:1056FB00E068701C90F719E0F890F8B8E06870104B
:10570B0090F71AE0F890F8B9E06870047B02800219
:10571B007B03EBC394035068E9F87900E875F0025A
:10572B00A4C8AAF075F000A42AFA75F002E9A42A1D
:10573B00F9ECFC7D00EC75F004A4CCAAF075F0003C
:10574B00A42AFA75F004EDA42AFDEBFA7B00EA75A6
:10575B00F020A4CAAFF075F000A42FFF75F020EB7A
:10576B00A42FFB74662AFA74F73BFBEA2CFAEB3D89
:10577B00FBEA28F582EB39F583E0FAA3E0FB800422
:10578B007A007B007F01020BEE74F1120B8874FF21
:10579B00120B02E9C0E0851082851183D0E0F08AFC
:1057AB000F8C0C8D0DE50FC4540F5407FCE50FA2A5
:1057BB00E0E433F50E851082851183E0C4540F5459
:1057CB0007FD851082851183E0A2E0E433FF90F79B
:1057DB0018E0F890F8B1E068701C90F719E0F890B9
:1057EB00F8B2E068701090F71AE0F890F8B3E06840
:1057FB0070047E00805290F718E0F890F8B4E068DF
:10580B00701C90F719E0F890F8B5E068701090F7FD
:10581B001AE0F890F8B6E06870047E01802A90F7E1
:10582B0018E0F890F8B7E068701C90F719E0F89062
:10583B00F8B8E068701090F71AE0F890F8B9E068E3
:10584B0070047E0280027E03EEC394034003026267
:10585B00EA8D0875090085080A85090B8C087509FE
:10586B0000E5082401F8E43509F97A087B00120AEF
:10587B006F8A088B09E508650A7004E509650B60FA
:10588B000302614EECC39471400302614EC3E50CFD
:10589B0094C0E50D9412400302614EE50E600302C5
:1058AB005A2DEF6003025A2DECFA7B00EA75F004D7
:1058BB00A4CAA8F075F000A428F875F004EBA4288E
:1058CB00FBEEF87900E875F020A4C8ADF075F00098
:1058DB00A42DFD75F020E9A42DF9746628F874F752
:1058EB0039F9E82AF582E93BF583E0F8A3E0F9E81A
:1058FB0049704CECFA7B00EA75F004A4CAA8F07569
:10590B00F000A428F875F004EBA428FBEEF879005E
:10591B00E875F020A4C8ACF075F000A42CFC75F071
:10592B0020E9A42CF9746628F874F739F9E82AF5FC
:10593B0082E93BF583E50CF0A3E50DF00262DAECAE
:10594B00FA7B00EA75F004A4CAA8F075F000A4284D
:10595B00F875F004EBA428FBEEF87900E875F0205D
:10596B00A4C8ADF075F000A42DFD75F020E9A42DB1
:10597B00F9746628F874F739F9E82AF582E93BF5EA
:10598B0083E0250CF0A3E0350DF0ECFA7B00EA7513
:10599B00F004A4CAA8F075F000A428F875F004EB85
:1059AB00A428FBEEF87900E875F020A4C8ADF075DB
:1059BB00F000A42DFD75F020E9A42DF9746628F8EC
:1059CB0074F739F9E82AF582E93BF583E0F8A3E0AF
:1059DB00F9E9C313F9E813F8ECFC7D00EC75F0045E
:1059EB00A4CCAAF075F000A42AFA75F004EDA42A51
:1059FB00FDEEFA7B00EA75F020A4CAAFF075F0005B
:105A0B00A42FFF75F020EBA42FFB74662AFA74F712
:105A1B003BFBEA2CF582EB3DF583E8F0A3E9F002C2
:105A2B0062DAE50E6003025FC574016F6003025F0B
:105A3B00C5EEF87900E875F020A4C8AAF075F0005F
:105A4B00A42AFA75F020E9A42AF9EDFA7B00EA758D
:105A5B00F004A4CAAFF075F000A42FFF75F004EBAF
:105A6B00A42FFB74682AFA74F73BFBEA28F582EB48
:105A7B0039F583E0F8A3E0F9E8497003025D07EC20
:105A8B00F87900E875F004A4C8AAF075F000A42A10
:105A9B00FA75F004E9A42AF9EEFA7B00EA75F02016
:105AAB00A4CAAFF075F000A42FFF75F020EBA42F64
:105ABB00FB74662AFA74F73BFBEA28F582EB39F59F
:105ACB0083E0F8A3E0F9E8496003025B76EEF8792E
:105ADB0000E875F020A4C8AAF075F000A42AFA75A6
:105AEB00F020E9A42AF9EDFA7B00EA75F004A4CAC8
:105AFB00AFF075F000A42FFF75F004EBA42FFB742F
:105B0B00682AFA74F73BFBEA28F582EB39F583E058
:105B1B00F8A3E0F9E50CC398F508E50D99F509EC48
