:020000040000FA
:030000000200CD2E
:03001300023E7931
:03003300026F77E2
:03003B00023FD0B1
:03004B00023BD99C
:03006B0002702CF4
:10007B00023B1200000080FBE479127807B8000203
:10008B008004F709D8FCE490F1FF788079098002AD
:10009B00F0A3D8FCD9FA7A7E7BFA9000DC7846790B
:1000AB00018015E493A3AD82AE838A828B83F0A388
:1000BB00AA82AB838D828E83D8E9D9E7124098123E
:1000CB00007E75D0007581BF7510FF7511F10200B0
:1000DB008315313223342526161A192A0B2C0D0EB3
:1000EB001C802101B001B001B001B001B8010000CA
:1000FB0080431E00000000002043240B183A9C5341
:10010B00C9350000804717B7D13601000000205DCC
:10011B000000410100001201000202000020510406
:10012B00A616090001020301090243000201008027
:10013B00190904000001020201000524001001044A
:10014B002402020524060001052401000107058293
:10015B000340004009040100020A00000007058467
:10016B0002400001070504024000010403090416C4
:10017B00034E006900670068007400730063006F32
:10018B00007500740018034D004D0043006F006DA7
:10019B00006D0061006E00640065007200080330A2
:1001AB0000300031003C0100005F010000C3E0960D
:1001BB0008A3E09608A3E09608A3E09622C008C324
:1001CB00E096F50808A3E096420808A3E0964208DB
:1001DB0008A3E09645087001D3D00822E96C70069D
:1001EB00EA6D7002EB6E22BB0102E722C082C08374
:1001FB0089828A83BB0003E08002E493D083D082A0
:10020B0022BB000EC082C0838A838982F0D083D048
:10021B008222BB0101F722080808E630E711120918
:10022B008012023A080808C64480C618181822180B
:10023B001818E9799EC608CAC608CBC608CCC6C32F
:10024B0070207996CACBCC7019798ECBCC70137980
:10025B0086CC700EF9802ACA33CACB33CBCC33CCC5
:10026B00331930E7F2CCCBCA3350147004EA30E0C8
:10027B000DE4CA3ACACB3BCBCC3CCC500209C3E908
:10028B0013C6CC182313C6CB18C6CA18C6F922122C
:10029B0002E530F03912032A80341202E520F01403
:1002AB0030E72B74FFFCFBFA747F8022E4FCFBFA33
:1002BB007480801AB48008BC00F2BB00EF800F5032
:1002CB00EBF9E4C39AFAE49BFBE49CFCE499C6CCFF
:1002DB0018C6CB18C6CA18C6F922E4C9C608CAC6BE
:1002EB0008CBC6D3330308CCC63392F0C3947F40FC
:1002FB002E94184019C9B90704CACBCC225025C378
:10030B0009CA33CACB33CBCC33CC33D9F422F46008
:10031B000DC9CCC313CB13CBCA13CAD9F6CC22E469
:10032B00FCFBFA2214FCFBFA22E6261846184618A8
:10033B004622E72719471947194722181818E608C4
:10034B0046087009E626087005E633F422082219E0
:10035B001919E70947097009E727097005E733F40D
:10036B00220922E6084608C3134608336002E63327
:10037B00F422E7094709C3134709336002E733F453
:10038B002212036E601C12037D6017120334700778
:10039B0012033D7001D322C0D012033D7006D0D0A2
:1003AB00B322C32233D0D0501430E0F6C3E7960803
:1003BB0009E7960809E7960809E796B32220E0D5E6
:1003CB00E6970809E6970809E6970809E697B32226
:1003DB000012036E604F12037D6012E7548066F6C5
:1003EB00120346701112033D703B090909F4F6180C
:1003FB00F618F618F62212035A7015120334080871
:10040B000860EAE6447FF618768018E4F618F622C0
:10041B00120334601612033D7012E4F608F608F668
:10042B0008E65480F609090918181822EAC0E0EB0F
:10043B00C0E0ECC0E0EDC0E0E687F0A4FBACF00858
:10044B00E687F0A42CFCE435F0FA1809E687F0A453
:10045B002C4B60027401CA35F0FCE433FB09E687D0
:10046B00F0D2F7A42CCB35F0FC1908E687F0A42BBF
:10047B00CC35F0FBE433FD0819E687F0D2E7A42C6A
:10048B004ACB35F0CD3400FC09E687F0D2E7A42D3A
:10049B00CC35F0FDE433FA0918E687F0D2F7A42C3B
:1004AB00CD35F0CA3400FC08E687F0D2E7D2F7A4CA
:1004BB002ACC35F07A7E20E70B0ACB33CBCD33CD6C
:1004CB00CC33CC33CB3350147004ED30E00ED2F17F
:1004DB00E4CD3DCDCC3CCC3B5005DA05C2F1EB5421
:1004EB007FC63308E63392F0FBE73309E733C39A51
:1004FB00502D2B70190C0D4C4D70151806E608C3BA
:10050B0033700D20F10AA2F013F6E418800B40248F
:10051B00E4F630F002768018F618F618F68024D33D
:10052B003B14501074FFA2F013F6187680E418F603
:10053B0018F6800FA2F013F618E63303F618ECF654
:10054B0018EDF6D0E0FDD0E0FCD0E0FBD0E0FA22D5
:10055B0012037D604612036E603DE9687008F61861
:10056B00F618F618F622748067F712058F09090939
:10057B00748067F72212036E601D12037D700519DC
:10058B001919801A120346701F12035AC37003E61F
:10059B00673319191940071818182208080874FF2F
:1005AB00F618F618F618F62212035A601712033DC6
:1005BB00702192F01203347019501720F0140808B0
:1005CB0008090909E7F61819E7F61819E7F61819D3
:1005DB00E7F62212033460E6E869701F0808E62488
:1005EB0080F608E436F618547FB47F0CE65480602E
:1005FB0007F6E418F618F622181822E9C6CC08C636
:10060B00CD08C6CE08C6CFC0E0E8C0E0EAC0E0EB3C
:10061B00C0E009E9F809E7FA09E7FBE6F918E6F89B
:10062B00C3EC98ED99EE9AEBC2E7F5F0EFC2E795C4
:10063B00F0500E600CEBCFFBEACEFAE9CDF9E8CC2B
:10064B00F8EAA2E7D2E7FAEB33FB13F5F0EEA2E7F9
:10065B00D2E7FEEF33FFC5F013A2E730E601B31389
:10066B00C5F0C3C0E0C0F07F00C39BFB605E941875
:10067B00600F401D14601AD0E023F9D0E0F8020798
:10068B00618AF0E9486003D2F0E4AFF0FAF9F88040
:10069B003BEB30E40D89F0EA6003D2F0E4AFF0F904
:1006AB00CAF8EB30E30D88F0EF6002D2F0AFF0E464
:1006BB00CAC9F8EB54076014FBC3EA13FAE913F940
:1006CB00E813F8EF135002D2E0FFDBEDD0E0C0E00F
:1006DB0030E739C3E49FFFF5F0EC98FC42F0ED995D
:1006EB00FD42F0EE9AFE42F0D0E0F9D0E0F8E5F0F2
:1006FB00607AE923F9EE20E742D8028067C3EF3333
:10070B00FFEC33FCED33FDEE33FE80EAEC28FCED21
:10071B0039FDEE3AFED0E023F9D0E0F84002801B21
:10072B00C3EE13FEED13FDEC13FCEF135002D2E0FE
:10073B00FF08B800067F7F74FF802EEF3350178CB5
:10074B00F020F00260100CBC000C0DBD00080EBEBA
:10075B00000408E860DFE933E813FFEE2313FE4FD4
:10076B004D4C8008E95480FFE4FEFDFCEE33EF3383
:10077B00F47004FCFD7E80D0E0FBD0E0FAD0E0F812
:10078B00D0E0CFC618CEC618CDC618CCC6F92212EB
:10079B00036E70041818182212037D700D74FFF687
:1007AB001819F61819F61819F622E7548066F6127E
:1007BB000334700F12033D70F014F608F608F608B8
:1007CB00F680D112033D700CF608F608768008E629
:1007DB00447F80EC12035D700C12034960BFE6543A
:1007EB0080F6E480BB120349700519191980A5E83E
:1007FB0069700C763F18768018F618F6E8F922E641
:10080B00CDC0E018ECC0E0E633CD33CDD313F6E723
:10081B0019FCE7191933CC33C3947F400ECD9D508F
:10082B002408E65480F6E418F6800FF4043D1450C7
:10083B001408E6447FF6187680E418F618F6D0E034
:10084B00FCD0E0FD22CCD313CCFD18E4C6CBC0E02A
:10085B0018E4C6CAC0E00808ED08C633E613F6185C
:10086B00E433C675F003C3CA97CA09CB97CB199C5F
:10087B0040047D08802EBD000302094316B6FF0518
:10088B000606081618C3CA33CACB33CB33CA27CADA
:10089B0009CB37CB193CC37D08803E187D0820E778
:1008AB005CC633C6CA33CACB33CB33DDF1D5F0EBE1
:1008BB0030E77BCA97CA09CB974ACB199C406F4B41
:1008CB007025E620E0218066187D08C3CA97CA0907
:1008DB00CB97CB199CD3C633C6CA33CACB33CB33D6
:1008EB0050C9DDE7D5F0E1D3E4C636C608C636C637
:1008FB0008C636C608C636C61818188031C3CA973C
:10090B00CA09CB97CB199CB34097C633C6CA33CA17
:10091B00CB33CB33DD34D5F02EC6A2E0C640C8CAEC
:10092B0027CA09CB37194A70BECB3CB480B908082B
:10093B00E63308E633601F181818D0E0FAD0E0FB56
:10094B00D0E0FCD0E0FD22187D08CA27CA09CB37BE
:10095B00CB193CD3808013F618E4B67F11F618B68A
:10096B00FF0EF618C60470D20808768080CAF618F7
:10097B00F618F680C5181818E4C396F608E496F630
:10098B0008E496F608E496F622E627F60809E63719
:10099B00F60809E637F60809E637F622E026F008EE
:1009AB00A3E036F008A3E036F008A3E036F022C34C
:1009BB00E0C696F608A3E0C696F608A3E0C696F640
:1009CB0008A3E0C696F622E0F608A3E0F608A3E03B
:1009DB00F608A3E0F622E6F008A3E6F008A3E6F09B
:1009EB0008A3E6F022E0FAA3E0FBA3E0FCA3E0FD02
:1009FB0022E8F0A3E9F0A3EAF0A3EBF022CAC0E0EF
:100A0B00E6F0A308DAFAD0E0FA22CAC0E0E0A3C508
:100A1B0082CCC582C583CDC583F0A3C582CCC582EC
:100A2B00C583CDC583DAE6D0E0CA22C3E498F8E4E7
:100A3B0099F9120A778026C3E49AFAE49BFBE92022
:100A4B00E7E9120A77E498F8E499F922C3E498F8F5
:100A5B00E499F9120A77E498F8E499F9C3E49AFA5D
:100A6B00E49BFB22EB20E7CFE920E7E0B90010BBCA
:100A7B000008E88AF084F8AAF022E4FBC8FA22EB1B
:100A8B0070227B10C833C8C933C9335007C39AC30C
:100A9B00DBF280069A50012ADBEAC833F4C8C9336B
:100AAB00F4C9FA2275F008E4C833C8C933C933C98D
:100ABB009AC99B5004C92AC93BD5F0ECFBC833F447
:100ACB00C8E4C9FA22600D08C6A2E713C618C613FC
:100ADB00C6D5E0F322600C08C6C313C618C613C6EE
:100AEB00D5E0F422700422600D18C6C333C608C6C5
:100AFB0033C6D5E0F41822251010AF08F510400CC2
:100B0B0015118008F51040021511D2AF2200C0D08C
:100B1B00251010AF08F510500C05118008F510507A
:100B2B00020511D2AFD0D0222510F58210AF08F5F7
:100B3B0010400C15118008F51040021511D2AF852D
:100B4B00118322C5822510C582C583351110AF07CD
:100B5B00F5118582108007F511858210D2AFC58300
:100B6B00222510F582E43511F583222510FAE435A0
:100B7B0011FB222510FCE43511FD22E4732510C571
:100B8B0082C0E0E51134FFC583C0E0E510C3958258
:100B9B0024F910AF08858311858210800885831195
:100BAB00858210D2AFCEF0A3E520F0A37808E6083B
:100BBB00F0A3DEFAEFF0A3E58124FBF8E608F0A33F
:100BCB00E608F0A30808E608F0A3E608F0A31581F1
:100BDB001581D0E0FED0E0F815811581E8C0E0EE7C
:100BEB00C0E022851183851082E0A3FEE0A3F520EF
:100BFB007808E0A3F608DFFAE0A3FFE0A3C0E0E08B
:100C0B00A3C0E0E0A3C0E0E0A3C0E010AF08858282
:100C1B00108583118008858210858311D2AFD08314
:100C2B00D08222C0D02510C582C0E0E51134FFC5AB
:100C3B0083C0E0E510C3958224F310AF08858311C0
:100C4B008582108008858311858210D2AFC8F0A3EE
:100C5B00E9F0A3EAF0A3EBF0A37908E709F0A3D836
:100C6B00FAECF0A3EDF0A3EEF0A3EFF0A3D0E0F0DD
:100C7B00A3D0E0F0A3D0E0F0A3E520F0A3E5F0F0E3
:100C8B00A322851183851082E0C0E0A3E0F9A3E0E5
:100C9B00FAA3E0FBA37808E0F608A3DFFAE0FCA3D5
:100CAB00E0FDA3E0FEA3E0FFA3E0C0E0A3E0C0E013
:100CBB00A3E0F5D0A3E0F520A3E0A3F5F010AF0877
:100CCB008583118582108008858311858210D2AFB0
:100CDB00D082D083D0E0F8D0E03274038004740269
:100CEB008000C0E0F404120B33D0E0120A08227427
:100CFB0003800474028000CCC0E0EDC0E0E510C3BB
:100D0B009CCCAD1150011D10AF068C108D118006BF
:100D1B008C108D11D2AF120A15D0E0FDD0E0FC2261
:100D2B00D083D082CCC0E0E493A36006120D55149F
:100D3B0070FAE493A36006120D741470FAD0E0FC01
:100D4B00E493A3C0E0E493C0E022C0E0E493A3D318
:100D5B009C5010E493A3C39C400AD0E0D0E0D0E0B9
:100D6B00020D48A3A3A3D0E022C0E0E493A36C70D0
:100D7B0009D0E0D0E0D0E0020D48A3A3D0E022746C
:100D8B00F7120B887E007F0074912EF58274F63F6C
:100D9B00F5837441F00EEE70010F74912EF5827491
:100DAB00F63FF5837454F00EEE70010F74912EF52F
:100DBB008274F63FF583742BF00EEE70010F749175
:100DCB002EF58274F63FF583744EF00EEE70010F24
:100DDB0074912EF58274F63FF5837441F00EEE702C
:100DEB00010F74912EF58274F63FF583744DF00E5E
:100DFB00EE70010F74912EF58274F63FF5837445F6
:100E0B00F00EEE70010F74912EF58274F63FF583A0
:100E1B00746DF00EEE70010F74912EF58274F63F27
:100E2B00F5837444F00EEE70010F74912EF58274FD
:100E3B00F63FF5837472F00EEE70010F74912EF580
:100E4B008274F63FF5837469F00EEE70010F7491A6
:100E5B002EF58274F63FF5837470F00EEE70010F71
:100E6B0090F7157400F0A37400F075080375090072
:100E7B00800CE50824FFF508E50934FFF50990F728
:100E8B0015E0F8A3E0F9E849703BE5084509603542
:100E9B0090F7117402F0A37400F012405C780079A3
:100EAB000080130AEA70010BC3EA9437EB947F407E
:100EBB00F208E8700109C3E89405E9940050B37A8D
:100ECB00007B0080E3E50845097004790080799088
:100EDB00F7157400F0A37400F07508037509008012
:100EEB000CE50824FFF508E50934FFF50990F71523
:100EFB00E0F8A3E0F9E8497039E50845096033905B
:100F0B00F711EEF0A3EFF012405C7800790080133C
:100F1B000AEA70010BC3EA9437EB947F40F208E8BE
:100F2B00700109C3E89405E9940050B57A007B0081
:100F3B0080E3E508450970047900800C90F715747F
:100F4B0000F0A37400F079017F02020BEE74F11232
:100F5B000B888A088B0990F717E07003021EE28555
:100F6B000882850983E0120D2B031012D110181A79
:100F7B003C1D2022641208009C0F13481314971574
:100F8B0015D91916FA1A171B1C24E6172BB01EE2DB
:100F9B001E7E008E0A750B007491250AF58274F67D
:100FAB00350BF5837400F00E850882850983E0C04C
:100FBB00E08E0875090074912508F58274F63509E1
:100FCB00F583D0E0F00E8E0875090074912508F5B5
:100FDB008274F63509F583746DF00E8E0875090071
:100FEB0074912508F58274F63509F5837444F00E77
:100FFB008E0875090074912508F58274F63509F58C
:10100B00837472F00E8E0875090074912508F582B1
:10101B0074F63509F5837469F00E8E087509007442
:10102B00912508F58274F63509F5837470F00E8EF0
:10103B000875090074912508F58274F63509F58356
:10104B007420F00E8E0875090074912508F58274D2
:10105B00F63509F5837476F00E8E087509007491D8
:10106B002508F58274F63509F5837431F00E8E0878
:10107B0075090074912508F58274F63509F58374AA
:10108B002EF00E8E0875090074912508F58274F602
:10109B003509F5837430F00E8E08750900749125AF
:1010AB0008F58274F63509F5837431F00E74FF2E52
:1010BB0090F691F0EEF8790090F711E8F0A3E9F0D3
:1010CB0012405C021EE27E008E0A750B00749125A5
:1010DB000AF58274F6350BF5837400F00E850882E1
:1010EB00850983E0C0E08E0A750B007491250AF523
:1010FB008274F6350BF583D0E0F00E7900021241C5
:10110B00E8FC7D00EC75F002A4CCAAF075F000A40D
:10111B002AFA75F002EDA42AFDE9F50A750B00E534
:10112B000A75F004A4C50AAAF075F000A42AFA7592
:10113B00F004E50BA42AF50B850882850983E0FAF8
:10114B007B00EA5403FAEB5400FBEA75F020A4CAC7
:10115B00AFF075F000A42FFF75F020EBA42FFB74FC
:10116B00662AFA74F73BFBEA250AFAEB350BFBEA26
:10117B002CF582EB3DF583E0FAA3E0FBE4CBFAEA36
:10118B00C0E08E0A750B007491250AF58274F63552
:10119B000BF583D0E0F00EE8FC7D00EC75F002A4BB
:1011AB00CCAAF075F000A42AFA75F002EDA42AFD82
:1011BB00E9F50A750B00E50A75F004A4C50AAAF057
:1011CB0075F000A42AFA75F004E50BA42AF50B853B
:1011DB000882850983E0FA7B00EA5403FAEB54009A
:1011EB00FBEA75F020A4CAAFF075F000A42FFF75D1
:1011FB00F020EBA42FFB74662AFA74F73BFBEA256D
:10120B000AFAEB350BFBEA2CF582EB3DF583E0FAA2
:10121B00A3E0FBEAC0E08E0A750B007491250AF57A
:10122B008274F6350BF583D0E0F00E08E8C3940218
:10123B00500302110B09E9C394085004780080ECA9
:10124B0074FF2E90F691F0EEF8790090F711E8F01C
:10125B00A3E9F012405C021EE274216C700374006F
:10126B006D6003021EE27E01790002133B8E0A754C
:10127B000B00E508250AF582E509350BF583E0FA45
:10128B007B00E4CAFB8E0A750B00E508250AF58284
:10129B00E509350BF583A3E0FC7D00EA4CF50CEB7F
:1012AB004DF50DE8FC7D00EC75F002A4CCAAF075B1
:1012BB00F000A42AFA75F002EDA42AFDE9F50A75EF
:1012CB000B00E50A75F004A4C50AAAF075F000A49A
:1012DB002AFA75F004E50BA42AF50B85088285091B
:1012EB0083E0FA7B00EA5403FAEB5400FBEA75F057
:1012FB0020A4CAAFF075F000A42FFF75F020EBA46B
:10130B002FFB74662AFA74F73BFBEA250AFAEB35D6
:10131B000BFBEA2CF582EB3DF583E50CF0A3E50D19
:10132B00F074022EFE08E8C39402500302127809EF
:10133B00E9C394085004780080EC021EE27E008E14
:10134B000A750B007491250AF58274F6350BF5833B
:10135B007400F00E850882850983E0C0E08E087565
:10136B00090074912508F58274F63509F583D0E0F0
:10137B00F00E90F71E78081209D2E4C509F508E5BE
:10138B0008C0E08E0875090074912508F58274F683
:10139B003509F583D0E0F00E90F71E78081209D2CC
:1013AB00E508C0E08E0875090074912508F5827474
:1013BB00F63509F583D0E0F00E90F7267808120980
:1013CB00D2E4C509F508E508C0E08E08750900747C
:1013DB00912508F58274F63509F583D0E0F00E906F
:1013EB00F72678081209D2E508C0E08E08750900C7
:1013FB0074912508F58274F63509F583D0E0F00E6B
:10140B0090F811E0F8A3E0F9E4C9F8E8C0E08E0821
:10141B0075090074912508F58274F63509F583D0AA
:10142B00E0F00E90F811E0F8A3E0F9E8C0E08E08C8
:10143B0075090074912508F58274F63509F583D08A
:10144B00E0F00E90F817E0F8A3E0F9E4C9F8E8C073
:10145B00E08E0875090074912508F58274F635093C
:10146B00F583D0E0F00E90F817E0F8A3E0F9E8C0B0
:10147B00E08E0875090074912508F58274F635091C
:10148B00F583D0E0F00E90F819E0F8A3E0F9E4C989
:10149B00F8E8C0E08E0875090074912508F5827490
:1014AB00F63509F583D0E0F00E90F819E0F8A3E0DB
:1014BB00F9E8C0E08E0875090074912508F582746F
:1014CB00F63509F583D0E0F00E90F75A780C120937
:1014DB00D290FA9B78081209D2780C79081203DBA8
:1014EB00780C1202A5AA0CAB0DEAF8EBF9E4C9F8DB
:1014FB00E8C0E08E0875090074912508F58274F632
:10150B003509F583D0E0F00EEAC0E08E08750900CE
:10151B0074912508F58274F63509F583D0E0F00E49
:10152B0090FA8EE0C0E08E0875090074912508F5DD
:10153B008274F63509F583D0E0F00E90F765E0FA8A
:10154B0090F764E0C333F990F763E0333354FCF85E
:10155B0090F762E033333354F848494AC0E08E08C1
:10156B0075090074912508F58274F63509F583D059
:10157B00E0F00E74FF2E90F691F0EEF8790090F7F4
:10158B0011E8F0A3E9F012405C021EE27E008E0A25
:10159B00750B007491250AF58274F6350BF583747F
:1015AB0000F00E850882850983E0C0E08E0875097E
:1015BB000074912508F58274F63509F583D0E0F0B7
:1015CB000E90F71DE0C0E08E087509007491250898
:1015DB00F58274F63509F583D0E0F00E90F8B1E0A2
:1015EB00C0E08E0875090074912508F58274F635F4
:1015FB0009F583D0E0F00E90F8B2E0C0E08E0875EC
:10160B00090074912508F58274F63509F583D0E04D
:10161B00F00E90F8B3E0C0E08E08750900749125C8
:10162B0008F58274F63509F583D0E0F00E90F8B426
:10163B00E0C0E08E0875090074912508F58274F6F8
:10164B003509F583D0E0F00E90F8B5E0C0E08E08D8
:10165B0075090074912508F58274F63509F583D068
:10166B00E0F00E90F8B6E0C0E08E087509007491BA
:10167B002508F58274F63509F583D0E0F00E90F865
:10168B00B7E0C0E08E0875090074912508F58274E7
:10169B00F63509F583D0E0F00E90F8B8E0C0E08E97
:1016AB000875090074912508F58274F63509F583E0
:1016BB00D0E0F00E90F8B9E0C0E08E087509007428
:1016CB00912508F58274F63509F583D0E0F00E907C
:1016DB00F8BAE0C0E08E0875090074912508F58210
:1016EB0074F63509F583D0E0F00E90F8BBE0C0E05E
:1016FB008E0875090074912508F58274F63509F585
:10170B0083D0E0F00E90F8BCE0C0E08E08750900C5
:10171B0074912508F58274F63509F583D0E0F00E47
:10172B0090F8BDE0C0E08E0875090074912508F5AE
:10173B008274F63509F583D0E0F00E90F8BEE0C068
:10174B00E08E0875090074912508F58274F6350949
:10175B00F583D0E0F00E90F8BFE0C0E08E0875097D
:10176B000074912508F58274F63509F583D0E0F005
:10177B000E90F8C0E0C0E08E087509007491250842
:10178B00F58274F63509F583D0E0F00E90F8C1E0E0
:10179B00C0E08E0875090074912508F58274F63542
:1017AB0009F583D0E0F00E90F8C2E0C0E08E08752A
:1017BB00090074912508F58274F63509F583D0E09C
:1017CB00F00E74FF2E90F691F0EEF8790090F71171
:1017DB00E8F0A3E9F012405C021EE274146C700393
:1017EB0074006D6003021EE27E0185088285098309
:1017FB00A3E0F890F71DE068601C8E0A750B00E5FE
:10180B0008250AF582E509350BF583E090F71DF005
:10181B000E12380E80178E0A750B00E508250AF597
:10182B0082E509350BF583E090F71DF00E8E0A75F6
:10183B000B00E508250AF582E509350BF583E090E9
:10184B00F8B1F00E8E0A750B00E508250AF582E556
:10185B0009350BF583E090F8B2F00E8E0A750B008C
:10186B00E508250AF582E509350BF583E090F8B319
:10187B00F00E8E0A750B00E508250AF582E5093591
:10188B000BF583E090F8B4F00E8E0A750B00E508AB
:10189B00250AF582E509350BF583E090F8B5F00ED6
:1018AB008E0A750B00E508250AF582E509350BF55F
:1018BB0083E090F8B6F00E8E0A750B00E508250A4A
:1018CB00F582E509350BF583E090F8B7F00E8E0A3B
:1018DB00750B00E508250AF582E509350BF583E064
:1018EB0090F8B8F00E8E0A750B00E508250AF58204
:1018FB00E509350BF583E090F8B9F00E8E0A750B00
:10190B0000E508250AF582E509350BF583E090F82B
:10191B00BAF00E8E0A750B00E508250AF582E5096B
:10192B00350BF583E090F8BBF00E8E0A750B00E5D6
:10193B0008250AF582E509350BF583E090F8BCF034
:10194B000E8E0A750B00E508250AF582E509350BA5
:10195B00F583E090F8BDF00E8E0A750B00E50825B7
:10196B000AF582E509350BF583E090F8BEF00E8E93
:10197B000A750B00E508250AF582E509350BF58399
:10198B00E090F8BFF00E8E0A750B00E508250AF5FE
:10199B0082E509350BF583E090F8C0F00E8E0A75E1
:1019AB000B00E508250AF582E509350BF583E09078
:1019BB00F8C1F00E8E0A750B00E508250AF582E5D5
:1019CB0009350BF583E090F8C2F00E021EE27E00A3
:1019DB008E0A750B007491250AF58274F6350BF59A
:1019EB00837400F00E850882850983E0C0E08E08C1
:1019FB0075090074912508F58274F63509F583D0C5
:101A0B00E0F00E90FA8EE0C0E08E0875090074913C
:101A1B002508F58274F63509F583D0E0F00E7900D0
:101A2B00021AD8890875090074812508F58274F8A3
:101A3B003509F583E0A2E0E433F508750900740776
:101A4B007808120AEFE9FA7B00EA75F002A4CAA83B
:101A5B00F075F000A428F875F002EBA428FB7421B4
:101A6B002AF58274F83BF583E0FAA3E0FBE4CBFAAA
:101A7B00EA54014508C0E08E0875090074912508E9
:101A8B00F58274F63509F583D0E0F00EE9FA7B00A8
:101A9B00EA75F002A4CAA8F075F000A428F875F056
:101AAB0002EBA428FB74212AF58274F83BF583E042
:101ABB00FAA3E0FBEAC0E08E0875090074912508D3
:101ACB00F58274F63509F583D0E0F00E09E9C3947D
:101ADB00105003021A2E74FF2E90F691F0EEF87947
:101AEB000090F711E8F0A3E9F012405C021EE27ED1
:101AFB00008E0A750B007491250AF58274F6350B6E
:101B0B00F5837400F00E850882850983E0C0E08EB2
:101B1B000875090074912508F58274F63509F5836B
:101B2B00D0E0F00E90FA8EE0C0E08E0875090074DC
:101B3B00912508F58274F63509F583D0E0F00E791E
:101B4B0000021BF9890875090074912508F5827448
:101B5B00F83509F583E0A2E0E433F5087509007464
:101B6B00077808120AEFE9FA7B00EA75F002A4CABB
:101B7B00A8F075F000A428F875F002EBA428FB740C
:101B8B00412AF58274F83BF583E0FAA3E0FBE4CB42
:101B9B00FAEA54014508C0E08E08750900749125D6
:101BAB0008F58274F63509F583D0E0F00EE9FA7B7F
:101BBB0000EA75F002A4CAA8F075F000A428F87525
:101BCB00F002EBA428FB74412AF58274F83BF583F1
:101BDB00E0FAA3E0FBEAC0E08E08750900749125DA
:101BEB0008F58274F63509F583D0E0F00E09E9C3E8
:101BFB0094105003021B4F74FF2E90F691F0EEF8E9
:101C0B00790090F711E8F0A3E9F012405C021EE2B4
:101C1B007E008E0A750B007491250AF58274F635D9
:101C2B000BF5837400F00E850882850983E0C0E014
:101C3B008E0875090074912508F58274F63509F53F
:101C4B0083D0E0F00E90FA8EE0C0E08E08750900AC
:101C5B0074912508F58274F63509F583D0E0F00E02
:101C6B007900021D1A890875090074A12508F582EF
:101C7B0074F83509F583E0A2E0E433F50875090043
:101C8B0074077808120AEFE9FA7B00EA75F002A4F0
:101C9B00CAA8F075F000A428F875F002EBA428FB95
:101CAB0074612AF58274F83BF583E0FAA3E0FBE458
:101CBB00CBFAEA547F4508C0E08E08750900749191
:101CCB002508F58274F63509F583D0E0F00EE9FAB4
:101CDB007B00EA75F002A4CAA8F075F000A428F8FE
:101CEB0075F002EBA428FB74612AF58274F83BF5BE
:101CFB0083E0FAA3E0FBEAC0E08E0875090074915B
:101D0B002508F58274F63509F583D0E0F00E09E964
:101D1B00C394105003021C7074FF2E90F691F0EEDA
:101D2B00F8790090F711E8F0A3E9F012405C021E7D
:101D3B00E27E008E0A750B007491250AF58274F60B
:101D4B00350BF5837400F00E850882850983E0C09E
:101D5B00E08E0A750B007491250AF58274F6350B2B
:101D6B00F583D0E0F00E850882850983E0F87900D1
:101D7B00E8540FF8E95400F9740628F58274F83921
:101D8B00F583E0C0E08E0A750B007491250AF5828D
:101D9B0074F6350BF583D0E0F00E7900021E8F85BB
:101DAB000882850983E0FA7B00EA540FFAEB5400B2
:101DBB00FBEA75F010A4CAA8F075F000A428F8751A
:101DCB00F010EBA428FBE9FC7D00EC75F002A4CC31
:101DDB00A8F075F000A428F875F002EDA428FD74A6
:101DEB005E2CFC74F73DFDEC2AF582ED3BF583E0B0
:101DFB00F50AA3E0F50B7408780A120AD0E50AC0BD
:101E0B00E08E0A750B007491250AF58274F6350B7A
:101E1B00F583D0E0F00E850882850983E0FA7B001C
:101E2B00EA540FFAEB5400FBEA75F010A4CAA8F0C1
:101E3B0075F000A428F875F010EBA428FBE9FC7DE5
:101E4B0000EC75F002A4CCA8F075F000A428F8758E
:101E5B00F002EDA428FD745E2CFC74F73DFDEC2A1A
:101E6B00F582ED3BF583E0FAA3E0FBEAC0E08E0AD6
:101E7B00750B007491250AF58274F6350BF583D03A
:101E8B00E0F00E09E9C394085003021DAA74FF2E5B
:101E9B0090F691F0EEF8790090F711E8F0A3E9F0E5
:101EAB0012405C803274026C700374006D70288574
:101EBB000882850983A3E0F87900E875F00AA4C8C5
:101ECB00AAF075F000A42AFA75F00AE9A42AF99091
:101EDB00F817E8F0A3E9F07F08020BEE74F5120B8C
:101EEB00887A007B0090F718E0F890F8B1E0687002
:101EFB001D90F719E0F890F8B2E068701190F71A9E
:101F0B00E0F890F8B3E0687005750900805590F71C
:101F1B0018E0F890F8B4E068701D90F719E0F890AD
:101F2B00F8B5E068701190F71AE0F890F8B6E06831
:101F3B007005750901802C90F718E0F890F8B7E060
:101F4B0068701D90F719E0F890F8B8E06870119080
:101F5B00F71AE0F890F8B9E068700575090280038C
:101F6B0075090378007900E509C394034003022047
:101F7B003490FA8EE0C4540FFE7F00EE75F002A48D
:101F8B00CEACF075F000A42CFC75F002EFA42CFF86
:101F9B00E509FC7D00EC75F010A4CC85F00875F01C
:101FAB0000A42508F50875F010EDA42508FD74DED6
:101FBB002CFC74F73DFDEC2EF582ED3FF583C3E071
:101FCB009401A3E09400A2D265D033405C90F81149
:101FDB00E0F8A3E0F990FA8EE0C4540FFE7F00EE18
:101FEB0075F002A4CEACF075F000A42CFC75F002D9
:101FFB00EFA42CFFE509FC7D00EC75F010A4CC855B
:10200B00F00875F000A42508F50875F010EDA4256F
:10201B0008FD74DE2CFC74F73DFDEC2EF582ED3FD4
:10202B00F583E028F8A3E039F990F762E0640160EA
:10203B000B90F763E06401600302222874912AF588
:10204B008274F63BF5837400F00AEA70010B74910D
:10205B002AF58274F63BF5837401F00AEA70010BE2
:10206B0090F763E0FC75F00290F762E0A42CC0E0FF
:10207B0074912AF58274F63BF583D0E0F00AEA708E
:10208B00010BE8FCE9FDE4CDFCECC0E074912AF512
:10209B008274F63BF583D0E0F00AEA70010BE8C0DE
:1020AB00E074912AF58274F63BF583D0E0F00AEAEE
:1020BB0070010B90F762E06401704390F71E780893
:1020CB001209D2E4C509F508E508C0E074912AF5B8
:1020DB008274F63BF583D0E0F00AEA70010B90F7BF
:1020EB001E78081209D2E508C0E074912AF58274B3
:1020FB00F63BF583D0E0F00AEA70270B802474914D
:10210B002AF58274F63BF5837400F00AEA70010B32
:10211B0074912AF58274F63BF5837400F00AEA7029
:10212B00010B90F763E0640160030221BC90F74E52
:10213B0078081209D2E4C509F508E508C0E07491E6
:10214B002AF58274F63BF583D0E0F00AEA70010BB6
:10215B0090F74E78081209D2E508C0E074912AF581
:10216B008274F63BF583D0E0F00AEA70010B90F72E
:10217B002678081209D2E4C509F508E508C0E07411
:10218B00912AF58274F63BF583D0E0F00AEA7001F0
:10219B000B90F72678081209D2E508C0E074912A53
:1021AB00F58274F63BF583D0E0F00AEA704B0B80B6
:1021BB004874912AF58274F63BF5837400F00AEAB1
:1021CB0070010B74912AF58274F63BF5837400F061
:1021DB000AEA70010B74912AF58274F63BF583744D
:1021EB0000F00AEA70010B74912AF58274F63BF544
:1021FB00837400F00AEA70010B74912AF58274F66D
:10220B003BF58374FFF00AEA70010BEA24FF90F6AA
:10221B0091F090F711EAF0A3EBF012405C7F04020F
:10222B000BEEC082C08378007900749128F582741C
:10223B00F639F5837400F008E8700109749128F5FC
:10224B008274F639F5837402F008E870010990F78F
:10225B0052E0FAA3E0FBE4CBFAEAC0E0749128F574
:10226B008274F639F583D0E0F008E870010990F735
:10227B0052E0FAA3E0FBEAC0E0749128F58274F611
:10228B0039F583D0E0F008E8700109E824FF90F6F7
:10229B0091F090F711E8F0A3E9F012405CD083D0F5
:1022AB00822274F8120B8879007E007F0080050E65
:1022BB00EE70010FC3EE9CEF9D5025EA2EF582EBDD
:1022CB003FF583E0C969C978088005E9C333F9187C
:1022DB00E860DCE9A2E750F3E9C333649BF980EFD4
:1022EB007F01020BEE74F7120B887C007D00802DB2
:1022FB00ECFAEDFBEA75F002A4CAAEF075F000A49F
:10230B002EFE75F002EBA42EFB74FF2AF58274F1FE
:10231B003BF583E8F0A3E9F00CEC70010DC3EC94F2
:10232B0000ED9401505578007900ECFAEDFBE4CA0E
:10233B00FB7E007F008011E828F8E933F9EA2AFADE
:10234B00EB33FB0EEE70010FC3EE9408EF940050CD
:10235B009FE86AF508E96BF509E5085400F508E50F
:10236B00095480F509E508450960CCE828F8E933FC
:10237B00F9E86421F8E96410F980C27F02020BEEE0
:10238B0074F5120B88EAFEEBFF7AFF7BFF750800F2
:10239B007509008054EE2508F582EF3509F583E0C9
:1023AB00F50A750B00EAF8EBF9E4C9F8E8650AF8E9
:1023BB00E9650BF9E4CAFBE875F002A4C885F00ADD
:1023CB0075F000A4250AF50A75F002E9A4250AF9AF
:1023DB0074FF28F58274F139F583E06AFAA3E06B98
:1023EB00FB0508E50870020509C3E5089CE5099D96
:1023FB0040A37F04020BEEE9FB7900EB6AFC78004B
:10240B00800BECA2E0500109ECC313FC08E8C39469
:10241B000640EF2274F4120B8874F0120B02890839
:10242B0090FA7EAC10AD117410120A157E077F0066
:10243B00750900750C008033850C0A750B0085102F
:10244B0082851183E582250AF582E583350BF583B9
:10245B00E0FAA908122402E9F87900C3EE98EF9983
:10246B005007850C09E8FEE9FF050CE50CC3941039
:10247B0040C6A9097410120B187F05020BEEE9F880
:10248B00E8602F14602F14602F14602F14602F142A
:10249B00602F14602F14602F14602F14602F1460A2
:1024AB002F14602F14602F14602F14602F14602FC3
:1024BB0080307915227931227932227923227934AD
:1024CB0022792522792622791622791A2279192244
:1024DB00792A22790B22792C22790D22790E2279F5
:1024EB001C2279002274F8120B88E9FE8A828B83F6
:1024FB00EE24F5700302259224FE70030225A0142E
:10250B0070030225A724F9603114605F24FD606914
:10251B0014605F24FE70030225AE24F9603124FEA3
:10252B00603B14603F24FC605724FE606124FB6019
:10253B001014601424FE601E80707400F07900800B
:10254B00767401F07900806F7402F0790080687402
:10255B0003F0790080617404F07900805A7405F0FF
:10256B00790080537406F07900804C7407F0790081
:10257B0080457408F07900803E7409F0790080374B
:10258B00740AF079008030740BF079008029740C98
:10259B00F079008022740DF07900801B740EF079B5
:1025AB00008014740FF07900800DEEF912241FE9EE
:1025BB00C0E0D0E0F079017F01020BEE74F1120B59
:1025CB008874FC120B02851082851183EAF0A3EB51
:1025DB00F07402120B6CECF0A3EDF07415120B6C93
:1025EB00E0F50EA3E0F50F850E82850F837400F0E6
:1025FB00A37400F07E007F00750800750900750A52
:10260B0000750B000226D5851082851183E028FA10
:10261B00A3E0398A82F583E0540FF9122489E9F992
:10262B0085080C85090D7406780C120AEF850C08C9
:10263B00850D09890C750D00E50C4508F508E50DB0
:10264B004509F509EE2406FEEF3400FFC3EE9408AE
:10265B00EF9400A2D265D033406885080C85090D34
:10266B00EE24F8780C120AD0E50CF9E9C0E0850EDF
:10267B0082850F83E0F8A3E0F97413120B6CE0284A
:10268B00FAA3E0398A82F583D0E0F0850E82850FBC
:10269B0083E02401F0A3E03400F0EE24F8FEEF34E5
:1026AB00FFFF750C01750D00EE780C120AEFE50CAF
:1026BB0024FFF8E50D34FFF9E85508F508E955094D
:1026CB00F509050AE50A7002050B7402120B6CE0A2
:1026DB00F8A3E0F9E875F002A4C8AAF075F000A41D
:1026EB002AFA75F002E9A42AF9C3E50A98E50B99D1
:1026FB005049A80AA90BE9C313F9E813F8E8FAE95A
:10270B00FBEA75F002A4CAACF075F000A42CFC75C2
:10271B00F002EBA42CFBE50A6A7003E50B6B60037C
:10272B00022612851082851183E028FAA3E0398AEC
:10273B0082F583E0C4540FF9022626EE4F606775CD
:10274B000A01750B00EE780A120AEFE50A24FFF86E
:10275B00E50B34FFF9E85508F508E95509F5098546
:10276B00080A85090B7408C39E780A120AEF850ABA
:10277B0008850B09E508F9E9C0E0850E82850F8312
:10278B00E0F8A3E0F97413120B6CE028FAA3E0391C
:10279B008A82F583D0E0F0850E82850F83E02401D9
:1027AB00F0A3E03400F07404120B187F08020BEE58
:1027BB0074F2120B8874F9120B027405120B6CEA8B
:1027CB00F0A3EBF07403120B6CECF0A3EDF07508B7
:1027DB0000750900750E00750B007401120B6C74FB
:1027EB0000F0A37400F002288C8E0C8F0DE50824EA
:1027FB00FA780C120AD0E50CC0E0851082851183A3
:10280B00D0E0F0851082851183E0543FF0AA10AB25
:10281B0011851082851183E0F91224F0E9E50AC4D1
:10282B0054F0F50A530AF0851082851183E0420AB1
:10283B00630E01E50E701DE50AC0E0E50BF87900AB
:10284B007415120B6CE028FAA3E0398A82F583D059
:10285B00E0F0050BE50824FAF508E50934FFF50966
:10286B00C3E5089406E5099400A2D265D033400372
:10287B000227F47401120B6CE02401F0A3E0340086
:10288B00F07401120B6CC082C0837403120B6CE0EA
:10289B00F8A3E0F9D083D082C3E098A3E099503439
:1028AB00E4CEFF7401120B6CE0F8A3E0F97405128F
:1028BB000B6CE028FAA3E0398A82F583E0F8790003
:1028CB00E84EFEE94FFFE5082408F508E50934005A
:1028DB00F509808CE50BF879007417120B6CE0FA94
:1028EB00A3E0F5838A82E8F0A3E9F07407120B18D2
:1028FB007F07020BEE74F1120B8874FD120B02743E
:10290B0001120B6CECF0A3EDF0E9C0E085108285B1
:10291B001183D0E0F0EAFEEBFF851082851183E096
:10292B006003022F058E828F83E064AA600C8E8277
:10293B008F83E064AB6003022CD67401120B6CE046
:10294B0064227004A3E064006003022CD68E828F95
:10295B0083A3A3E0F890F8B1E06870218E828F8397
:10296B00A3A3A3E0F890F8B2E06870118E828F8376
:10297B00A3A3A3A3E0F890F8B3E06860698E828FFD
:10298B0083A3A3E0F890F8B4E06870218E828F8364
:10299B00A3A3A3E0F890F8B5E06870118E828F8343
:1029AB00A3A3A3A3E0F890F8B6E06860398E828FFA
:1029BB0083A3A3E0F890F8B7E0686003022E198EAA
:1029CB00828F83A3A3A3E0F890F8B8E068600302BA
:1029DB002E198E828F83A3A3A3A3E0F890F8B9E0FE
:1029EB00686003022E1990F71BE0FCA3E0FD90FA40
:1029FB008EE0FA8E828F83A3A3A3A3A3A3A3A3E04A
:102A0B00F91257AD90FA8EE054F0F88E828F83A3B3
:102A1B00A3A3A3A3A3A3A3E054F0687003022CC247
:102A2B008E828F83A3A3A3A3A3A3A3A3E090FA8E69
:102A3B00F08E828F83A3A3E090F718F08E828F83A2
:102A4B00A3A3A3E090F719F08E828F83A3A3A3A374
:102A5B00E090F71AF08E828F83E064AA7004740101
:102A6B008002740090F755F08E828F83A3A3A3A3EB
:102A7B00A3A3A3E090F754F08E828F83A3A3A3A309
:102A8B00A3A3A3A3A3E0F87900E875F000A4C8AA58
:102A9B00F075F001A42AFA75F000E9A42AF98E82E8
:102AAB008F83A3A3A3A3A3A3A3A3A3A3E0FA7B0056
:102ABB00E82AFAE93BFBEB3395E0FCFD90F726EABD
:102ACB00F0A3EBF0A3ECF0A3EDF0EE240BF582E416
:102ADB003FF583E0F87900E875F000A4C8AAF0751B
:102AEB00F001A42AFA75F000E9A42AF9EE240CF5FA
:102AFB0082E43FF583E0FA7B00E82AFAE93BFBEB43
:102B0B003395E0FCFD90F72AEAF0A3EBF0A3ECF091
:102B1B00A3EDF07900022BD3E9FA7B00EA75F00202
:102B2B00A4CAA8F075F000A428F875F002EBA4284D
:102B3B00FBEE2AFAEF3BFBEA2411F582E43BF5832B
:102B4B00E0FA7B00EA75F000A4CAA8F075F001A4C6
:102B5B0028F875F000EBA428FBE9FC7D00EC75F080
:102B6B0002A4CCA8F075F000A428F875F002EDA42F
:102B7B0028FDEE2CFCEF3DFDEC2412F582E43DF537
:102B8B0083E0FC7D00EA2CFAEB3DFBEB3395E0FC9C
:102B9B00FDE9F508750900E50875F004A4C508A85A
:102BAB00F075F000A428F875F004E509A428F509E0
:102BBB00742E2508F58274F73509F583EAF0A3EB3B
:102BCB00F0A3ECF0A3EDF009E9C394075003022B3B
:102BDB002390F754E0F990F7261209F0123003EA2C
:102BEB00F8EBF9ECFAEDFB90F7561209FC90F76352
:102BFB007401F08E828F83A3A3A3A3A3A3A3A3E04B
:102C0B00A2E0505990F71BE0F8A3E0F990F811C33C
:102C1B00E098F0A3E099F08E828F83A3A3A3A3A3E4
:102C2B00A3A3A3E0F91256A88A088B09A808A9093F
:102C3B0090F811E028F0A3E039F090F811C3E0947C
:102C4B001EA3E09400500A90F8117432F0A37400A4
:102C5B00F090F817741EF0A37400F0805090F71BDF
:102C6B00E0F8A3E0F990F811C3E098F0A3E099F035
:102C7B008E828F83A3A3A3A3A3A3A3A3E04401F9F1
:102C8B001256A890F817EAF0A3EBF090F817E0F8BB
:102C9B00A3E0F9E849700A90F81774C8F0A3740020
:102CAB00F090F817E0241EF0A3E03400F090F81534
:102CBB007400F0A37400F08E828F83A3A3A3A3A34D
:102CCB00A3A3A3E090FA8EF0022E198E828F83E0DD
:102CDB0064A26003022E198E828F83A3E0F890F812
:102CEB00BAE0686003022E198E828F83A3A3E0F8EB
:102CFB0090F8BBE0686003022E198E828F83A3A32A
:102D0B00A3E0F890F8BCE0686003022E198E828F66
:102D1B0083A3A3A3A3E064046003022E198E828F06
:102D2B0083A3A3A3A3A3E0F890F3FFE068700302CF
:102D3B002E1990F762E06003022E198E828F83A307
:102D4B00A3A3A3A3E090F3FFF0EE240EF582E43FE0
:102D5B00F583E0F508750900E5082508F508E50990
:102D6B0033F509E5093395E0F50AF50BEE241DF56E
:102D7B0082E43FF583E0A2E0E433F50C750D00E54A
:102D8B000D3395E0F50EF50F7808790C120994EEDA
:102D9B002419F582E43FF583E090F760F0EE241AF6
:102DAB00F582E43FF583E090F761F090FA9F7808A5
:102DBB001201C8505990F71E78081209E1EE240F42
:102DCB00F582E43FF583E0FA7B00EA2AFAEB33FB6A
:102DDB00EB3395E0FCFD90F722EAF0A3EBF0A3ECCC
:102DEB00F0A3EDF0EE241DF582E43FF583E0A2E1C4
:102DFB00E433F508750900E5093395E0F50AF50BA1
:102E0B0090F72278081209A790F7627401F08E826E
:102E1B008F83E064A56003022EEB7401120B6CE050
:102E2B0064077004A3E064006003022EEB8E828FB4
:102E3B0083A3E0F890F8BDE068701F8E828F83A3A8
:102E4B00A3E0F890F8BEE06870108E828F83A3A386
:102E5B00A3E0F890F8BFE068602D8E828F83A3E02B
:102E6B00F890F8C0E06870788E828F83A3A3E0F8A7
:102E7B0090F8C1E06870698E828F83A3A3A3E0F8FA
:102E8B0090F8C2E068705990F81BE0F8A3E0F9E8FD
:102E9B0049704D90F81B74C8F0A37400F08E828FAC
:102EAB0083A3A3A3A3E0A2E0E433F87900E875F0D1
:102EBB0000A4C8AAF075F001A42AFA75F000E9A4E1
:102ECB002AF98E828F83A3A3A3A3A3E0FA7B00E846
:102EDB002AF8E93BF990F752E8F0A3E9F012222D1A
:102EEB0090F763E06401701290F762E06401700A7E
:102EFB0090F8177400F0A37400F07403120B187F92
:102F0B0008020BEE74F1120B8890F763E06401601A
:102F1B0003022FFE90F762E064016003022FFE9024
:102F2B00FA9F78081209D290F71E78081201B85050
:102F3B0003022FFE90F71E78081209D278081202AE
:102F4B003D90F756780C1209D27808790C12079A33
:102F5B0090F760E0F890F75EE068700C90F761E036
:102F6B00F890F75FE068602090F760E090F75EF014
:102F7B0090F761E090F75FF090F4007403F0A374A6
:102F8B0000F090F4027400F090F400E0F8A3E0F984
:102F9B00E849600E90F400E024FFF0A3E034FFF06A
:102FAB00803F90F71E780C1209D290F403E0F8A33F
:102FBB00E0F9E50CC398FAE50D99FB90F402E0708B
:102FCB002090F75A78081209E1EAC394F7F8EB94CA
:102FDB00FFF9C3E89413E99400500690F4027401CE
:102FEB00F090F71E78081209D290F403E508F0A3CD
:102FFB00E509F07F08020BEE74F1120B8874F812DE
:10300B000B027404120B6CEAF0A3EBF0A3ECF0A32D
:10301B00EDF0E9FE7404120B6C78081209D27808F3
:10302B0012022290FAA3780C1209D27808790C12AA
:10303B00079AC008C009C00AC00B7404120B6C7845
:10304B000C1209D2780C12022290FAA778081209F6
:10305B00D2780C79081203DBD00BD00AD009D00838
:10306B007808790C12055B8510828511837808121C
:10307B0009E18E08E4F509F50AF50B780812023D13
:10308B007404120B6C780C1209D2780C1202227891
:10309B0008790C1203DBC008C009C00AC00B74040A
:1030AB00120B6C78081209D2780812022290FAAB34
:1030BB00780C1209D27808790C1203DB90FAAF78EE
:1030CB000C1209D27808790C12079A90FAB3780C83
:1030DB001209D27808790C120580D00FD00ED00DC2
:1030EB00D00C780C79081203DB851082851183785C
:1030FB00081209D2780C7908120580851082851187
:10310B0083780C1209E18510828511831209F07402
:10311B0008120B187F08020BEEC082C083122F0F10
:10312B00123142121EE790F7627400F090F763744D
:10313B0000F0D083D0822274F1120B887E0F023202
:10314B00B5EEF87900E875F002A4C8AAF075F000A6
:10315B00A42AFA75F002E9A42AF9741F28F58274DF
:10316B00F839F583E0FAA3E0FBEEF87900E875F0A7
:10317B0002A4C8ACF075F000A42CFC75F002E9A415
:10318B002CF9742128F58274F839F583EAF0A3EB56
:10319B00F08E0875090074802508F58274F83509DE
:1031AB00F583E0C0E08E0875090074812508F5826F
:1031BB0074F83509F583D0E0F0EEF87900E875F096
:1031CB0002A4C8AAF075F000A42AFA75F002E9A4CB
:1031DB002AF9743F28F58274F839F583E0FAA3E0F5
:1031EB00FBEEF87900E875F002A4C8ACF075F000BE
:1031FB00A42CFC75F002E9A42CF9744128F5827417
:10320B00F839F583EAF0A3EBF08E0875090074909A
:10321B002508F58274F83509F583E0C0E08E087552
:10322B00090074912508F58274F83509F583D0E00F
:10323B00F0EEF87900E875F002A4C8AAF075F0007A
:10324B00A42AFA75F002E9A42AF9745F28F58274AE
:10325B00F839F583E0FAA3E0FBEEF87900E875F0B6
:10326B0002A4C8ACF075F000A42CFC75F002E9A424
:10327B002CF9746128F58274F839F583EAF0A3EB25
:10328B00F08E0875090074A02508F58274F83509CD
:10329B00F583E0C0E08E0875090074A12508F5825E
:1032AB0074F83509F583D0E0F01EEE600302314C63
:1032BB0090F762E06401703290F71E78081209D221
:1032CB0090F821E508F0A3E509F090F8817401F07E
:1032DB0090F72278081209D290F823E508F0A3E5BD
:1032EB0009F090F8827401F0801090F8217400F0CE
:1032FB00A37400F090F8817400F090F763E0640120
:10330B0060030234FC90F75678081209D290F75AF2
:10331B00780C1209D27808790C1203DB78081202A8
:10332B009A90F74E78081209E190F756780812092F
:10333B00D290F75A780C1209D27808790C1203DB69
:10334B00780812029A90F841E508F0A3E509F0908D
:10335B00F75A78081209D290FAB7780C1209D2787A
:10336B0008790C12038C500F90F755E07004740120
:10337B0080027400FF80027F00EF90F891F090F7CD
:10338B002678081209D290F861E508F0A3E509F058
:10339B0090F755E0700474018002740090F8A1F06E
:1033AB007E00802D7C007D00EEF87900E875F00240
:1033BB00A4C8AAF075F000A42AFA75F002E9A42AB1
:1033CB00F9746328F58274F839F583ECF0A3EDF00A
:1033DB000EEEC39408400302351C90F754E0F9EE4F
:1033EB00FA7B00EA75F004A4CAA8F075F000A428D3
:1033FB00F875F004EBA428FB742A2AF58274F73BCA
:10340B00F5831209F01230038A0C8B0D8C0E8D0F85
:10341B0090F75A78081209D2780C79081203DB78E6
:10342B000C12029AEEF87900E875F002A4C8AAF023
:10343B0075F000A42AFA75F002E9A42AF97443285E
:10344B00F58274F839F583E50CF0A3E50DF090F7F0
:10345B005A780C1209D290FAB778081209D2780C64
:10346B00790812038C500F90F755E07004740180AB
:10347B00027400FA80027A00EAC0E08E0875090037
:10348B0074922508F58274F83509F583D0E0F0EED7
:10349B00F87900E875F004A4C8ABF075F000A42B24
:1034AB00FB75F004E9A42BF9742A28F58274F7391B
:1034BB00F58378081209D2EEF87900E875F002A4CA
:1034CB00C8ABF075F000A42BFB75F002E9A42BF947
:1034DB00746328F58274F839F583E508F0A3E509E0
:1034EB00F090F755E060030233AF7C017D000233AF
:1034FB00B390F8417400F0A37400F090F86174007D
:10350B00F0A37400F090F8917400F090F8A174009F
:10351B00F07F08020BEE74F7120B88E9FEEE6003E6
:10352B000236818A828B83E064A260030236818A31
:10353B00828B83A3E0F890F8BAE0686003023681CF
:10354B008A828B83A3A3E0F890F8BBE06860030248
:10355B0036818A828B83A3A3A3E0F890F8BCE06842
:10356B0060030236818A828B83A3A3A3A3E024FC8E
:10357B00601024FC600C14600914600614600302D4
:10358B00368190F58B74A2F08A828B83A3E090F541
:10359B008CF08A828B83A3A3E090F58DF08A828BCB
:1035AB0083A3A3A3E090F58EF090F58F7406F08AB9
:1035BB00828B83A3A3A3A3A3E0547F90F590F08AFF
:1035CB00828B83A3E090F591F08A828B83A3A3E097
:1035DB0090F592F08A828B83A3A3A3E090F593F0EE
:1035EB0090F5947400F08A828B83A3A3A3A3E0903D
:1035FB00F595F08A828B83A3A3A3A3E024F8601B29
:10360B0014600814600D14601A802090F596740AEB
:10361B00F0801E90F5967408F0801690F596740B5A
:10362B00F0800E90F5967404F0800690F596740079
:10363B00F090F5977400F090F5987400F07C0E7D87
:10364B00007A8B7BF51222ADE990F599F090F60B91
:10365B00740FF0A37400F075080175090078081257
:10366B000CE990F60BE0FCA3E0FD7A8B7BF51244A2
:10367B00427402120B187F02020BEED2AF22C2AFC2
:10368B0022A2AFE433FA7B00C2AF22EAF8EAA2E04F
:10369B0092AF22EBC313FBEA13FAC3EA9402EB9447
:1036AB0000401400000000000000000000EA24FFAE
:1036BB00FAEB34FFFB80E32274F8120B88EAFEEB83
:1036CB00FFEEF8EFF9E824FFFEE934FFFFE849606D
:1036DB00097AE87B0312369E80E77F01020BEE74BA
:1036EB00F5120B88E9FE7A057BF4127D5D7A887BF7
:1036FB00F4127D5DEE24FC6005146010801C7508CF
:10370B0000750996750A00750B00801A750800750F
:10371B0009E1750A00750B00800C7508007509C26C
:10372B00750A01750B00AA08AB09AC0AAD0B127B2D
:10373B00667F04020BEE74F5120B888A828B838CE6
:10374B00088D097E007F00800B750B00EE250AFEAD
:10375B00EF350BFFC3EE9508EF95095043EEF8E5F7
:10376B0008C398F9E5822EFCE5833FFD7A887BF44C
:10377B00127D9DE9F50AE50A70CF7A057B001236BA
:10378B00C3EEF8E508C398F9E5822EFCE5833FFD0F
:10379B007A887BF4127D9DE9250AF50AE50A70A962
:1037AB00EEFAEFFB7F04020BEE023741C008ECF997
:1037BB00EAFCEBFD7A057BF4127E5E8908AA087B96
:1037CB0000D00822C0087A057BF4127F038908AA6F
:1037DB00087B00D00822E5F4A2E0E433F5F453F4BF
:1037EB0002C290C29143FE0143FE022253BEFBE58F
:1037FB00BEA2E650FA0053C6C053C68043C6184358
:10380B00BE0422C082C08375E10490DF0074FFF018
:10381B0090DF017400F090DF0274FFF090DF03740F
:10382B0000F090DF047400F090DF057400F090DF7F
:10383B00067400F090DF077406F090DF087400F058
:10384B0090F71DE0701490DF097424F090DF0A7478
:10385B002EF090DF0B7438F0801290DF097426F095
:10386B0090DF0A7430F090DF0B7400F090DF0C7473
:10387B0059F090DF0D7466F090DF0E7433F090DF2B
:10388B000F7462F090DF10741AF090DF117413F064
:10389B0090DF127407F090DF137430F090DF147424
:1038AB0018F090DF157417F090DF16746CF090DF42
:1038BB00177403F090DF187440F090DF197491F0D7
:1038CB0090DF1A7456F090DF1B7412F090DF1C74AB
:1038DB00E9F090DF1D742AF090DF1E7400F090DF8A
:1038EB001F741FF090DF237488F090DF247431F085
:1038FB0090DF257409F090DF277400F090DF2874B7
:10390B0000F090DF297400F090DF2A7400F090DF54
:10391B002B7400F090DF2C7452F090DF2D7400F0BC
:10392B0090DF2E7400F0C2A890F81FE064017005C0
:10393B0075E102800375E104D083D08222E5F15456
:10394B00FE4402F5F143F33C75C2A3E5C554E044D4
:10395B0008F5C543868053C4FE43C40253C4FB53CE
:10396B00C4F753C4EF53C4DF53C4BF53C5DF22C0E6
:10397B0082C08378007900780079008039740B2835
:10398B00F58274F539F5837400F0748B28F5827425
:10399B00F539F5837400F0741128F58274F639F556
:1039AB00837400F0749128F58274F639F5837400F2
:1039BB00F008E8700109C3E89480E99400A2D2658D
:1039CB00D03340B990F60B7400F0A37400F090F66E
:1039DB000D7400F0A37400F090F60F7400F0A37454
:1039EB0000F090F7117400F0A37400F090F71374CB
:1039FB0000F0A37400F090F7157400F0A37400F0BE
:103A0B0090F81174E0F0A3742EF090F8137400F09A
:103A1B00A37400F090F8157400F0A37400F090F804
:103A2B001D7400F0A37400F090F7627400F090F72F
:103A3B001D7400F090F81F7400F090F8207400F0E3
:103A4B0078007900023AFCE8FAE9FBEA75F002A487
:103A5B00CAACF075F000A42CFC75F002EBA42CFBA7
:103A6B0074212AF58274F83BF5837400F0A374007B
:103A7B00F0E8FAE9FBEA75F002A4CAACF075F000C5
:103A8B00A42CFC75F002EBA42CFB74412AF5827478
:103A9B00F83BF5837400F0A37400F0E8FAE9FBEA55
:103AAB0075F002A4CAACF075F000A42CFC75F00202
:103ABB00EBA42CFB74612AF58274F83BF58374003C
:103ACB00F0A37400F0748128F58274F839F58374CF
:103ADB0000F0749128F58274F839F5837400F07452
:103AEB00A128F58274F839F5837400F008E87001A9
:103AFB0009C3E89410E99400A2D265D033500302B5
:103B0B003A52D083D08222C0E074F2120C2E74FE93
:103B1B00120B02758A00C2EB7C017D0078007900E4
:103B2B008021000AEA70010B74FF6A700374FF6B4B
:103B3B0070F0A29250087C007D007820790008E894
:103B4B00700109C3E89420E99400A2D265D03350E8
:103B5B00067A007B0080D174016C700374006D7069
:103B6B003D90F9F9E06401701390F9F97400F0D20B
:103B7B00918510828511837413F0801190F9F9747B
:103B8B0001F0C2918510828511837403F090F717B1
:103B9B00E0700B7C017D00AA10AB111237B4758A53
:103BAB0000C2EA7402120B187F01020C8DC082C096
:103BBB0083C29090F9F97401F0758A00C2EB438CC3
:103BCB0002758D04D2AF439A10D083D08222C0E00D
:103BDB0074F1120C2E758A00C2C190F717E06401C4
:103BEB006003023DE190F811C3E094E0A3E0942E52
:103BFB00500C90F811E02401F0A3E03400F090F8A1
:103C0B0017E0F8A3E0F9E849600C90F817E024FFFF
:103C1B00F0A3E034FFF090F81BE0F8A3E0F9E849DB
:103C2B00600C90F81BE024FFF0A3E034FFF090F859
:103C3B0011C082C08390F815E0F8A3E0F9D083D0CF
:103C4B0082C3E098A3E09940031266F090F81DC37D
:103C5B00E0941FA3E09400500C90F81DE02401F0B9
:103C6B00A3E03400F07A007B0078007900801974AF
:103C7B00BD28F58274F839F583E0FC7D00EA2CFA57
:103C8B00EB3DFB08E8700109C3E89403E99400409D
:103C9B00DE78007900801974C028F58274F839F544
:103CAB0083E0FC7D00EA2CFAEB3DFB08E870010990
:103CBB00C3E89403E9940040DEEA4B602190F811CD
:103CCB00E0F8A3E0F97A0A7B00120A778A088B09DD
:103CDB00E508450970047A0180067A0080027A00B3
:103CEB0090F81FE090F820F090F817E0F8A3E0F9B7
:103CFB00E849600B90F81F7401F0D291023DA57456
:103D0B00016A700990F81F7401F0023DA590F8113B
:103D1B00C3E094E0A3E0942E400A90F81F7401F0E6
:103D2B00D291807690F811C082C08390F813E0F89E
:103D3B00A3E0F9D083D082C3E098A3E099405390DD
:103D4B00F815C082C08390F811E0F8A3E0F9D08396
:103D5B00D082C3E098A3E099403890F763E0640108
:103D6B00702690F762E06401701E90FA8EE04401B9
:103D7B00F91256A88A088B09E5084509600A90F8DC
:103D8B001F7400F0C291801290F81F7401F0D29151
:103D9B00800890F81F7400F0C29190F81FE0640146
:103DAB00700B90F820E0700575E102805290F81FBF
:103DBB00E0704C90F820E06401704475E10490F7DA
:103DCB0063E06401600890F762E06401703190F782
:103DDB00657401F0802990F811E02401F0A3E03420
:103DEB0000F090F811C3E09400A3E0945D401075CF
:103DFB00E10475E10290F8117400F0A37400F07FF8
:103E0B0002020C8D53E4FC75E200C2B922C082C0E1
:103E1B008390F8117400F0A37400F075E200D08366
:103E2B00D08222C082C08390F717E0702475E40C17
:103E3B0075DBFF75DAFF75E20090F8117400F0A3E3
:103E4B007400F075E544C2C1D2AFD2B975E40A80F3
:103E5B001875E40875DB2475DA9E75E20075E54488
:103E6B00C2C1D2AFD2B975E40AD083D08222C0E0EE
:103E7B0074F1120C2EC28B90F81DC3E0941EA3E0BC
:103E8B0094004012E5C190F611F090F7157401F013
:103E9B00A37400F08035E5C1C0E090F715E0241164
:103EAB00F8A3E034F6F988828983D0E0F090F71517
:103EBB00C3E0947FA3E09400A2D265D033500C9062
:103ECB00F715E02401F0A3E03400F090F81D740026
:103EDB00F0A37400F07E01023F7490F611E0F879C4
:103EEB00008A08750900E82508F8E93509F9741204
:103EFB0028F58274F639F583E0C0E08A087509006D
:103F0B0074112508F58274F63509F583D0E0F00AB3
:103F1B00EAC39B40C590F715C082C08390F611E0B1
:103F2B00F87900D083D082E0C398F8A3E099F9E840
:103F3B00C39401F8E99400F990F715E8F0A3E9F0C0
:103F4B0090F715E0F8A3E0F9E849601B90F611E053
:103F5B00FA7B0090F715E0F8A3E0F9C3EA98EB9928
:103F6B00A2D265D03340027E00EE605490F715C3A9
:103F7B00E09401A3E09400A2D265D03340C290F646
:103F8B0011E0FA7B0090F715E0F8A3E0F9C3EA988B
:103F9B00EB99A2D265D03350A790F611E0FC7D00CF
:103FAB007A127BF6120F5890F611E0FA90F715E0A3
:103FBB00F8A3E0F9E8C39AC39401FB7A00023F1B14
:103FCB007F02020C8DC0E0C0D0E8C0E0E9C0E0C0C9
:103FDB0082C083C2E990F713C082C08390F711E0CF
:103FEB00F8A3E0F9D083D082C3E098A3E099A2D2E2
:103FFB0065D033400F90F7137400F0A37400F053A7
:10400B009AFB801F90F713E02491F8A3E034F6F9A4
:10401B0088828983E0F5C190F713E02401F0A3E0D7
:10402B003400F0D083D082D0E0F9D0E0F8D0D0D0FB
:10403B00E032C082C08390F7157400F0A37400F0D7
:10404B00C28B5386FB438640D2AFD2AAD083D08299
:10405B0022C082C08390F7137400F0A37400F0C2E7
:10406B00E95386FD90F713E02491F8A3E034F6F9B9
:10407B0088828983E0F5C190F713E02401F0A3E077
:10408B003400F0D2AF439A04D083D082227582FAE7
:10409B007583FE120B4E12397A1237E11237F71273
:1040AB0022F012380E123BB890F7177400F0123949
:1040BB004812403D7A007B00801308E8700109C369
:1040CB00E89437E9947F40F20AEA70010BC3EA9453
:1040DB000FEB940050067800790080E3120D8AE90B
:1040EB0090F717F07A007B00801308E8700109C382
:1040FB00E89437E9947F40F20AEA70010BC3EA9423
:10410B0005EB940050067800790080E3D2917A0099
:10411B007B00801308E8700109C3E89437E9947FAA
:10412B0040F20AEA70010BC3EA9405EB94005006C7
:10413B007800790080E3C2917A007B00801308E855
:10414B00700109C3E89437E9947F40F20AEA7001E1
:10415B000BC3EA9405EB940050067800790080E3DA
:10416B00D2917A007B00801308E8700109C3E894B0
:10417B0037E9947F40F20AEA70010BC3EA9405EB2E
:10418B00940050067800790080E3C29190F717E015
:10419B0070547A007B00801308E8700109C3E8941F
:1041AB0037E9947F40F20AEA70010BC3EA9405EBFE
:1041BB00940050067800790080E3D2917A007B005E
:1041CB00801308E8700109C3E89437E9947F40F243
:1041DB000AEA70010BC3EA9405EB940050067800D1
:1041EB00790080E3C29190F717E070097A007905A6
:1041FB001236EA803C12501C123E2E8034851082FF
:10420B00851183E0F97401120B6CE0FCA3E0FD74E3
:10421B0006120B76123521851082851183E0F97415
:10422B0001120B6CE0FCA3E0FD7406120B76122955
:10423B00007401120B7E7406120B76124500E9C056
:10424B00E0851082851183D0E0F0A810A9118808B1
:10425B0089097808120CE97403120B7E7408120B8F
:10426B0076124B1C7402120B187401120B6CE0F8D3
:10427B00A3E0F9E84960BA7A00851082851183E0E2
:10428B00F890F58BE0A2E7E4336870707401120BC1
:10429B006CC082C08390F60BE024FEF8A3E034FFE1
:1042AB00F9D083D082E0687003A3E069704E7A0185
:1042BB007E0080010E8E087509007401120B6CE0F4
:1042CB00F8A3E0F9C3E50898E50999502F8E087516
:1042DB0009007406120B6CE5822508F582E583351F
:1042EB0009F583E0F88E08750900748D2508F582B1
:1042FB0074F53509F583E06860BA7A0090F717E03A
:10430B006401700302420874016A701D7403120B7E
:10431B006C7404F07C017D007403120B761237B4BD
:10432B00127BB712479002423C851082851183E0C5
:10433B00700890F58B7402F0800690F58B7482F008
:10434B007401120B6CE0F8A3E0F9E890F58CF07EA9
:10435B0000802E8E087509007406120B6CE5822501
:10436B0008F582E5833509F583E0C0E08E08750911
:10437B0000748D2508F58274F53509F583D0E0F0CE
:10438B000E8E087509007401120B6CE0F8A3E0F9AE
:10439B00C3E50898E5099940BA7401120B6CE02447
:1043AB0002F8A3E03400F990F60BE8F0A3E9F07EF5
:1043BB0000802890F60B8E08750900E0C39508FC69
:1043CB00A3E09509FD8E08750900748B2508FA7416
:1043DB00F53509FB1237B474302EFE8E08750900C3
:1043EB0090F60BE0F8A3E0F9C3E50898E50999A26C
:1043FB00D265D033400302423C90F60B8E08750910
:10440B0000E0C39508F8A3E09509F9C3E89431E9F6
:10441B009400A2D265D033409A7C307D008E087513
:10442B000900748B2508FA74F53509FB1237B412A1
:10443B007BB712479080A074F7120B8875084375F1
:10444B0009F97808120CE97508C37509F878081290
:10445B000CE91225C77404120B1890F943E0F8A36A
:10446B00E0F9E890DF02F090F717E07003123E0FCF
:10447B0075E1047C007D007409120B6CE0FEA3E077
:10448B00FF801600EA24FFF8EB34FFF9E8FAE9FBAA
:10449B00E84970EF0CEC70010DC3EC9EED9FA2D2BE
:1044AB0065D033503675E1037A007B008018A28902
:1044BB0050FCC28974C32AF58274F83BF583E0F58E
:1044CB00D90AEA70010B90F943E0F8A3E0F9C3EACB
:1044DB0098EB9940D97A007B1080A990DF0274FF8A
:1044EB00F075E10475E10290F717E07003123E2EB0
:1044FB007F02020BEE74F1120B888A0C8B0D8C0A67
:10450B008D0B75E10475E10290DF0274FFF090F9F9
:10451B004C74FFF090F717E07003123E2E7E007F75
:10452B0000805090F717E07003123E0FE5D9C0E002
:10453B0074C32EF58274F83FF583D0E0F074C32E6C
:10454B00F58274F83FF583E090F94CF0EE4F701C58
:10455B0090F811E0F8A3E0F990F71BE8F0A3E9F06D
:10456B0090F817E0240AF0A3E03400F0C2890EEEB5
:10457B0070010FC3EE9480EF9400500990F94CE05A
:10458B006003024632EE24FFF8EF34FFF990F94353
:10459B00E8F0A3E9F075E104780A120CE9780C1243
:1045AB000CE990F943E0FCA3E0FD7AC37BF81227FA
:1045BB00BB7404120B18850A82850B83E024FFFC65
:1045CB00A3E034FFFDAA0CAB0D1222ADE9FA850A6C
:1045DB0082850B83E0F8A3E0F9E50C28F8E50D39AB
:1045EB00F9E824FFF582E934FFF583E06A704D7931
:1045FB000002478B90F765E064017009123124903B
:10460B00F7657400F0E5E9A2E6501C53E9BF90F999
:10461B004C74FFF07E007F0075E10475E10290F7AA
:10462B0017E07003123E18A289500302452E90F733
:10463B0017E070C0127BB712479080C9850A82853C
:10464B000B83E024FEFCA3E034FFFDAA0CAB0D12A0
:10465B00238B8A088B0985080E85090FA80E850AFE
:10466B0082850B83E0FAA3E0FBE50C2AFAE50D3B10
:10467B00FBEA24FFF582EB34FFF583E068702E74C0
:10468B0008780E120AD0850A82850B83E0F8A3E026
:10469B00F9E50C28F8E50D39F9E824FEF582E93443
:1046AB00FFF583E0650E7005790002478B850A8262
:1046BB00850B83E024FEFCA3E034FFFDAA0CAB0DBD
:1046CB001222ADE9FA850A82850B83E0F8A3E0F9A3
:1046DB00E50C28F8E50D39F9E824FEF582E934FFFD
:1046EB00F583E06A7014850A82850B83E024FFF062
:1046FB00A3E034FFF0790002478B850A82850B8398
:10470B00E024FDFCA3E034FFFDAA0CAB0D12238BC0
:10471B008A088B0985080E85090F850E08850A8284
:10472B00850B83E0F8A3E0F9E50C28F8E50D39F9E2
:10473B00E824FEF582E934FFF583E06508703C74EC
:10474B0008780E120AD0850A82850B83E0F8A3E065
:10475B00F9E50C28F8E50D39F9E824FDF582E93483
:10476B00FFF583E0650E7013850A82850B83E024C9
:10477B00FFF0A3E034FFF0790080051222F07901FD
:10478B007F08020BEE74F3120B887480120B02126B
:10479B0037CF8A088B0985080A85090B75080075C0
:1047AB000900802DE50AC39508FCE50B9509FD85ED
:1047BB001082851183E5822508FAE5833509FB1202
:1047CB0037B7127BB7E5082430F508E5093400F557
:1047DB0009C3E508950AE509950B501AE50AC39537
:1047EB0008F8E50B9509F9C3E89431E9940040B456
:1047FB007C307D0080B9750800750900801490F637
:10480B000FE02401F0A3E03400F00508E508700286
:10481B000509C3E508950AE509950B4003024B1200
:10482B00851082851183E5822508F582E58335099C
:10483B00F583E0C0E090F60FE0240BF8A3E034F52D
:10484B00F988828983D0E0F090F60FE0F8A3E0F9C5
:10485B00E849600302493490F50BE0640170259040
:10486B00F60FE02401F0A3E03400F090F94574005A
:10487B00F0A37400F090F9477400F0A37400F012E9
:10488B003E2E808690F50BE06481702690F60FE04B
:10489B002401F0A3E03400F090F9457401F0A37407
:1048AB0000F090F9477400F0A37400F0123E2E0252
:1048BB00481590F50BE064C1702690F60FE02401CB
:1048CB00F0A3E03400F090F9457400F0A37400F00D
:1048DB0090F9477401F0A37400F0123E2E024815B4
:1048EB0090F50BE06403600890F50BE06413701C0B
:1048FB0090F9F97401F0C29190F50B7403F07C01FF
:10490B007D007A0B7BF51237B402481590F50BE05E
:10491B00600302481590F50B745AF07C017D007A08
:10492B000B7BF51237B402481590F60FE06401705B
:10493B0004A3E06400702390F50CE090F949F0902B
:10494B00F60FE02401F0A3E03400F090F717E060DD
:10495B0003024815123E1802481590F60FE0640248
:10496B007004A3E06400702A90F50DE0F8790090D4
:10497B00F94AE8F0A3E9F090F60FE02401F0A3E088
:10498B003400F090F717E06003024815123E18024E
:10499B00481590F60FC3E09403A3E09400A2D265F0
:1049AB00D033500302481590F717E07003123E18EE
:1049BB0090F60FC082C08390F949E0F87900E824A3
:1049CB0002F8500109D083D082E0687003A3E0693C
:1049DB006003024809123E0F90F945E06401700430
:1049EB00A3E06400703990F60FE02401FEA3E034DD
:1049FB0000FF90F60FEEF0A3EFF090F949E0FC7D8D
:104A0B00007A0E7BF51222ADE9C0E0740B2EF58215
:104A1B0074F53FF583D0E0F090F949E02401F09074
:104A2B00F947E064017004A3E06400707190F949E8
:104A3B00E0FC7D007A0E7BF512238B8A0C8B0DAA82
:104A4B000CAB0D90F60FE02401FCA3E03400FD90BD
:104A5B00F60FECF0A3EDF08A0C8B0D7408780C12AA
:104A6B000AD0E50CC0E0740B2CF58274F53DF58390
:104A7B00D0E0F090F60FE02401F8A3E03400F990B9
:104A8B00F60FE8F0A3E9F0EAC0E0740B28F58274A6
:104A9B00F539F583D0E0F090F949E02402F090F974
:104AAB0049E0FC7D007A0E7BF512683AE970349090
:104ABB00F94A120CFE90F949E0FC7D007A0E7BF569
:104ACB001244427402120B181222F07C037D007AFE
:104ADB000B7BF51237B490F60F7400F0A37400F053
:104AEB0002481590F50C7400F090F50D7400F07CF5
:104AFB00037D007A0B7BF51237B490F60F7400F040
:104B0B00A37400F00248157480120B187F06020B79
:104B1B00EE74F3120B88EAFEEBFF8C0A8D0B740D0F
:104B2B00120B6CE0F508A3E0F50985088285098373
:104B3B00E07003024F1C78007900801DEE28F5828F
:104B4B00EF39F583E0C0E074CD28F58274F939F5BF
:104B5B0083D0E0F008E8700109850A82850B83E0B9
:104B6B00FAA3E0FBC3E89AE99B40D1850A82850B47
:104B7B0083E0F8A3E0F990F9F7E8F0A3E9F090F9F6
:104B8B00CDE0540F44A090F9CDF090F9F7E0C39429
:104B9B0007F8A3E09400F9C3E8941BE99400504292
:104BAB0090F9F77407F0A37400F090F9F7E024FF85
:104BBB00FCA3E034FFFD7ACD7BF91222ADE9FA902C
:104BCB00F9F7E024CCF8A3E034F9F988828983E083
:104BDB006A6003024ECC8508828509837400F0025B
:104BEB004ECC90F9F7E0C39422F8A3E09400F9C3FC
:104BFB00E89407E994004003024E2F90F9F77422D2
:104C0B00F0A37400F090F9F7E024FEFCA3E034FF6E
:104C1B00FD7ACD7BF912238B8A0C8B0DA80CA90D79
:104C2B00E8FA90F9F7E024CCFCA3E034F9FD8C8290
:104C3B008D83E06A702C880C890D7408780C120A2D
:104C4B00D090F9F7E024CBF8A3E034F9F988828906
:104C5B0083E0650C700C8508828509837400F00273
:104C6B004ECC1222F090F9F5E0F8A3E0F9E8497088
:104C7B0003024ECC78007900801F744D28F58274A6
:104C8B00F939F583E0C0E074CD28F58274F939F574
:104C9B0083D0E0F008E8700109C3E89408E99400B8
:104CAB0040D890F955E02410547090F9D5F0780065
:104CBB007900801F745628F58274F939F583E0C0AA
:104CCB00E074D828F58274F939F583D0E0F008E860
:104CDB00700109C3E89402E9940040D890F9DA74A2
:104CEB0000F090F95BE090F9DCF090F95DE090F961
:104CFB00DDF078007900801F745828F58274F9393B
:104D0B00F583E0C0E074DE28F58274F939F583D0C1
:104D1B00E0F008E8700109C3E89402E9940040D878
:104D2B0078007900801F745E28F58274F939F58359
:104D3B00E0C0E074E028F58274F939F583D0E0F037
:104D4B0008E8700109C3E8940CE9940040D890F985
:104D5B00EC7400F090F9F7E024FEFCA3E034FFFDC7
:104D6B007ACD7BF912238B8A0C8B0DA80CA90DE83D
:104D7B00FA90F9F7E024CCFCA3E034F9FD8C828D9A
:104D8B0083E06A7029880C890D7408780C120AD09C
:104D9B0090F9F7E024CBF8A3E034F9F98882898302
:104DAB00E0650C70098508828509837400F085081D
:104DBB0082850983E07003024ECC90F9D5E0D2E0F6
:104DCB00F090F9F7E024FEFCA3E034FFFD7ACD7BF5
:104DDB00F912238B8A0C8B0DA80CA90DE8FA90F90C
:104DEB00F7E024CCFCA3E034F9FD8C828D83E06AE0
:104DFB006003024ECC880C890D7408780C120AD013
:104E0B0090F9F7E024CBF8A3E034F9F98882898391
:104E1B00E0650C6003024ECC850882850983740023
:104E2B00F0024ECC90F9F7E0C3942AF8A3E094007B
:104E3B00F9C3E8941DE99400503E90F9F7742AF0F9
:104E4B00A37400F090F9F7E024FFFCA3E034FFFD1E
:104E5B007ACD7BF91222ADE9FA90F9F7E024CCF880
:104E6B00A3E034F9F988828983E06A70548508825B
:104E7B008509837400F0804990F9F7C3E09447A348
:104E8B00E09400403C90F9F77447F0A37400F09065
:104E9B00F9F7E024FFFCA3E034FFFD7ACD7BF91298
:104EAB0022ADE9FA90F9F7E024CCF8A3E034F9F954
:104EBB0088828983E06A700985088285098374007A
:104ECB00F0850882850983E06401604578007900EC
:104EDB00801D74CD28F58274F939F583E0C0E0EEBE
:104EEB0028F582EF39F583D0E0F008E870010990DE
:104EFB00F9F7E0FAA3E0FBC3E89AE99B40D490F9F9
:104F0B00F7E0F8A3E0F9850A82850B83E8F0A3E9C3
:104F1B00F0850882850983E0640170030250178EC7
:104F2B00828F83E064AA600C8E828F83E064AB6017
:104F3B00030250178E828F83A3A3E0F890F8B1E0A1
:104F4B006870218E828F83A3A3A3E0F890F8B2E060
:104F5B006870118E828F83A3A3A3A3E0F890F8B39C
:104F6B00E06860608E828F83A3A3E0F890F8B4E0D2
:104F7B006870218E828F83A3A3A3E0F890F8B5E02D
:104F8B006870118E828F83A3A3A3A3E0F890F8B669
:104F9B00E06860308E828F83A3A3E0F890F8B7E0CF
:104FAB006870698E828F83A3A3A3E0F890F8B8E0B2
:104FBB006870598E828F83A3A3A3A3E0F890F8B9EE
:104FCB00E0687048850A82850B83E0F8A3E0F990CE
:104FDB00F9F5E8F0A3E9F078007900801DEE28F5EB
:104FEB0082EF39F583E0C0E0744D28F58274F9390E
:104FFB00F583D0E0F008E8700109850A82850B8300
:10500B00E0FAA3E0FBC3E89AE99B40D17F06020BD1
:10501B00EE74F5120B887E0080010EEEC3940340F4
:10502B000302513A7508000250F8EFF87900E87561
:10503B00F002A4C8AAF075F000A42AFA75F002E9F0
:10504B00A42AF9E508FC7D00EC75F004A4CCAAF0C9
:10505B0075F000A42AFA75F004EDA42AFDEEFA7B94
:10506B0000EA75F020A4CA85F00975F000A42509A3
:10507B00F50975F020EBA42509FB74662AFA74F781
:10508B003BFBEA2CFAEB3DFBEA28F582EB39F58387
:10509B007400F0A37400F0E508FA7B00EA75F002E7
:1050AB00A4CAA8F075F000A428F875F002EBA428A8
:1050BB00FBEEF87900E875F010A4C8ACF075F000C1
:1050CB00A42CFC75F010E9A42CF974DE28F874F705
:1050DB0039F9E82AF582E93BF5837400F0A37400F3
:1050EB00F00FEFC3940250030250350508E508C3D7
:1050FB009408400302502585080A750B00EEF879D9
:10510B0000E875F008A4C8AAF075F000A42AFA7597
:10511B00F008E9A42AF974C628F874F739F9E825D8
:10512B000AF582E9350BF5837400F07F0080B37FBD
:10513B0004020BEE74F7120B887E00025290EFFA0A
:10514B007B00EA75F004A4CAA8F075F000A428F857
:10515B0075F004EBA428FBEEF87900E875F020A4B9
:10516B00C8ACF075F000A42CFC75F020E9A42CF968
:10517B00746628F874F739F9E82AF582E93BF58368
:10518B00E0C394B0F8A3E09404F9C3E894B9E994AC
:10519B000B4049EFFA7B00EA75F004A4CAA8F0753E
:1051AB00F000A428F875F004EBA428FBEEF87900C6
:1051BB00E875F020A4C8ACF075F000A42CFC75F0D9
:1051CB0020E9A42CF9746628F874F739F9E82AF564
:1051DB0082E93BF5837400F0A37400F0EEFA7B00D8
:1051EB00EA75F020A4CAA8F075F000A428F875F0B1
:1051FB0020EBA428FBEFF87900E875F004A4C8AC09
:10520B00F075F000A42CFC75F004E9A42CF974687B
:10521B0028F874F739F9E82AF582E93BF583E0C3FE
:10522B009450F8A3E09400F9C3E894ABE9940040E0
:10523B0049EEFA7B00EA75F020A4CAA8F075F000DD
:10524B00A428F875F020EBA428FBEFF87900E8759B
:10525B00F004A4C8ACF075F000A42CFC75F004E9C4
:10526B00A42CF9746828F874F739F9E82AF582E95F
:10527B003BF5837400F0A37400F00FEFC394085058
:10528B00030251490EEEC3940350047F0080EC7E61
:10529B000080010EEEC3940340030256A37F00026D
:1052AB00534CEEFA7B00EA75F020A4CAA8F075F017
:1052BB0000A428F875F020EBA428FBEFF87900E8A0
:1052CB0075F004A4C8ACF075F000A42CFC75F004C8
:1052DB00E9A42CF9746828F874F739F9E82AF582EF
:1052EB00E93BF583E0F8A3E0F97A0A7B00120A7731
:1052FB008A088B09EEFA7B00EA75F020A4CAA8F0A5
:10530B0075F000A428F875F020EBA428FBEFF879D2
:10531B0000E875F004A4C8ACF075F000A42CFC7583
:10532B00F004E9A42CF9746828F874F739F9E82A21
:10533B00F582E93BF583C3E09508F0A3E09509F00E
:10534B000FEFC39408400302529EEFFA7B00EA75FD
:10535B00F004A4CAA8F075F000A428F875F004EBCB
:10536B00A428FBEEF87900E875F020A4C8ACF07522
:10537B00F000A42CFC75F020E9A42CF9746628F835
:10538B0074F739F9E82AF582E93BF583E0F8A3E0F5
:10539B00F97A0A7B00120A778A088B09C3E508940D
:1053AB0006E509940050030254ADEFFA7B00EA7551
:1053BB00F004A4CAA8F075F000A428F875F004EB6B
:1053CB00A428FBEEF87900E875F020A4C8ACF075C2
:1053DB00F000A42CFC75F020E9A42CF9746628F8D5
:1053EB0074F739F9E82AF582E93BF583E0240AFCE6
:1053FB00A3E03400FDEFFA7B00EA75F004A4CAA821
:10540B00F075F000A428F875F004EBA428FBEEF877
:10541B007900E875F020A4C885F00875F000A42584
:10542B0008F50875F020E9A42508F9746628F874C6
:10543B00F739F9E82AF582E93BF583E0F8A3E0F9BF
:10544B007A0A7B00120A778A088B09ECC39508FC51
:10545B00ED9509FDEFFA7B00EA75F004A4CAA8F0FC
:10546B0075F000A428F875F004EBA428FBEEF8798E
:10547B0000E875F020A4C885F00875F000A4250895
:10548B00F50875F020E9A42508F9746628F874F777
:10549B0039F9E82AF582E93BF583ECF0A3EDF0024C
:1054AB00554BEFFA7B00EA75F004A4CAA8F075F02F
:1054BB0000A428F875F004EBA428FBEEF87900E8BB
:1054CB0075F020A4C8ACF075F000A42CFC75F0208E
:1054DB00E9A42CF9746628F874F739F9E82AF582EF
:1054EB00E93BF583E0F8A3E0F97A0A7B00120A772F
:1054FB008A088B09EFFA7B00EA75F004A4CAA8F0BE
:10550B0075F000A428F875F004EBA428FBEEF879ED
:10551B0000E875F020A4C8ACF075F000A42CFC7565
:10552B00F020E9A42CF9746628F874F739F9E82A05
:10553B00F582E93BF583C3E09508F0A3E09509F00C
:10554B00EEFA7B00EA75F020A4CAA8F075F000A46F
:10555B0028F875F020EBA428FBEFF87900E875F03C
:10556B0004A4C8ACF075F000A42CFC75F004E9A4FD
:10557B002CF9746828F874F739F9E82AF582E93BB5
:10558B00F583E0F8A3E0F97A0A7B00120A778A0820
:10559B008B09C3E5089406E509940050030252AD4C
:1055AB00EEFA7B00EA75F020A4CAA8F075F000A40F
:1055BB0028F875F020EBA428FBEFF87900E875F0DC
:1055CB0004A4C8ACF075F000A42CFC75F004E9A49D
:1055DB002CF9746828F874F739F9E82AF582E93B55
:1055EB00F583E0240AFCA3E03400FDEEFA7B00EA2D
:1055FB0075F020A4CAA8F075F000A428F875F02067
:10560B00EBA428FBEFF87900E875F004A4C885F04B
:10561B000875F000A42508F50875F004E9A4250821
:10562B00F9746828F874F739F9E82AF582E93BF53B
:10563B0083E0F8A3E0F97A0A7B00120A778A088BD9
:10564B0009ECC39508FCED9509FDEEFA7B00EA75B4
:10565B00F020A4CAA8F075F000A428F875F020EB90
:10566B00A428FBEFF87900E875F004A4C885F008CE
:10567B0075F000A42508F50875F004E9A42508F9D0
:10568B00746828F874F739F9E82AF582E93BF58351
:10569B00ECF0A3EDF002534B7F02020BEE74F81209
:1056AB000B88E9FEEEC4540F5407FCEEA2E0E43382
:1056BB00F990F718E0F890F8B1E068701C90F719C2
:1056CB00E0F890F8B2E068701090F71AE0F890F8F4
:1056DB00B3E06870047B00805290F718E0F890F804
:1056EB00B4E068701C90F719E0F890F8B5E06870BA
:1056FB001090F71AE0F890F8B6E06870047B018020
:10570B002A90F718E0F890F8B7E068701C90F7193A
:10571B00E0F890F8B8E068701090F71AE0F890F89D
:10572B00B9E06870047B0280027B03EBC3940350E7
:10573B0068E9F87900E875F002A4C8AAF075F000E2
:10574B00A42AFA75F002E9A42AF9ECFC7D00EC75A9
:10575B00F004A4CCAAF075F000A42AFA75F004EDBD
:10576B00A42AFDEBFA7B00EA75F020A4CAAFF07512
:10577B00F000A42FFF75F020EBA42FFB74662AFA20
:10578B0074F73BFBEA2CFAEB3DFBEA28F582EB398D
:10579B00F583E0FAA3E0FB80047A007B007F010233
:1057AB000BEE74F1120B8874FF120B02E9C0E0854B
:1057BB001082851183D0E0F08A0F8C0C8D0DE50FD4
:1057CB00C4540F5407FCE50FA2E0E433F50E85102B
:1057DB0082851183E0C4540F5407FD851082851117
:1057EB0083E0A2E0E433FF90F718E0F890F8B1E023
:1057FB0068701C90F719E0F890F8B2E068701090A0
:10580B00F71AE0F890F8B3E06870047E00805290CD
:10581B00F718E0F890F8B4E068701C90F719E0F80E
:10582B0090F8B5E068701090F71AE0F890F8B6E0D1
:10583B006870047E01802A90F718E0F890F8B7E0C2
:10584B0068701C90F719E0F890F8B8E06870109049
:10585B00F71AE0F890F8B9E06870047E0280027ED7
:10586B0003EEC3940340030263038D08750900859F
:10587B00080A85090B8C08750900E5082401F8E472
:10588B003509F97A087B00120A6F8A088B09E5083B
:10589B00650A7004E509650B6003026167ECC3944C
:1058AB00714003026167C3E50C94C0E50D9412408F
:1058BB0003026167E50E6003025A46EF6003025A6A
:1058CB0046ECFA7B00EA75F004A4CAA8F075F00068
:1058DB00A428F875F004EBA428FBEEF87900E87522
:1058EB00F020A4C8ADF075F000A42DFD75F020E9F3
:1058FB00A42DF9746628F874F739F9E82AF582E9CA
:10590B003BF583E0F8A3E0F9E849704CECFA7B0037
:10591B00EA75F004A4CAA8F075F000A428F875F095
:10592B0004EBA428FBEEF87900E875F020A4C8ACD2
:10593B00F075F000A42CFC75F020E9A42CF974662A
:10594B0028F874F739F9E82AF582E93BF583E50C79
:10595B00F0A3E50DF00262F3ECFA7B00EA75F004BC
:10596B00A4CAA8F075F000A428F875F004EBA428DD
:10597B00FBEEF87900E875F020A4C8ADF075F000E7
:10598B00A42DFD75F020E9A42DF9746628F874F7A1
:10599B0039F9E82AF582E93BF583E0250CF0A3E021
:1059AB00350DF0ECFA7B00EA75F004A4CAA8F0758B
:1059BB00F000A428F875F004EBA428FBEEF87900AE
:1059CB00E875F020A4C8ADF075F000A42DFD75F0BE
:1059DB0020E9A42DF9746628F874F739F9E82AF54B
:1059EB0082E93BF583E0F8A3E0F9E9C313F9E81387
:1059FB00F8ECFC7D00EC75F004A4CCAAF075F0007B
:105A0B00A42AFA75F004EDA42AFDEEFA7B00EA75E0
:105A1B00F020A4CAAFF075F000A42FFF75F020EBB7
:105A2B00A42FFB74662AFA74F73BFBEA2CF582EB86
:105A3B003DF583E8F0A3E9F00262F3E50E600302A3
:105A4B005FDE74016F6003025FDEEEF87900E875CC
:105A5B00F020A4C8AAF075F000A42AFA75F020E98A
:105A6B00A42AF9EDFA7B00EA75F004A4CAAFF0752D
:105A7B00F000A42FFF75F004EBA42FFB74682AFA37
:105A8B0074F73BFBEA28F582EB39F583E0F8A3E0EA
:105A9B00F9E8497003025D20ECF87900E875F00431
:105AAB00A4C8AAF075F000A42AFA75F004E9A42A98
:105ABB00F9EEFA7B00EA75F020A4CAAFF075F0009E
:105ACB00A42FFF75F020EBA42FFB74662AFA74F752
:105ADB003BFBEA28F582EB39F583E0F8A3E0F9E824
:105AEB00496003025B8FEEF87900E875F020A4C8DB
:105AFB00AAF075F000A42AFA75F020E9A42AF9EDB2
:105B0B00FA7B00EA75F004A4CAAFF075F000A42F7D
:105B1B00FF75F004EBA42FFB74682AFA74F73BFBB8
